:020000040800F2
:100000002813002049010008CF2B00086D280008A4
:10001000CD2B0008270B0008F12F0008000000007E
:10002000000000000000000000000000D32B0008CA
:10003000290B000800000000D12B0008D52B000878
:100040006301000863010008630100086301000800
:1000500063010008630100086301000863010008F0
:1000600063010008630100086301000863010008E0
:1000700063010008630100086301000863010008D0
:1000800063010008630100086301000863010008C0
:10009000E52F000863010008630100086301000800
:1000A00063010008630100086301000863010008A0
:1000B000552C0008612C00086D2C00086301000815
:1000C0006301000863010008630100086301000880
:1000D00063010008B92F000863010008C52F00085C
:1000E0006301000863010008630100086301000860
:1000F0006301000863010008630100086301000850
:10010000630100086301000863010008630100083F
:10011000630100086301000863010008630100082F
:10012000630100086301000863010008630100081F
:10013000DFF810D000F09CFC00480047E9460008BA
:10014000AFF3008028130020064880470648004788
:10015000FEE7FEE7FEE7FEE7FEE7FEE7FEE7FEE777
:10016000FEE7FEE7532C000831010008202A04DBDB
:10017000203A21FA02F00021704721FA02F3D04020
:10018000C2F120029140084319467047D2B201E003
:1001900000F8012B491EFBD270470022F6E710B58C
:1001A00013460A4604461946FFF7F0FF204610BDE5
:1001B00030B505462A460B4612F8010B13F8014BE1
:1001C00008B1A042F8D01CB1002802D06D1CF1E7A4
:1001D000284630BD421C10F8011B0029FBD1801AB3
:1001E0007047F0B480EA0102D40F4200B2EB410F35
:1001F00002D20246084611464A0042D0C30DDDB283
:10020000C1F3C752AD1A202D35DAC1F3160141F4FE
:10021000000204B15242C5F1200602FA06F12A4159
:100220001044B3EBD05F23D0C4B1012DA0EBC35079
:1002300009DCF0BC4FF0004202EAC352DBB200F529
:10024000000000F059BB400000F1807000EBC3508B
:10025000A0F1807040EAD170490009E0490841EA04
:10026000C071A0EBC35000F50000400800EBC35084
:10027000F0BC00F038BB6142012202EB4101001BDF
:10028000F6E7F0BC704781F00041AAE780F000403B
:10029000A7E780EA010210B502F00043400022D037
:1002A0004A001FD0010E01EB1261C0F35600C2F3E9
:1002B000560240F4000042F40002A0FB02200004B9
:1002C0007F39140400D0401C50EA124001D4400091
:1002D000491EC2B20C0604EBD010401C4008802A14
:1002E00002D003E0002010BD20F00100002900DA58
:1002F0000020184310BD30B480EA010202F000452E
:1003000030F0004221F0004013D090B1C30DD40D65
:10031000C2F31601C0F31600E41A41F4000140F4E0
:1003200000027D34914201D3641C00E04900002C9E
:1003300002DA30BC002070474FF4000000239142E5
:1003400001D3891A034340084FEA4101F7D151B163
:10035000914202D14FF0004105E002D24FF001017D
:1003600001E06FF0010103EBC450284430BC00F001
:10037000BABA420005D0C0F3C7525242914201DCE2
:100380000020704700EBC15070472DE9FE4F8046BA
:1003900081EA0300C00F0C46009021F0004123F0D9
:1003A0000045B8EB0200A94105D2404621469046DF
:1003B0001C460B46024623F00040104347D0270D51
:1003C000C7F30A00C3F30A510290401A0190402873
:1003D0006BDAC3F3130040F4801B0098924620B1FF
:1003E0000023D2EB030A63EB0B0B01985946C0F1D3
:1003F0004002504600F056FA06460D465046594611
:10040000019A00F05EFA10EB08006141002487EACF
:10041000115284EAE7731A4340D0009A62B3019AFA
:10042000012A4FEA075215DC001B61EB02014FF075
:10043000004202EA0752CDE90042001C41F580115A
:1004400032462B4600F095FA03B0BDE8F08F4046E7
:100450002146F9E7001B61EB0201001C41F5801306
:1004600000185B412018A2F5001747EB030140EA92
:10047000D570B6196D4111E06D084FEA360645EAB0
:10048000C0754FEA0752001B61EB0201001C41F5E9
:10049000801149084FEA30000019514132462B467D
:1004A00003B0BDE8F04F00F055BA009801224000BB
:1004B0000023D0EB020263EBE073009821464FEA81
:1004C000E074B8EB000061EB0401E9E783F000435E
:1004D0005BE781F0004158E72DE9FE4F81EA030414
:1004E00004F0004421F0004100944FF0000B23F091
:1004F000004350EA01045ED052EA03045BD0C3F328
:100500000A54C1F30A552C44A4F2F3340194A0FB1D
:100510000254C1F3130141F48011C3F3130343F4F4
:10052000801301FB024400FB034E840A970A44EA4D
:10053000815447EA8357A4FB076802958D0A05FB9F
:1005400007854FEA932C04FB0C542705029D4FEAC4
:10055000065847EA1637B5EB08056EEB070C870E11
:10056000920E47EA811742EA8312A7FB0201B6EB1B
:100570000B0164EB00042B0D43EA0C335E1844EBD3
:100580001C50DA465146E7FB0201C5F313044FEA5B
:100590000B3343EA14534FEA0432019C43EA060347
:1005A000A4F10C040294009CCDE900B400F0E1F940
:1005B00003B0BDE8F08F00200146F9E72DE9F04DCA
:1005C00081EA030404F0004B21F0004514464FF08B
:1005D000000A23F0004150EA050220D054EA01024B
:1005E0001DD0C5F30A570246C5F31303C1F3130028
:1005F000C1F30A5640F4801543F48013A7EB0608B4
:10060000101BD64608F2FD3873EB050002D308F143
:10061000010801E092185B41B8F1000F03DA0020F5
:100620000146BDE8F08D00204FF480110646844657
:100630000EE0171B73EB050705D3121B63EB0503D5
:1006400006434CEA010C49084FEA300092185B411E
:1006500050EA0107EDD152EA030012D082EA040009
:1006600083EA0501084305D0101BAB4106D20122E5
:10067000002306E000224FF0004302E06FF0010289
:1006800053101AEB06004CEB085110EB0A0041EB3B
:100690000B01BDE8F04D00F05DB970B521F00043ED
:1006A00003430CD0C1F30A550024D5EB040564EBD9
:1006B0000403D617AD1AB34102DB0020014670BD1A
:1006C000201841EB025170BDC10F80EAE070084470
:1006D000CA079623002100F00FB996230022114685
:1006E00000F00AB90EB5C10F80EAE0700844CA07ED
:1006F000002140F233438DE80E000A460B4600F01D
:1007000038F903B000BD0EB540F23341029100212B
:10071000CDE900110A460B4600F02BF903B000BDED
:1007200000F0004220F00040C10DC0F3160040F47C
:1007300000007F2901DA00207047962903DCC1F10F
:100740009601C84001E096398840002AF4D0404222
:10075000704720F00040C10DC0F3160040F40000C7
:100760007F2901DA00207047962903DCC1F1960148
:10077000C840704796398840704770B5C1F30A5237
:1007800001F000450024C1F3130140F2FF3341F4AE
:1007900080119A4201DA002070BD40F233439A4240
:1007A000A2F2334203DC5242FFF7E0FC00E090404B
:1007B0002C43F1D0404270BD00F0004230F00040C8
:1007C0000AD0C10D01F56071C0F3160042EA015173
:1007D000C20840071143704700200146704701F0EE
:1007E000004330B421F0004150EA010206D00A0D66
:1007F000A2F56072C1F31301002A02DC30BC0020B4
:100800007047440F44EAC104C100E01830BC00EB5B
:10081000C25000F068B830B50B46014600202022D7
:10082000012409E021FA02F59D4205D303FA02F5FD
:10083000491B04FA02F52844151EA2F10102F1DC5D
:1008400030BD2DE9F05F0546002092469B46884664
:100850000646814640241BE028464146474622463C
:10086000FFF784FC53465A46C01A914110D31146F3
:100870001846224600F016F82D1A67EB01084F467D
:1008800022460120002100F00DF817EB00094E412F
:10089000201EA4F10104DFDC484631462A464346C7
:1008A000BDE8F09F202A04DB203A00FA02F1002084
:1008B00070479140C2F1200320FA03F3194390409E
:1008C0007047202A06DBCB17203A41FA02F043EAB0
:1008D000E07306E041FA02F3D040C2F120029140F9
:1008E0000843194670470029A8BF7047401C4900BB
:1008F00008BF20F00100704710B4B0FA80FC00FA85
:100900000CF050EA010404BF10BC704749B1CCF1AF
:10091000200421FA04F411FA0CF118BF012121433B
:100920000843A3EB0C01CB1D4FEA00614FEA1020F6
:1009300042BF002010BC704700EBC3501044002998
:10094000A4BF10BC7047401C490008BF20F0010044
:1009500010BC704710B5141E73F1000408DA401C77
:1009600041F1000192185B411A4301D120F00100CE
:1009700010BD2DE9F04D92469B4611B1B1FA81F2BE
:1009800002E0B0FA80F220329046FFF78BFF044677
:100990000F4640EA0A0041EA0B0153465A46084313
:1009A00013D0114653EA010019D0C8F14002504655
:1009B000FFF7DCFB05460E46504659464246FFF718
:1009C00071FF084305D0012004E020463946BDE808
:1009D000F08D0020054346EAE0762C4337430A9821
:1009E0006305E40AA0EB08000022FD0A44EA47542C
:1009F0000A3002D500200146E9E7010510196941D6
:100A0000DDE9084500196941BDE8F04DA2E7C1F3F1
:100A10000A52C1F3130140F2FF3341F480119A42AC
:100A200002DA00200146704740F233439A42A2F2B4
:100A3000334202DC5242FFF799BBFFF733BF00009D
:100A400030B5041E71F1000404DB4FF00044404255
:100A500064EB0101141E73F1000405DB1C464FF02A
:100A60000043524263EB0403994208BF904230BDF9
:100A7000064C074D06E0E06840F0010394E80700EB
:100A800098471034AC42F6D3FFF756FB704C000881
:100A9000904C000830B58C1810F8012B12F00F03A1
:100AA00001D110F8013B120906D110F8012B03E027
:100AB00010F8015B01F8015B5B1EF9D101E001F860
:100AC000013B521EFBD1A142E6D3002030BD000005
:100AD00070B5044600688168C943C90717D18168A9
:100AE00021F00101816000F05FFE05460AE000BFD1
:100AF00000F05AFE401B022804D920688068C043D9
:100B0000C00706D020688068C043C007F0D000202E
:100B100070BDA06A40F01000A062E06A40F00100E1
:100B2000E062012070BDFEE7704770B504464FF4E7
:100B30007A7502E0284600F003F8641EFAD270BD10
:100B400070B54FF6FA75094E281A84B230684462BF
:100B5000304601F07FFA306801E0416A8CB2AC4265
:100B6000FBD3BDE87040014801F0DCBA74020020FC
:100B700072B6FEE7F8B50024009490F824202546CC
:100B8000012A12D0012280F824204A681F23072A54
:100B90000DD20668776B521E02EB820293409F4390
:100BA0000B6893401F43776319E00220F8BD066885
:100BB0000D2A0AD2376BD21F02EB820293409F4369
:100BC0000B6893401F43376309E0F76A0D3A02EB65
:100BD000820293409F430B6893401F43F7620A6869
:100BE000072306680A2A0AD3F7680A3A02EB420288
:100BF00093409F438B6893401F43F76008E0376939
:100C000002EB420293409F438B6893401F4337613E
:100C10000A68102A01D0112A20D1124B02689A4288
:100C200017D193681B0219D4936843F400039360AF
:100C30000968102912D10C490C4A0968B1FBF2F17C
:100C400001EB8101490000E0491E00910029FBD120
:100C500004E0816A41F020018162012480F824507F
:100C60002046F8BD002401406401002040420F00EE
:100C70002DE9F04104004FF000057FD0A06A002666
:100C800028B9E66284F82460204600F081F8204606
:100C9000FFF71EFFA16AC90600D420B1A06A40F088
:100CA0001000A0626AE0A16A21F4885141F00201BB
:100CB000A162334923688B42E16904D1B1F5402F29
:100CC00001D14FF40021277B4FF4807C41EA470299
:100CD00061680A43A168614508D0012906D0002156
:100CE00094F814E0BEF1010F02D00AE06146F7E784
:100CF000C7B1A76A47F02007A762E76A47F0010774
:100D0000E7625F6827F469470F435F60236899686B
:100D10001C4F394011439960A16861450BD00129EE
:100D200009D00CE0DFF860E0A7690EEB47370F430E
:100D300047F40061E5E7218A0D05A5F580152168D6
:100D4000CB6A23F470032B43CB62216889680F4B75
:100D50001940914208D1E662A16A21F0020141F0F6
:100D60000101A162BDE8F081A06A20F0020040F01C
:100D70001000A062E06A40F00100E0620120F1E7AB
:100D8000003C0140FDF7E1FF00E0FFFFFE0E1FFF0A
:100D900000B585B000210091019102910391006896
:100DA0000E49884218D10E48816941F40071816171
:100DB000816901F400710491816941F00801816148
:100DC0008069694600F0080004900120009003202B
:100DD0000190044800F0E6FB05B000BD002401408E
:100DE00000100240000C0140F0B590F8205004685B
:100DF000A468012D05D0022D03D0416A41F4802161
:100E00005DE014F0406F01D1E50055D5C4F30164F5
:100E1000022C03D9416A41F4000150E00125A540AC
:100E20001D608D684FF4C0739DB1CE6835434E6828
:100E300045EAC605066803EB0417F5514FF4C27581
:100E4000076805EB04150E697E51097D012905D05F
:100E500009E00E88CD6845EA4655EBE701684E5932
:100E600046F480764E511179D579567941EA05617B
:100E700095792D0445EA062529434FF4C676056881
:100E800006EB0416A9511178D57841EA05619578E9
:100E900052782D0445EA022211434FF4C4750268CA
:100EA00005EB04155151006803EB0411425842F060
:100EB000010242500020F0BD416A41F4001141623C
:100EC0000120F0BD704730B590F82040012C05D0CE
:100ED000022C03D0416A41F480215DE004680029BE
:100EE00055D02469A40754D04FF4D874056804EB96
:100EF00001142D5915F00405956005682D594ED043
:100F0000ED08556005682C5904F00204D4604FF4D4
:100F1000DA74056804EB01142D5905F00F0515610D
:100F200005682D59C5F30725956105682C59240CD2
:100F300054614FF4DC72046802EB0112A4581C7077
:100F40000468A458240A5C700468A458240C9C709B
:100F50000468A258120EDA704FF4DE72046802EBD5
:100F60000112A4581C710468A458240A5C71046816
:100F7000A458240C9C710468A258120EDA710068FF
:100F800081B1016941F020010161002030BDE468B8
:100F9000A8E7416A41F400114162012030BD6D0DA6
:100FA0001560AFE7C16841F02001C160EDE72DE9B0
:100FB000F05F0546006800244669D0F80490876811
:100FC000D0F80CB0D0F810A0D0F81880F10748D0B5
:100FD000F90714D001218160B80703D5284600F035
:100FE0000DFA0CE0780702D54FF4006407E03807EB
:100FF00002D54FF4805402E0284600F0FEF9F805CF
:1010000016D529684FF480708860B80503D5284646
:1010100000F0F6F90CE0780502D544F4005407E03E
:10102000380502D544F4804402E0284600F0E7F990
:10103000F80316D529684FF480308860B80303D5CB
:10104000284600F0DFF90CE0780302D544F40044B0
:1010500007E0380302D544F4803402E0284600F06B
:10106000D0F9300707D55FEACB6004D52968102096
:1010700044F40074C86070074FF0080707D55FEAB2
:101080000B7004D52868C760284600F059F9B007EE
:1010900006D52868C068800702D0284600F052F9BB
:1010A000700607D55FEACA6004D52968102044F4A9
:1010B00080640861B00607D55FEA0A7004D5286825
:1010C0000761284600F096F9F00606D52868006901
:1010D000800702D0284600F08EF9B00308D55FEAF9
:1010E000C96005D5296810204860284600F084F9B9
:1010F000F00307D55FEA097004D5286847602846E1
:1011000000F081F9300446D55FEA497040D5F0051A
:1011100004D55FEAC87001D044F00104B00504D5DD
:101120005FEA887001D544F00204700504D55FEAD7
:10113000487001D544F00404300529D518F0700F2B
:1011400026D008F07000402815D006DC102809D001
:1011500020280AD0302816D10AE050280ED0602866
:1011600011D10EE044F008040DE044F010040AE050
:1011700044F0200407E044F0400404E044F080041C
:1011800001E044F480742868816921F07001816174
:10119000296804204860002C05D0686A20436862F2
:1011A0002846FFF78FFEBDE8F09F70B5040003D01E
:1011B00094F8200010B104E0012070BD204600F03A
:1011C00081F82068016841F00101016000F0ECFA4B
:1011D0000546052604E000F0E7FA401B0A2811D86E
:1011E00020684068C007F6D02068016821F002013D
:1011F000016000F0D9FA05460BE000F0D5FA401B7B
:101200000A2806D9606A40F40030606284F82060E1
:10121000D2E7206840688007EFD4207E012820684C
:1012200001683DD021F080010160607E01282068C6
:10123000016838D021F040010160A07E01282068BB
:10124000016833D021F020010160E07E0128206890
:1012500001682ED041F010010160207F0128206834
:10126000016829D021F008010160607F0128206811
:10127000016824D021F004010160D4E9020108438F
:10128000D4E90412114308436168491E08432168E8
:10129000C86100206062012084F82000002070BD39
:1012A00041F08001C0E741F04001C5E741F0200175
:1012B000CAE721F01001CFE741F00801D4E741F07F
:1012C0000401D9E710B586B0002100910191029187
:1012D00003910068174988422AD11748C16941F033
:1012E0000071C161C16901F000710491816941F02F
:1012F000040181618069114C00F0040004904FF4F6
:10130000006000906946204600F04CF9A01400905F
:1013100002200190032003906946204600F042F924
:1013200000220121142000F0ABFA142000F09AFAF8
:1013300006B010BD006400400010024000080140EB
:10134000704700001CB5002100916B46234A0191B3
:10135000FFF7B9FD002816D19DF8011068462B292A
:1013600016D19DF80210E82902D0E2290CD00FE036
:101370009DF80510E9290BD1194A0021435C53540B
:10138000491C0829FADB1CBD9DF80510E4290ED084
:101390009DF80010922912D09C294FF0000116D020
:1013A000104A435C5354491C0829FADB1CBD0E4A01
:1013B0000021435C5354491C0829FADB1CBD0B4A2D
:1013C0000021435C5354491C0829FADB1CBD084A20
:1013D000435C5354491C0829FADB1CBDC0010020A2
:1013E00008000020400100201000002048010020DB
:1013F0005001002070477047704770477047704732
:10140000704770477047704710B590F82110002260
:10141000022905D00421816380F82020012010BD1D
:1014200001680B6823F00E030B6001680B6823F062
:1014300001030B6090F84030C46B012101FA03F303
:10144000636080F8211080F82020104610BD000055
:101450002DE9F05F90F821100024022903D0042127
:101460008163012485E001680A6822F00E020A60A7
:1014700001680A6822F001020A603F4E3E4FB21531
:10148000DFF8F4C0DFF8F090DFF8ECA0DFF8E8B0A8
:10149000DFF8E4E00168783F13011502ACF1640C59
:1014A000A9F15009AAF13C0AABF1280BAEF1140ED8
:1014B0004FF48018B14227D9B9420ED0614512D0FD
:1014C00049451DD0514518D0594518D0714501D115
:1014D000424615E0294EB14201D1012210E0274ECB
:1014E0001436B14201D110220AE0244E2836B1420E
:1014F00006D0224A3C32914201D11A4600E02A46E7
:101500001E49091F0A602BE0B94213D0614517D06C
:10151000494522D051451DD059451DD0714501D1B5
:1015200042461AE0B14202D14FF0807215E0134EEC
:10153000B14201D1012210E0104E1436B14201D166
:1015400010220AE00D4E2836B14206D00B4A3C323A
:10155000914201D11A4600E02A46074980394A6083
:10156000012180F82110002180F82010416B01B189
:1015700088472046BDE8F09F8000024008040240F2
:1015800070B5044600F010F90546601C02D004480E
:101590000078044400F008F9401BA042FAD370BD63
:1015A000580100202DE9F84FDFF8C891002409F117
:1015B000040A0AF1040B23460F270BF1040ED1E0B5
:1015C0000125A54006EA0502AA4276D1DFF8A8C1A6
:1015D0004E68A6EB0C0866452BD00DDC032E34D0EC
:1015E00005DC36B3012E19D0022E2FD11BE0112EAF
:1015F00016D0122E2AD119E0B8F5881F19D006DCB2
:10160000B8F5803F15D0B8F5801F1FD111E0B8F5AF
:10161000001F0ED0B8F5041F18D10AE0CB6815E002
:10162000CB681B1D12E0CB6808330FE0CB680C338E
:101630000CE08B682BB1012B4FF0080303D0456100
:1016400004E0042302E0056100E00023FF2A01D842
:10165000064601E000F104064FEA840501D9A5F130
:101660002005D6F8008007FA05FC28EA0C0803FAE2
:1016700005F548EA0508C6F800804D68ED0070D50C
:101680003E4DAE6946F00106AE61AD6924F0030639
:1016900005F0010500953A4D06EB050CDCF8085005
:1016A000A607360F07FA06F825EA0805DFF8D48002
:1016B000404503D14FF0000825E052E0DFF8C88034
:1016C000404502D14FF001081DE0DFF8C0804045E1
:1016D00002D14FF0020816E0DFF8B480404502D195
:1016E0004FF003080FE0DFF8AC80404502D14FF027
:1016F000040808E0DFF8A080404502D14FF005085B
:1017000001E04FF0060808FA06F848EA0508CCF8A8
:1017100008804D68D9F80060ED034D4601D51643A9
:1017200000E096432E604D68DAF80060AD03554640
:1017300001D5164300E096432E604D68DBF800604B
:10174000ED025D4601D5164300E096432E604D68DC
:10175000DEF80060AD02754601D5164300E0964301
:101760002E60641C0A681646E2407FF429AFBDE88B
:10177000F88F00000004014000001110001002402A
:101780000000014000080140000C01400010014031
:101790000014014000180140001C01400AB1016121
:1017A00070470904FBE700000148806870470000AB
:1017B0005801002002488168027811448160704716
:1017C00058010020074810B5016841F01001016080
:1017D000032000F075F8002000F006F800F024F86F
:1017E000002010BD0020024070B50D4D04464FF49E
:1017F0007A712878B1FBF0F00A490968B1FBF0F082
:1018000000F062FB48B9102C07D200222146501E7E
:1018100000F036F800206C6070BD012070BD000043
:1018200058010020640100200C4808B5816941F08E
:1018300001018161816901F001010091C16941F0FB
:101840008051C161C06900F0805000900448416837
:1018500021F0E06141F00071416008BD00100240DC
:1018600000000140002809DB00F01F020121914027
:101870004009800000F1E020C0F80011704700002E
:10188000F0B40E4B1B680C46C3F30223C3F10705EB
:10189000042D00D90425191D072901D2002300E0D9
:1018A000DB1E012606FA05F1491E214099409E40A3
:1018B000761E16403143F0BC01F0E6BB0CED00E0B3
:1018C000064900F0070208684FF6FF03184040EA97
:1018D0000220034A10430860704700000CED00E04E
:1018E0000000FA052DE9F84305460078354CC0079D
:1018F00054D0E0690026C00008D4E06940F0805070
:10190000E061E069012600F0805000902E480168F7
:10191000C90512D40168804641F480710160FFF767
:1019200043FF074605E000BFFFF73EFFC01B6428EA
:1019300023D8D8F80000C005F6D5206A10F440700E
:1019400021D0A98801F4407181421CD0206A1F492E
:10195000012220F440700A6000220A602062C00761
:1019600011D0FFF721FF074641F2883808E000BF99
:10197000FFF71AFFC11B414502D90320BDE8F883D8
:10198000206A8007F4D5206A696820F44070084313
:1019900020621EB1E06920F08050E0612878800765
:1019A00005D56068A96820F4404008436060287845
:1019B000C00605D56068696920F48000084360604E
:1019C0000020DBE70010024000700040400442426B
:1019D0002DE9F0470F46050061D0434E306800F016
:1019E0000700B84209D2306820F007003843306061
:1019F000306800F00700B84251D128683B4C81079D
:101A000012D5400703D5606840F4E0606060287834
:101A1000000703D5606840F4605060606068A968A2
:101A200020F0F000084360602878C00728D068687C
:101A3000012810D02168022810D0890700292EDA49
:101A4000616821F0030101436160FFF7ADFE80464C
:101A500041F288390DE021688903EFE78901EDE75C
:101A6000FFF7A2FEA0EB0801494502D90320BDE81B
:101A7000F0876068696800F00C00B0EB810FEFD16F
:101A8000306800F00700B8420BD9306820F007003A
:101A900038433060306800F00700B84201D00120C0
:101AA000E5E72878400705D56068E96820F4E0603C
:101AB000084360602878000706D56068296920F42B
:101AC000605040EAC100606000F038F86168084A80
:101AD000C1F30311515CC84006490860064800681C
:101AE000FFF782FE0020C2E7002002400010024003
:101AF000344B0008640100205C01002004480549C3
:101B000000684968044AC1F30221515CC84070472B
:101B10006401002000100240444B000804480549BD
:101B200000684968044AC1F3C221515CC84070474B
:101B30006401002000100240444B000812A185B04F
:101B40000FC98DE80F0014A0144A00680490516872
:101B5000134801F00C03042B10D0082B0ED1C1F355
:101B60008343C9031DF803000AD5516804AAC1F3D1
:101B70004041515C0A4A5043B0FBF1F005B0704758
:101B800008494843FAE7000002030405060708096C
:101B90000A0B0C0D0E0F1010010200000010024085
:101BA00000127A0000093D002DE9F84F040070D0C2
:101BB0002078C04DC00749D06868C0F38100012873
:101BC00007D06868C0F38100022809D16868C003A3
:101BD00006D52868800339D560680028E7D035E04D
:101BE0006068B0F5803F0BD010B1B0F5A02F11D0D8
:101BF000286820F480302860286820F4802002E0E3
:101C0000286840F480302860606890B1FFF7CCFD10
:101C100006460AE0286840F480202860F0E700BF0C
:101C2000FFF7C2FD801B642873D828688003F7D5AE
:101C30000CE0FFF7B9FD064605E000BFFFF7B4FD75
:101C4000801B6428F0D828688003F7D420789A4E47
:101C500080074FF001094FF0000839D5686810F08F
:101C60000C0F07D06868C0F38100022809D16868AA
:101C7000C00306D42868800714D52069012808D13C
:101C800010E02069B0B1C6F80090FFF78DFD07465F
:101C900005E00AE1FFF788FDC01B0228C4D82868C8
:101CA0008007F7D52868616920F0F80040EAC10094
:101CB00028600DE0C6F80080FFF776FD074604E0D7
:101CC000FFF772FDC01B022823D828688007F7D4CD
:101CD000207800072CD57948A169D9B1C0F80090C7
:101CE000FFF762FD074604E0FFF75EFDC01B022818
:101CF0000FD8686A8007F7D571484FF4FA51006829
:101D0000B0FBF1F0009000BF0098411E0091FAD2A4
:101D10000EE080E0C0F80080FFF746FD074604E0D3
:101D2000FFF742FDC01B022875D8686A8007F7D408
:101D30002078400760D5E8690027C00008D4E8692A
:101D400040F08050E861E869012700F08050009081
:101D50005C480168C90513D40168834641F4807169
:101D60000160FFF721FD824606E000BFFFF71CFD82
:101D7000A0EB0A0064284ED8DBF80000C005F5D5BA
:101D8000E06801280AD008B1052813D0286A20F09D
:101D900001002862286A20F0040002E0286A40F06E
:101DA00001002862E06841F2883B98B1FFF7FCFC33
:101DB00082460BE0286A40F004002862EEE700BF8C
:101DC000FFF7F2FCA0EB0A0159455AD8286A8007B0
:101DD000F6D50CE0FFF7E8FC824605E0FFF7E4FCEF
:101DE000A0EB0A0159454CD8286A8007F6D41FB1E8
:101DF000E86920F08050E861E06988B36968C1F360
:101E00008101022944D00228C6F8608004D0FFF77F
:101E1000CBFC044638E034E0FFF7C6FC074604E09C
:101E2000FFF7C2FCC01B02282BD828688001F7D41A
:101E3000206AB0F5803F05D16868A16820F40030C1
:101E400008436860D4E908010843696821F4741103
:101E500008436860C6F86090FFF7A6FC044606E0F9
:101E600025E000BFFFF7A0FC001B022809D8286866
:101E70008001F7D51BE000BFFFF796FC001B02288E
:101E800002D90320BDE8F88F28688001F4D40EE061
:101E90000128F7D06868226A00F48031914204D1A9
:101EA000616A00F47010884201D00120EAE7002046
:101EB000E8E7000000100240000042428004424275
:101EC000640100200070004010B5401EB0F1807F1A
:101ED00001D3012010BD4FF0E02460610F21601795
:101EE00001F0D2F80020A06107202061002010BD81
:101EF0007047704770B590F83C20012A2CD001241F
:101F000080F83C40022280F83D2003685A689D68B2
:101F100022F070060A6832435A60104B02689A42F7
:101F20000ED00F4B9A420BD0B2F1804F08D00D4B20
:101F30009A4205D00C4B9A4202D00C4B9A4204D1E3
:101F4000496825F080031943916080F83D400021E5
:101F500080F83C10084670BD022070BD002C014086
:101F6000003401400004004000080040000C004024
:101F700010B5040003D094F83D0010B107E0012033
:101F800010BD002084F83C00204600F01FF802201D
:101F900084F83D00211D206800F06EFE012084F8C9
:101FA000460084F83E0084F83F0084F8400084F83E
:101FB000410084F8420084F8430084F8440084F827
:101FC000450084F83D00002010BD000008B5016800
:101FD0001D48B1F1804F11D01C4A91421DD1C169F9
:101FE00041F00201C161C069002200F002000090CE
:101FF00001211D20FFF744FC1D201FE0C16941F0B5
:102000000101C161C069002200F001000090114689
:102010001C20FFF735FC1C2010E00D4A914211D125
:10202000C16941F00401C161C069002200F00400EF
:10203000009001211E20FFF723FC1E20BDE8084070
:10204000FFF710BC08BD0000001002400004004073
:102050000008004090F83D10012901D00120704790
:10206000022180F83D1000680E4988420ED00E49CA
:1020700088420BD0B0F1804F08D00C49884205D07F
:102080000B49884202D00B49884204D1816801F093
:102090000701062903D0016841F001010160002019
:1020A00070470000002C0140003401400004004053
:1020B00000080040000C004090F83D10012901D0BC
:1020C00001207047022180F83D100168CA6842F083
:1020D0000102CA6000680E4988420ED00D4988424C
:1020E0000BD0B0F1804F08D00B49884205D00B4986
:1020F000884202D00A49884204D1816801F0070170
:10210000062903D0016841F00101016000207047F9
:10211000002C014000340140000400400008004051
:10212000000C004001680A6A41F211131A4207D1FB
:102130000A6A9B101A4203D10A6822F001020A605F
:10214000012180F83D10002070470168CA6822F024
:102150000102CA6001680A6A41F211131A4207D1EA
:102160000A6A9B101A4203D10A6822F001020A602F
:10217000012180F83D100020704770B5044690F8AA
:102180003C00012817D0012584F83C50022084F837
:102190003D002068826822F0770222F47F4282604C
:1021A0000868502830D00DDC20284DD005DC98B3CD
:1021B00010283BD148E0022070BD302844D0402890
:1021C00034D139E0602828D0702806D0B0F5805F7F
:1021D0002CD0B0F5005F29D10AE0CB68D1E901210C
:1021E000206800F08FFD2068816841F0770109E0E8
:1021F000CB68D1E90121206800F084FD2068816866
:1022000041F48041816011E0CA684968206800F0AB
:102210008BFD5021206807E016E0CA6849682068F5
:1022200000F093FD6021206800F076FD84F83D50B9
:10223000002084F83C0070BDCA684968206800F03E
:1022400073FD40212068EFE7226801461046EBE766
:10225000704770B50446006801694FF00005C94336
:10226000890715D4C168C943890711D4E91E0161E2
:1022700001202077206880698007204602D0FFF780
:10228000E7FF04E000F098F8204600F096F8257784
:1022900020680169C943490717D4C168C943490780
:1022A00013D46FF004010161022020772068806957
:1022B00010F4407F204602D0FFF7CAFF04E000F090
:1022C0007BF8204600F079F8257720680169C9433A
:1022D000090716D4C168C943090712D46FF0080171
:1022E0000161042020772068C0698007204602D061
:1022F000FFF7AEFF04E000F05FF8204600F05DF865
:10230000257720680169C943C90617D4C168C94344
:10231000C90613D46FF010010161082020772068EE
:10232000C06910F4407F204602D0FFF791FF04E01F
:1023300000F042F8204600F040F825772068016957
:10234000C943C90708D1C168C943C90704D1891E57
:102350000161204600F032F820680169C94309068E
:1023600009D4C168C943090605D46FF08001016131
:102370002046FFF7BDFD20680169C943490609D41D
:10238000C168C943490605D46FF040010161204688
:1023900000F02AF820680169C94389060BD4C16896
:1023A000C943890607D46FF0200101612046BDE8CA
:1023B0007040FFF79EBD70BD7047704710B5044672
:1023C0000068B0F1804F01D102F0FCF904492068A7
:1023D000884204D10348018841F40041018010BDC6
:1023E000000800400200002070477047704700005E
:1023F000F8B5026804461068D168536910F00F0FF1
:102400004FF0000553D003F0010601F490773743F5
:102410005FD0C20705D0CA0503D5226C42F0010285
:102420002264420705D5DA0703D0226C42F002028B
:102430002264820705D5DA0703D0226C42F0040239
:102440002264020707D501F02002324303D0226C38
:1024500042F008022264226C002A34D0800604D59F
:10246000880602D5204600F0A2FC20684069216C55
:10247000C0F38010090700D430B3204600F07FFC81
:102480002068416949061BD5416921F0400141613D
:10249000A06BA8B158494163A06BFEF7D9FF002893
:1024A00011D0A06B416B01B0BDE8F0400847830636
:1024B0000FD58B060DD52046BDE8F84000F077BC5F
:1024C0002046FFF793FFF8BD2046FFF78FFF2564F6
:1024D000F8BD266B2023012E52D1C60650D5CE065C
:1024E0004ED5106850680090506940062AD5A16BFF
:1024F000086840680004000CEAD0A68D8642E7D93F
:10250000E0858869202818D0D06820F48070D060D9
:102510002068416921F0010141612068416921F091
:102520004001416184F83E3025632068C16821F094
:102530001001C160A06BFEF767FFA08DE18D401A0E
:1025400081B219E0A08DE18D401A81B2E08D0028A2
:10255000BED00029BCD0D06820F49070D060206834
:10256000426922F00102426184F83E30256320680E
:10257000C26822F01002C2602046FFF736FFF8BDA5
:1025800005062BD50D0629D594F83D002128F6D156
:10259000A068B0F5805F01D12069B0B1206A411C0C
:1025A0002162216800784860E08C401E0004000C25
:1025B000E084E4D12068C16821F08001C160206816
:1025C000C16841F04001C160F8BD206A0088C0F3D5
:1025D00008005060206A801C2062E5E74006F3D5C1
:1025E0004806F1D5D168204621F04001D16084F839
:1025F0003D3000F03AF9F8BD6F2D000870B50400C9
:1026000004D094F83D00002510B106E0012070BD13
:1026100084F83C50204600F023F8242084F83D0044
:102620002068C16821F40051C160204600F01AFC06
:102630002068016921F4904101612068416921F01D
:102640002A0141612068C16841F40051C1602564DC
:10265000202084F83D0084F83E00002070BD00007A
:1026600070B586B00024009401940294039403682A
:102670002E482D4E022103220515B34226D183692F
:1026800043F480438361836903F480430493836943
:1026900043F0040383618069254E00F00400049038
:1026A0000802CDE90001039269463046FEF77AFF41
:1026B000CDE90054694630460294FEF773FF0022CC
:1026C00001212520FFF7DCF8252028E0194EB34230
:1026D00027D1C36943F48023C361C36903F4802312
:1026E0000493836943F0080383618069CDE9005155
:1026F00000F00800CDE903200F4D69462846FEF79B
:1027000051FFE814CDE90004694628460294FEF71B
:1027100049FF002201212720FFF7B2F82720FFF709
:10272000A1F806B070BD0000003801400010024062
:102730000008014000480040000C014090F83E3085
:10274000202B0ED159B152B190F83C30012B08D05A
:10275000012380F83C300023036300F0DFBB01203D
:10276000704702207047000010B500680E4988428B
:1027700015D10E494888020411D4B0F5487F0FD214
:102780000B4A00231468636220B91268136843F08F
:1027900001031360074B0A781A54401C488010BD8F
:1027A00040F40040FAE7000000480040000000202C
:1027B000BC020020040300202DE9F843044690F8F1
:1027C0003D001F4616460D4620284CD1C5B1BEB16E
:1027D00094F83C00012846D0012084F83C004FF0DA
:1027E0000008C4F84080212084F83D00FEF7DCFF9B
:1027F000A6848146E684A068B0F5805F03D004E03B
:102800000120BDE8F883206928B12E465FF000055D
:1028100084F83C800EE00026FAE78021204600F094
:1028200098FBA0B9AEB116F8010B21684860E08CA6
:10283000401EE084E08C4B464FF0000200970028D9
:10284000EBD14FF04001204600F083FB30B1032074
:10285000D7E735F8020BC0F30800E6E7202084F83C
:102860003D000020CDE70220CBE77047FEE70000E7
:10287000064B02460748196000215960D9609960EB
:1028800008211961024B0149FEF7AEBAA8010020E8
:1028900004000020040200207CB516460A460546C6
:1028A00018491046FDF7F5FC044617493046FDF778
:1028B000F0FC6FF00101FDF75CFD1449FDF71BFD15
:1028C0000D21FDF756FDFDF744FF80B21D21CDE936
:1028D0000010002201231146284602F0FFF820468E
:1028E000FDF71EFF81B2030C0520CDE90001502247
:1028F0000021284602F0F2F8BDE87C400220FEF7F5
:1029000014B9000000401C450000704200803B45A7
:102910003EB5002411480094019402940E4984604D
:10292000016001250573047505614FF46021446061
:10293000C161FEF79DF908B1FEF71AF90820CDE94B
:102940000005694602940548FEF714F9002801D0F5
:10295000FEF70EF93EBD0000002401407801002082
:102960000F4810B50D4901600421416000214FF46A
:1029700040328160C0E903121201426101760122F6
:1029800042768276C17601774177FEF70EFC002809
:1029900003D0BDE81040FEF7EBB810BD0064004066
:1029A0000402002030B585B000241C480094019436
:1029B00002940394816941F040018161816901F0D1
:1029C00040010491816941F010018161816901F048
:1029D00010010491816941F008018161816901F070
:1029E00008010491816941F00401816180690C4D05
:1029F00000F004000490012220212846FEF7CEFEBC
:102A0000202000900120CDE90104022003906946B6
:102A10002846FEF7C7FD05B030BD0000001002409B
:102A20000018014010B586B00024174800940194A6
:102A30000294039404944FF080410594016041F6A0
:102A40001F41C0E9011440F2F311C0E903148021D1
:102A50008161FFF78DFA08B1FEF78AF84FF48050D4
:102A6000009069460848FFF788FB08B1FEF780F838
:102A7000049404A904480594FFF73CFA002801D007
:102A8000FEF776F806B010BD2C02002010B586B017
:102A90000024174800940194029403940494134969
:102AA000059401604721C0E901144FF6FF71C0E9A8
:102AB00003148461FFF75CFA08B1FEF759F84FF48C
:102AC0008050009069460A48FFF757FB08B1FEF7AF
:102AD0004FF8049404A906480594FFF70BFA002860
:102AE00001D0FEF745F806B010BD0000000400401C
:102AF0007402002010B586B0002417480094019499
:102B000002940394049413490594016041F61F4113
:102B1000C0E9011440F2F311C0E903148461FFF726
:102B200027FA08B1FEF724F84FF480500090694668
:102B30000948FFF722FB08B1FEF71AF8049404A92C
:102B400005480594FFF7D6F9002801D0FEF710F8E4
:102B500006B010BD00080040BC0200200C4810B5B3
:102B60000A4901604FF4E1314160002181600C228B
:102B7000C160C0E904128161C161FFF73FFD002817
:102B800003D0BDE81040FDF7F3BF10BD0038014091
:102B9000640C00200C4810B50A4901604FF4E13183
:102BA0004160002181600C22C160C0E90412816192
:102BB000C161FFF723FD002803D0BDE81040FDF7F9
:102BC000D7BF10BD00480040A80C0020FEE7FEE77C
:102BD00070477047FEF7EEBD30B595B028216846C6
:102BE000FDF7DBFA14210AA8FDF7D7FA18210FA880
:102BF000FDF7D3FA01210804CDE900100025029564
:102C000002240491CDE907404FF4E0100990684692
:102C1000FEF7CAFF08B172B6FEE70AA90F2081E8E5
:102C200031004FF48060CDE90D0502210AA8FEF7BE
:102C3000CFFE08B172B6FEE74FF4004011900F943A
:102C40000FA8FEF74FFE002801D072B6FEE715B0C0
:102C500030BD70470148FFF7FCBA00002C0200208D
:102C60000148FFF7F6BA0000740200200148FFF7A0
:102C7000F0BA0000BC020020F0B502681C4B1D4DEC
:102C80001D4E1E4F1E4C4FF0804C984209D0A04262
:102C900007D0604505D0A84203D0B04201D0B84269
:102CA00004D122F0700E4A6842EA0E02984209D01E
:102CB000A04207D0604505D0A84203D0B04201D061
:102CC000B84203D122F44075CA682A434D6922F004
:102CD00080022A4302608A68C2620A68826298425D
:102CE00001D0A04201D10969016301214161F0BD18
:102CF000002C01400004004000080040000C00408F
:102D00000034014010B5846842EA032224F47F4471
:102D10000A432243826010BD826822F070020A4397
:102D200042F007018160704710B5036A046A24F01D
:102D300001040462846924F0F00444EA021423F0DC
:102D40000A020A438461026210BD10B5036A23F0CF
:102D5000100303628369046A23F4704343EA023276
:102D600024F0A00343EA01118261016210BD10B595
:102D7000406A0021C185C184FFF738FB10BD01689E
:102D8000CA6822F49072CA6001684A6922F001029E
:102D90004A61016B012904D10168CA6822F010025E
:102DA000CA60202180F83E1000210163704708B5F9
:102DB00090F83E10222901D0022008BD82684FF40D
:102DC00080539A4201D1016921B1816A9A421BD094
:102DD0004AB10AE00268816A5268C2F308020A80B6
:102DE000816A891C08E0026972B10268526802F0C7
:102DF0007F020A70816A491C8162C18D491E0904E3
:102E0000090CC18503D019E002685268F1E7016836
:102E1000CA6822F02002CA600168CA6822F480727F
:102E2000CA6001684A6922F001024A61202180F8E3
:102E30003E10016B012903D0FFF796FC002008BD6E
:102E4000002101630168CA6822F01002CA600168AB
:102E50000A68D20602D50A6849680091818DFFF799
:102E6000C4FAEBE770B5044600680169E26821F432
:102E70004051114301612169A06808436169084319
:102E80002168CA6841F20C639A430243CA60206811
:102E90004169A26921F44071114341611E492068D2
:102EA000884202D1FEF73AFE01E0FEF727FE00EB72
:102EB000C00101EB0012606864218000B2FBF0F3F6
:102EC000B3FBF1F36FF018067343B2FBF0F5B2FBFE
:102ED000F0F605EB8305322303EB0515B5FBF1F5A1
:102EE000B6FBF1F605F0F00505EB0615B2FBF0F6C2
:102EF000B2FBF0F0B0FBF1F06FF01802504306EBBC
:102F0000800003EB0010B0FBF1F0216800F00F002F
:102F10002844886070BD00000038014081628285CD
:102F2000C28500210164222280F83E2080F83C10F6
:102F30000168CA6842F48072CA6001684A6942F056
:102F400001024A610068C16841F02001C1600020AF
:102F500070472DE9F041984617460E460446069DF7
:102F60001DE0681C1BD02DB1FEF71EFCA0EB080075
:102F7000A84214D92068C16821F4D071C1602068CA
:102F8000416921F001014161202084F83D0084F86D
:102F90003E00002084F83C000320BDE8F08120685A
:102FA000006836EA000004D00020B842D9D00020E2
:102FB000F3E70120F9E700000148FFF719BA000024
:102FC000640C002010B50548FFF712FABDE8104068
:102FD000012203490148FFF7B1BB0000A80C002003
:102FE000000000200148FDF7E2BF000004020020BD
:102FF000FEE700000FB4054B10B503A9044A029880
:1030000000F04AFC10BC5DF814FB0000814600088B
:10301000680100200FB4084B10B504A902AA039858
:1030200000F03AFC044602A9002000F0B8FF204658
:1030300010BC5DF814FB00009F3F000837B5144634
:103040000846064B6A46214600F026FC04466946BF
:10305000002000F0A4FF20463EBD00009F3F000876
:10306000490050EAC12018BF04204A0D18BF40F0A3
:10307000010040F2FF72B2EB515F08BF40F0020066
:10308000012808BF052070470907090E002804DB46
:1030900000F1E02080F80014704700F00F0000F10C
:1030A000E02080F8141D70472DE9F74F144694B0C6
:1030B0000021C4E902111599079121F00045C94981
:1030C0008D4206DC1599C4E9000117B00020BDE867
:1030D000F08FC549DFF814A3A9423CDD0799C44E1F
:1030E0000029C44FC44A1599534619DDFDF7EEF97E
:1030F000554506D0C14AC24BFDF7E8F9C4E90001C5
:103100000AE04FF0D352BE4BFDF7E0F932463B46A2
:10311000FDF7DCF9C4E9000117B00120BDE8F08F2C
:10312000FDF733F9554506D0B44AB54BFDF72DF9F7
:10313000C4E900010AE04FF0D352B14BFDF725F985
:1031400032463B46FDF721F9C4E9000117B04FF0C4
:10315000FF30BDE8F08FAB49A942159978DB21F02B
:10316000004183468846A84AA84BFDF7B5F90022DE
:10317000A74BFDF70AF9FDF700FB0990FDF7B2FA3E
:1031800006460F469C4A5346FDF7A6F943465A4663
:10319000FDF79FF980468A46984A994B3046394652
:1031A000FDF79AF92A0D01250B9242465346FDF789
:1031B00090F9032DC4E9000139D00B98C1F30A51ED
:1031C000401A05EB45111139814230DA9148C34666
:1031D000784400EB0510CDF80CA00C90D0E900234A
:1031E00030463946FDF778F902460B4604910690C1
:1031F00058460399FDF76AF980468A4602460B460F
:1032000058460399FDF762F9049B069AFDF75EF9AB
:1032100083460C9803913946D0E902233046FDF7E6
:103220005BF95A46039BFDF751F96D1CBDE7079802
:103230000028A2BF099817B0BDE8F08F616881F03F
:1032400000416160099817B04042BDE8F08FFFE788
:1032500084461598C1F31301C0F30A50A0F2F5306B
:103260004FEA601800F01F06C6F1200013900020FE
:103270000690079041F4801E05206D4676B1664A9F
:1032800008EB00017A4452F8213002EB8101B3408F
:103290004A68139922FA01F1194305E05F4908EBE6
:1032A0000002794451F82210A1FB0E27A1FB0C1358
:1032B0001A449A4234BF0123002303EB070A05EBAB
:1032C0008003D3E901B70F448F4234BF01210021AD
:1032D00093448B4411B1934502D903E0934501D245
:1032E000012100E00021C3E901B7514445F8201055
:1032F000011EA0F10100C1DC0298059F00F1005001
:10330000800F12900298DDE903568000FDF7EAF97C
:10331000834628460D91FDF7F6F96FF01D02FDF783
:10332000BCF9CDE90E013046FDF7EDF96FF03D0235
:10333000FDF7B3F980468A463846FDF7E4F96FF0A9
:103340005D02FDF7AAF90746424653461191FDF783
:103350001CF8DDE90E23FDF718F85A460D9BFDF722
:1033600014F800250E465A4628460D9BFDF7AEF888
:10337000DDE90E23FDF7AAF842465346FDF7A6F80D
:103380003A46119BFDF7A5F8DFF898A0244A53466A
:10339000FDF7A2F807468846234A244B31462846C3
:1033A000FDF79AF83A464346FCF7EFFF0746884692
:1033B0004FF0A842534631462846FDF78DF83A466D
:1033C0004346FCF7E2FF159A12F0004F04D0129A20
:1033D00081F0004152421292C4E90001129817B0E4
:1033E000BDE8F08FFB21E93F7CD90240FB21F93F8A
:1033F0007370032E8A19A33B000040543163621A94
:1034000061B4D03DFB21394183C8C96D305FE43FD1
:103410000000E03FAC190000281900000A19000064
:10342000182D4454FB21F93D3326A611460B113CBF
:103430002DE9FF4D21F0004807460C46B8F1795FB1
:1034400008DAFDF79AF9002801BF0020324904B0DC
:10345000BDE8F08D3A46234610461946FDF73CF884
:10346000054602462D480E460B460621784400F0DC
:103470005DF82A463346FDF72FF8DDE90223824640
:103480008B4638462146FDF727F804460F4652463C
:103490005B4628463146FDF71FF822463B46FDF7BE
:1034A00015F807468A464FF0FF3228463146FDF7A9
:1034B000F4F81B4A90450ADA3A465346FDF706F8F7
:1034C00004B00022BDE8F04D134BFDF702B8154AD9
:1034D0004245A8BFA8F500154FF00004B8BF124D33
:1034E00022462B46FCF7F2FF0646884622462B462C
:1034F00000200949FCF7EAFF04460D463A465346C8
:1035000030464146FCF7E2FF04B022462B46BDE8B8
:10351000F04DFCF7DEBF00000000F03FE0160000B9
:103520003333D33F0000E93F0000D23F2DE9F041A3
:103530004F1E00EBC7010446D1E9000115461E46A7
:1035400037F006020DD02A463346FCF7C5FF7F1E32
:1035500004EBC703D3E90023FCF717FF37F006029B
:10356000F1D1022F25D0042F13D0062F18BFBDE8AC
:10357000F0812A463346FCF7AFFFD4E90A23FCF773
:1035800004FF2A463346FCF7A7FFD4E90823FCF7DB
:10359000FCFE2A463346FCF79FFFD4E90623FCF7DE
:1035A000F4FE2A463346FCF797FFD4E90423FCF7E0
:1035B000ECFE2A463346FCF78FFFD4E90223FCF7E2
:1035C000E4FE2A463346FCF787FFD4E90023BDE832
:1035D000F041FCF7DABE00002DE9FF4D054621F071
:1035E000004084B00C46B0F1795F0BDA2846FFF753
:1035F00037FD042808BF00F06FF8284608B02146C0
:10360000BDE8F08D2A460B461046FCF765FF0646DE
:103610000F462A462346FCF75FFF804626488A4627
:1036200032463B4605217844FFF780FF83461098D9
:10363000029160B3214A224B40465146FCF74CFFB1
:10364000CDE900015A4640465146029BFCF744FF33
:1036500082468846DDE906014FF0FF32FDF71DF88E
:1036600052464346FCF732FF32463B46FCF734FFF6
:10367000DDE90623FCF72AFFDDE90023FCF726FF3E
:1036800008B02A462346BDE8F04DFCF722BF0B46A2
:103690005A4630463946FCF71FFF084A084BFCF7EC
:1036A00074FE42465346FCF717FF08B02A462346ED
:1036B000BDE8F04DFCF769BE1E1600004955555592
:1036C0005555C5BF0122FCF7E8BF0022134610463E
:1036D0001146FCF773BF0000024A00201107FCF7F7
:1036E000DCBF000001FDFFFF02E008C8121F08C197
:1036F000002AFAD170477047002001E001C1121F73
:10370000002AFBD1704700000149086070470000A3
:10371000740100202DE9FF5F82B00021DDE9043053
:10372000020DDDF840B0034318D044F61050A2F269
:10373000FF3242431514119801281FD0A5EB0B004E
:10374000401C5FEA000A4FF000064E4FDFF8389148
:10375000B046504615D5CAF1000413E01198012473
:103760004AA3012801D16FEA0B010298119AC0E91E
:103770000031C0E9024206B0BDE8F09FCBF1000085
:10378000DFE704460021404A491842EB0450CDE9E6
:10379000001012E0E00707D032463B46404649465B
:1037A000FCF79AFE8046894632463B46104619464B
:1037B000FCF792FE06460F466410002CEAD1DDE9C4
:1037C0000401DDE90023BAF1000F06DAFCF784FEFC
:1037D00042464B46FCF780FE05E0FCF7EFFE424612
:1037E0004B46FCF7EBFE04460E460022284BFDF745
:1037F00027F903D84FF0FF30014607E00022254BA0
:1038000020463146FCF7C1FDFDF701F9102409E01F
:10381000002C0ADB0A220023FDF713F8039B303249
:103820001A55641E50EA0102F2D1641C039AC4F1D5
:1038300011031444119A012A03D0012208430DD127
:103840000AE0084304D000204FF0110B119072E7FA
:10385000A3EB0B056D1E0DE05B4504DD4FF0000290
:1038600005F1010504E003DA4FF00002A5F10105BE
:10387000002AECD002981199C0E90231C0E9004554
:1038800079E70000000014400000F03F3000000025
:103890000000F0430000E03F2DE9FF4F95B09A464D
:1038A000884606460025EEE1252877D100242746E4
:1038B000F94A0121039400E0044316F8013F203B3C
:1038C00001FA03F01042F7D130782A2811D06FF0B6
:1038D0002F033078A0F13002092A16D8039A44F059
:1038E000020402EB820203EB42021044761C0390B6
:1038F000EFE758F8042B0392002A03DA504244F40D
:103900000054039044F00204761C30782E2816D11F
:1039100016F8010F44F004042A280DD06FF02F028E
:103920003078A0F13003092B09D807EB870302EBAD
:103930004303C718761CF3E758F8047B761C3078ED
:103940006C280FD006DC4C2817D068280DD06A28C8
:1039500014D104E0742810D07A280FD10DE044F47B
:1039600000140AE044F4801401E044F44014727836
:10397000824202D104F58014761C761C30786628C9
:103980000BD013DC582877D009DC002875D04528E7
:10399000F6D04628F4D047281AD193E118E06328DE
:1039A00035D0642879D0652812D18BE1702873D086
:1039B00008DC6728F1D069286FD06E280DD06F28F9
:1039C00006D1ACE073282CD0752874D0782853D059
:1039D0005246179990476D1C54E1C4F302500228D7
:1039E00009D003280DD0D8F8001004280DD00D60A0
:1039F00008F1040846E1D8F80010EA17C1E90052BE
:103A0000F6E7D8F800100D80F2E70D70F0E718F82F
:103A1000041B8DF8001000208DF80100EB460120FA
:103A200003E058F804BB4FF0FF3061074FF000018E
:103A300002D40DE009F101018946B9420FDA81454E
:103A4000F8DB1BF809100029F4D108E009F10101A5
:103A500089468142FADB1BF809100029F6D1039848
:103A60005346A0EB090721463846179A00F080FA22
:103A7000284400EB090507E044E008E10DE01BF8ED
:103A8000010B524617999047B9F10109F7D25346F5
:103A900021463846179AF2E039E00A21C4F302526F
:103AA0004FF0000B0091022A06D058F8040BC11702
:103AB000032A09D00AE023E008F1070020F00702FA
:103AC000F2E80201904605E000B2C117042A01D1D4
:103AD00040B2C117002906DA0A460021404261EBD4
:103AE00002012D2202E0220504D52B228DF80420AC
:103AF000012203E0E20701D02022F7E7914657E0D8
:103B00000A2100E010214FF0000B00910BE0102182
:103B10004FF0000B44F004040827009103E0082054
:103B20004FF0000B0090C4F30252022A05D058F85F
:103B3000040B0021032A08D008E008F1070020F058
:103B40000702F2E80201904603E080B2042A00D1A5
:103B5000C0B24FF0000922072AD53278702A07D068
:103B6000DDF800C08CF0100C5CEA0B0C05D00EE008
:103B700040228DF80420012208E050EA010306D01B
:103B800030238DF804308DF8052002229146009BE9
:103B900083F0080353EA0B030AD150EA010201D172
:103BA000620705D530228DF804204FF001097F1EF1
:103BB0003278582A04D039A20C920CAA02920BE057
:103BC0003BA2F9E75B46009AFCF73BFE0C9B9B5C33
:103BD000029A521E0292137050EA0102F2D1029828
:103BE00004A9081A00F1200B600702D524F48034E0
:103BF00000E001275F4502DDA7EB0B0000E000209D
:103C000000EB0B01009003984944401A0390E00335
:103C100006D453462146179A039800F0A9F90544A3
:103C2000002706E001A85246C05D179990476D1C19
:103C30007F1C4F45F6DBE0030CD553462146179A0F
:103C4000039800F095F9054404E030205246179996
:103C500090476D1C0099481E00900029F5DC08E093
:103C60000298029952460078491C02911799904790
:103C70006D1CBBF10001ABF1010BF1DC5BE100F06D
:103C800065F90544761C307800287FF40DAE19B034
:103C90002846BDE8F08F000009280100303132339A
:103CA0003435363738396162636465660000000078
:103CB0003031323334353637383941424344454662
:103CC00000000000600700D4062708F1070020F07C
:103CD0000700F0E80223804603F0004C5FEA0C0086
:103CE00001D097A009E0200501D596A005E0E007E6
:103CF00001D095A001E0AFF24C001390307823F092
:103D0000004365280CD006DC452809D046281DD084
:103D100047287FD13BE0662818D067287AD136E063
:103D20000021112F01DB112000E0781CCDE90001FA
:103D300004A90CA8FFF7EEFCDDE90D010C9A4FF089
:103D4000000B07F10109109200914EE04FF0004086
:103D50000097CDE9011004A90CA8FFF7DBFCDDE911
:103D60000D020C9B0F994FF0000B9146109300929F
:103D700011B9791C00EB0109B7EB090003D4C0F1BC
:103D8000FF3B07F10109A9EB0700019042E0012F79
:103D900000DA01270021112F01DD112000E0384653
:103DA000CDE9000104A90CA8FFF7B4FCDDE90D0181
:103DB0000C9A00914FF0000BB946109221070FD4D6
:103DC000009A4A4503DA914601E0A9F10109B9F1E7
:103DD000010F05DD109AA9F10101515C3029F4D0E1
:103DE000B84202DA10F1040F03DA0121CDE9011023
:103DF00010E0002803DC8344A9EB000102E0411C31
:103E0000494500DD8946A0EB0B00401C01904FF0B6
:103E100000400290200705D40198484502DB4FF08E
:103E2000FF30019000208DF84B0002980DF14B07F8
:103E3000B0F1004F25D002200C902B200D9002985D
:103E400000280CDA404202902D200D9007E00A2154
:103E50000298FCF7E0FC3031029007F8011D0C9944
:103E6000481E0C900029F2DC02980028EFD1791E40
:103E70000D980870307800F0200040F0450007F8F9
:103E8000020D11A8C01BC01D02901398007800B14C
:103E9000012000EB0901019801EBE0710298014457
:103EA0000398401A401E0390E00306D4534621466F
:103EB000179A039800F05CF805441398007818B13D
:103EC0005246179990476D1CE00323D5534621466F
:103ED000179A039800F04CF805441BE0BBF1000F63
:103EE00007DB0098584504DD1098179910F80B006F
:103EF00001E0179930205246904701980BF1010BD1
:103F0000401E05F10105019004D12E20524617995B
:103F100090476D1CB9F10001A9F10109DEDC05E053
:103F200017F8010B5246179990476D1C0299481ECD
:103F300002900029F4DC53462146179A03989EE626
:103F40002D0000002B000000200000002DE9F041B2
:103F5000044600251E461746880404D405E0394669
:103F60002020B0476D1C641EF9D52846BDE8F081BD
:103F70002DE9F041044600251E469046C80301D5B0
:103F8000302700E02027880404D505E04146384664
:103F9000B0476D1C641EF9D52846BDE8F0810A685B
:103FA000531C0B60107070472DE9FF47804639A005
:103FB0009146D0E90020CDE90020A8F10202374F58
:103FC000374E384D052A45D2DFE802F02F1B2F1B54
:103FD00003000846FCF7F0FB0022334BFCF77CFAA9
:103FE000FCF7CBFB04464846FCF7B3FB80B2FCF77A
:103FF0008AFB00222D4B2AE0FCF7BFFBADF80C003A
:104000002BE00846FCF7D8FB00223B46FCF764FA9D
:10401000FCF7B3FB04464846FCF79BFB80B2FCF779
:1040200072FB0322FCF739FBE6E70846FCF7C4FB0A
:1040300000223346FCF750FAFCF79FFB0446484643
:10404000FCF787FB80B2FCF75EFB00222B46FCF7F7
:1040500043FAD1E716A0FEF7CDFF9DF80C008DF8CE
:1040600002009DF80D008DF803008DF80440200A31
:104070008DF80500200C8DF80600200E8DF8070045
:104080004146684600F01AF80220FCF74EFDBDE8F4
:10409000FF870000A400000000000000000089402D
:1040A0000020AC400000424000408F40000024400F
:1040B0006964206572726F720A000000074B01F597
:1040C000A0710246196000215960D96099600821E9
:1040D0001961034B01490348FCF786BEA801002083
:1040E000380100200402002000B5244B21F00042DA
:1040F00087B09A42DCBF0022134629DD204B9A424A
:1041000008D140B94FF00100FFF7FEFAFFF7DDFAE2
:1041100007B000BD03DBFFF7D5FA07B000BD02AA68
:10412000FEF7C2FF10F0030104BF0DF1080C9CE87C
:104130000F000DD0012001290ED0022914D00DF15D
:10414000080C00909CE80F00FFF746FA07B000BD8E
:10415000FFF76EF907B000BD0DF1080C00909CE868
:104160000F00FFF739FA05E00DF1080C9CE80F008D
:10417000FFF75EF907B081F0004100BDFB21E93F88
:104180000000F07F70B50A24322000F0E5FA064600
:104190000DA311A212A1FEF73DFF4FF4967504E0A6
:1041A00014A000F05BFC641EE4B22A4618A130465D
:1041B00000F092F92042F3D1304600F06DFA0CB1D4
:1041C000002070BD012070BD70617373776F7264E1
:1041D00036363636000000004A4A43574946490001
:1041E00041542B43574A41503D222573222C22250E
:1041F00073220000C1B4BDD34150CAA7B0DCA3AC48
:10420000B3A2CAD4D6D8D0C2C1ACBDD30D0A000067
:104210005749464920474F542049500070B50A2459
:10422000322000F099FA06460DA30FA211A1FEF765
:10423000F1FE4FF4967504E015A000F00FFC641E2B
:10424000E4B22A461AA1304600F046F92042F3D1E2
:10425000304600F021FA0CB1002070BD012070BD85
:1042600038303836000000003139322E3136382EE1
:10427000342E310041542B43495053544152543D44
:1042800022544350222C222573222C257300000037
:10429000C1B4BDD3B7FECEF1C6F7CAA7B0DCA3AC9C
:1042A000B3A2CAD4D6D8D0C2C1ACBDD30D0A0000C7
:1042B000434F4E4E4543540070B50B4C054600200D
:1042C000218809040FD5094909A000F0C7FB2188FE
:1042D000064AC1F30E01002050542946BDE8704043
:1042E0001046FBF765BF70BD0200002004030020EC
:1042F00025730D0A0000000010B529A000F0AEFBE8
:104300006420FDF73DF932222CA12DA000F0E4F845
:104310002CA000F0A3FB642228A12FA000F0DCF861
:1043200020B130A000F09AFB012010BD34A000F0B5
:1043300095FB38A000F092FB322220A138A000F0BB
:10434000CBF820B138A000F089FB022010BD3CA0C2
:1043500000F084FB4FF47A60FCF7E7FB3EA000F02E
:104360007DFBFFF70FFF20B13FA000F077FB03209C
:1043700010BD44A000F072FB4FF4FA60FCF7D5FBCF
:1043800044A000F06BFBFFF749FF20B146A000F00E
:1043900065FB042010BD4BA000F060FB002010BDA9
:1043A000D7BCB1B8C5E4D6C365737038323636BFF2
:1043B000CDBBA7B6CBC4A3BFE90D0A004F4B00008D
:1043C00041540000D7BCB1B8C9E8D6C3535441C466
:1043D000A3CABD0D0A00000041542B43574D4F4462
:1043E000453D3100C9E8D6C3535441C4A3CABDCA30
:1043F000A7B0DCD7BCB1B8D6D8C6F40D0A0000000F
:10440000C9E8D6C3535441C4A3CABDB3C9B9A60DA4
:104410000A000000D7BCB1B8D6D8C6F40D0A000017
:1044200041542B5253540000D6D8C6F4CAA7B0DC6E
:10443000A3ACD7BCB1B8D6D8C6F40D0A00000000B2
:10444000D6D8C6F4B3C9B9A6A3ACB5C8B4FDCBC41D
:10445000C3EB0D0A00000000D7BCB1B8C1B4BDD396
:10446000574946490D0A0000C1ACBDD357494649DA
:10447000CAA7B0DCA3ACB5C8B4FDD6D8C6F40D0A43
:1044800000000000C1ACBDD357494649B3C9B9A625
:104490000D0A0000D7BCB1B8C1B4BDD3B7FECEF190
:1044A000C6F70D0A00000000C1ACBDD3B7FECEF1C7
:1044B000C6F7CAA7B0DCA3ACB5C8B4FDD6D8C6F45D
:1044C0000D0A0000C1ACBDD3B7FECEF1C6F7B3C92B
:1044D000B9A60D0A000000002DE9F047154D002691
:1044E00089468046144637462E804FF4487112485C
:1044F000FBF753FE414611A000F0D0FA8CB915E04D
:104500000A20FCF712FB288800040AD54846FFF76A
:10451000D3FE28B149460BA000F0A0FA2CB105E06B
:104520002F80641E2404240CEAD101263046BDE805
:10453000F0870000020000200403002025730D0A0C
:104540000000000061636B3A25730D0A0000000053
:104550002DE9F14F464D84B0287840064FEA1068A7
:10456000E868FCF729F90122FCF797F8414A424B29
:10457000FBF7B2FFFCF733F90124286170E000BFBC
:1045800008F10101621E5143CFB2394907EB08021D
:10459000143101EB820101254A68384941F8242091
:1045A00059E02846FCF790F800903169FBF771FE5E
:1045B0000499FBF76EFEFCF7FFF8FFF795FD8146C7
:1045C0008A4600983169FBF764FE8346284A07EB68
:1045D000450014320290594652F82000FBF78BFE3A
:1045E000FCF7EAF84A465346FBF776FF81468A46CF
:1045F00058460499FBF74DFEFCF7DEF800F0DEF9B3
:104600008346019100983169FBF743FE0146184A41
:104610000298143202EB800050F8040CFBF76BFE9A
:10462000FCF7CAF85A46019BFBF756FF4A46534629
:10463000FBF74CFFDFF844A0064689465AF82400F1
:10464000FCF7BAF832464B46FBF79FFEFCF7C7F87B
:104650004AF824006D1C064E30788542A1DD641CAA
:10466000034841788C428BDD05B0BDE8F08F000037
:10467000180000206F1283C0CA210940EC0C0020F2
:1046800013B54FF6FF73012269460248FEF794F80E
:1046900000981CBD640C002010B5002821D0114BDF
:1046A0000022001F196803E0814203D80A464968C6
:1046B0000029F9D152B11368841A9C4204D10068D0
:1046C00018441060104602E0506000E0186039B1F4
:1046D00002680B1A934203D10B681A4402604968BE
:1046E000416010BD6C010020FDF76CF8FEF774FA14
:1046F000FEF758F9FEF734F9FEF730FAFEF708F93D
:10470000FEF790F9FEF7C2F9FEF744FAFEF7F2F968
:10471000012207490748FEF711F80748FDF7CCFCCE
:10472000FFF7EAFD10B105A0FEF764FCFEE700000C
:1047300000000020A80C0020BC0200205749464978
:10474000C4A3BFE9BFCDBBA7B6CBC5E4D6C3CAA738
:10475000B0DCA3A10D0A0000F0B50B30154D20F020
:1047600007010024144A0FE003688B420BD38B42ED
:1047700005D95E1A43184768C3E9006700E043683B
:10478000136002C004E0021D10680028ECD120462E
:10479000002802D1286808B10020F0BD064A074869
:1047A0001060074A121A22F00702C0E90024012013
:1047B0002860D7E7700100206C0100202C0D00203C
:1047C000280F00202DE9F84F734E7068FBF785FF26
:1047D000B168FBF75EFDFFF7BBFE714CDFF8BCB1C3
:1047E0004FF07E5804F11C054FF06639DFF8B4A194
:1047F0003AE0012F38D0042F51D0052F78D0062F62
:1048000075D054F82700FBF7D7FF674A674BFBF7D3
:10481000D5FE0022664BFBF75FFEFBF7E0FF44F896
:104820002700009055F82710FBF72DFDB168FBF726
:1048300062FD20F00042424500DA4246F8B200999B
:10484000FFF7B2FB54F8270045F827007F1C062F1E
:10485000CFDD7068401C7060B0F5C87F7DD9BDE8C1
:10486000F84F5448FDF771BC6068FBF7A5FF4A4656
:104870005346FBF72BFEFBF7B2FF60600746696803
:10488000FBF701FDB168FBF736FD20F00042012087
:104890003946FEF701F8606802276860A9E72069D9
:1048A000FBF78AFF404A414BFBF788FE0022404B52
:1048B000FBF712FE00225B46FBF767FDFBF78FFF5D
:1048C000206107462969FBF7DEFCB168FBF713FDA1
:1048D00020F00042424500DA424687F000410420C1
:1048E000FFF762FB20690527286182E700E023E0EB
:1048F0006069FBF761FF2C4A2C4BFBF75FFE00223F
:104900002B4BFBF7E9FD00225B46FBF7DFFDFBF7D6
:1049100066FF606107466969FBF7B5FCB168FBF7A4
:10492000EAFC20F00042424500DA424605203946C2
:10493000FFF73AFB61696961A969A0698946074681
:10494000FBF7A1FC1C4920F00040884281DB38467F
:10495000FBF732FF144A154B00E01BE0FBF72EFE7D
:104960000022134BFBF7B8FDFBF739FF074649461A
:10497000A061FBF788FCB168FBF7BDFC20F00042AA
:10498000424500DA424606203946FFF70DFBA06992
:10499000A8615EE7BDE8F88F18000020008056404F
:1049A000EC0C002066D657406F1283C0CA21094024
:1049B000008066402C020020CDCC4C3D00B5254B3C
:1049C00021F0004287B09A4203DC00221346009295
:1049D0002BE0214B9A4208D140B94FF00100FEF77D
:1049E00093FEFEF772FE07B000BD03DBFEF76AFE22
:1049F00007B000BD02AAFEF757FB10F003014FF00D
:104A000001000DD0012914D002291AD00DF1080C93
:104A10009CE80F00FEF70CFD07B081F0004100BDDF
:104A20000DF1080C00909CE80F00FEF7D5FD07B0D3
:104A300000BD0DF1080C9CE80F00FEF7F9FC07B073
:104A400000BD0DF1080C00909CE80F00FEF7C4FDBE
:104A5000E2E70000FB21E93F0000F07F0FB40D48C2
:104A600070B505AA0499FEF7E9FA0A48FBF7B2FB0C
:104A7000C1B2094A0020074B141D06E015686D06F7
:104A8000FCD51D5C2560401CC0B28842F6D370BCCA
:104A90005DF814FB44090020003801400FB40D48B4
:104AA00070B505AA0499FEF7C9FA0A48FBF792FB0C
:104AB000C1B2094A0020074B141D06E015686D06B7
:104AC000FCD51D5C2560401CC0B28842F6D370BC8A
:104AD0005DF814FB24060020004800403FB513A5F4
:104AE00083B0D5E900450A9BCDE900458DF800105B
:104AF0008DF805309DF818108DF804108DF80220FF
:104B00009DF819108DF803109DF82C108DF80710E2
:104B10009DF82D108DF8061001466846FDF7A8FE99
:104B20000220FCF702F807B030BD0000001A0000B8
:104B3000000000000000000000000000010203046B
:104B4000060708090000000001020304000000003D
:104B50004C5555555555A53F7751C1166CC156BF9B
:104B60009015CB19A001FA3EAD529C804F7E92BEAB
:104B7000C4B1B4BD9EEE213ED43888BEE9FAA8BDCA
:104B800000004054FB21F93F3163621A61B4D03D0B
:104B90000000601A61B4D03D7370032E8A19A33BE4
:104BA0000000002E8A19A33BC14920259A837B3936
:104BB00000000000000000006E83F9A22915444E99
:104BC000D15727FCC0DD34F5999562DB4190433C19
:104BD000AB6351FE61C5BBDE3A6E24B7E0D24D42F5
:104BE000EA2E49061C92D1091CEB1DFE3EA729B1F5
:104BF000F53582E88444BB2E26709CE9417E5FB483
:104C000039D69139F43953838B5F849C3B28F9BDA5
:104C1000FF97F81F0F9805DE8B112FEF1F6D0A5AB3
:104C2000CF7E366DB709CB27663F464F2DEA5F9E94
:104C3000C7BA27757BF1E5EBF739073DEA92528A4F
:104C4000B15FFB6B085D8D1FA6F810111111813F3C
:104C5000D561C119A0012ABF7DFEB157E31DC73E32
:104C6000EB9C2B8AE6E55ABE7CD5CF5A3AD9E53D76
:104C7000904C00080000002078010000940A000811
:104C8000B44D000878010020B0110000F83600088B
:104C9000011973050699CDCC4C3DCDCC4C3D297501
:104CA000AB073EE9B7573F10FF1D1EBF151D21BFC3
:104CB0009B55973FC807053F70CE80BFB8013FBEE8
:104CC0005B429E3EBA81A2BD19C4C24292E825BE93
:104CD0006F11183D289B123E52F41BBC962605BE50
:104CE00056B7FABDD5CFDB3DC7BA383DFE282A3DC1
:104CF00096400A3D7FF8F93C27A5803D137E09BE0A
:104D0000E3A9473D1E89973C8A20CEBC1688BE3D4C
:104D1000D218AD3E4DDAB4BD7155D9BE3C6A0C3DDA
:104D20006C04B2BE47AC453D6C96CBBB2E8D5F3D4F
:104D3000EC51883E9127293EDF32E7BD2D6002BE4F
:104D4000AA0F243D481610BE25798EBDA245A6BFE8
:104D5000EF72313EF7E9383D4AB50FBEF98642BCE5
:104D6000E5B3BC3EA6F2F6BD09A7853C2861A63E88
:104D7000D0EDD5BE6F8144BEF31FDA3F8A023DBE3F
:104D80003717BF3D9BC957BE9D9F22BDD28C65BEC4
:104D9000327296BD1170383F92050C3E9ACECEBD50
:104DA0007D778BBD55A46202213E42019210031211
:044DB00024F40000E7
:0400000508000131BD
:00000001FF
