:020000040800F2
:100000002005002045010008A9210008552000080E
:10001000A5210008910200089922000800000000B4
:10002000000000000000000000000000B1210008F6
:10003000F502000800000000AD210008B52100080D
:100040005F0100085F0100085F0100085F01000810
:100050005F0100085F0100085F0100085F01000800
:100060005F0100085F0100085F0100085F010008F0
:100070005F0100085F0100085F0100085F010008E0
:100080005F0100085F0100085F0100085F010008D0
:100090008D2200085F0100085F0100085F01000871
:1000A0005F0100085F0100085F0100085F010008B0
:1000B0005F0100085F0100085F0100085F010008A0
:1000C0005F0100085F0100085F0100085F01000890
:1000D0005F010008812200085F0100085F0100083D
:1000E0005F0100085F0100085F0100085F01000870
:1000F0005F0100085F0100085F0100085F01000860
:100100005F0100085F0100085F0100085F0100084F
:100110005F0100085F0100085F0100085F0100083F
:100120005F0100085F0100085F0100085F0100082F
:10013000DFF80CD000F09AF8004800479D23000833
:10014000200500200648804706480047FEE7FEE7F6
:10015000FEE7FEE7FEE7FEE7FEE7FEE7FEE7FEE777
:10016000B92100083101000880EA010210B502F04F
:100170000043400022D04A001FD0010E01EB126163
:10018000C0F35600C2F3560240F4000042F40002ED
:10019000A0FB022000047F39140400D0401C50EA68
:1001A000124001D44000491EC2B20C0604EBD0102C
:1001B000401C4008802A02D003E0002010BD20F03F
:1001C0000100002900DA0020184310BD2DE9F05F7E
:1001D0000546002092469B468846064681464024B6
:1001E0001BE0284641464746224600F02FF853467A
:1001F0005A46C01A914110D311461846224600F0C3
:1002000016F82D1A67EB01084F46224601200021FF
:1002100000F00DF817EB00094E41201EA4F1010477
:10022000DFDC484631462A464346BDE8F09F202A97
:1002300004DB203A00FA02F1002070479140C2F13D
:10024000200320FA03F3194390407047202A04DB6F
:10025000203A21FA02F00021704721FA02F3D0403F
:10026000C2F120029140084319467047064C074DE1
:1002700006E0E06840F0010394E807009847103476
:10028000AC42F6D3FFF758FFC82B0008E82B000854
:10029000FEE7000080B540F21800C2F20000012124
:1002A0000022C0E91111014641F8282FC0E90B22B4
:1002B000C0E90D22C0E90F2200F04EFA002818BF55
:1002C00000F01AF840F21800C2F2000000F0B0FD91
:1002D000002818BF00F010F840F21800C2F2000029
:1002E000022100F0C3F9002808BF80BDBDE88040AE
:1002F00000F002B870470000EFF3108072B600BF44
:10030000FEE7000010B581B00022009290F8242092
:10031000012A03D10221084601B010BD4B68012219
:10032000062B80F8242015D8026803EB8303A3F181
:10033000050E1F23D2F834C003FA0EF40B682CEA22
:10034000040C03FA0EF444EA0C045463092B17D985
:1003500037E000BF02680C2B20D803EB8303A3F126
:1003600023041F23D2F830C003FA04FE0B682CEAE2
:100370000E0C03FA04F444EA0C041463092B20D88D
:10038000D2F810C003EB4303072489689C402CEA91
:100390000404994021431161002136E003EB8303FB
:1003A000A3F141041F23D2F82CC003FA04FE0B680A
:1003B0002CEA0E0C03FA04F444EA0C04D462092B70
:1003C000DED903EB4304D2F80CC0A4F11E0E0724BF
:1003D000896804FA0EF42CEA040401FA0EF12143B0
:1003E00023F00104102CD1600ED142F20841C4F276
:1003F0000101A1F10804A2420ED0816A41F020015E
:100400008162012101E000BF0021002280F8242048
:10041000084601B010BD00BF0A68120230D40A6855
:10042000102B42F400020A602CD140F20C01C2F2FF
:10043000000109684DF68362C4F21B32A1FB02126F
:10044000910C01EB8101490000910099E1B1009903
:10045000013900910099C9B10099013900910099C1
:10046000B1B1009901390091009999B10099013910
:100470000091009900294FF00001E8D1C5E700BFC5
:100480000021C2E70021C0E70021BEE70021BCE750
:100490000021BAE70021B8E7B0B5002800F0B2802B
:1004A0000446806A20B121688868C0070BD114E037
:1004B0000020E06284F82400204600F0A5F82168BE
:1004C0008868C00709D0886820F00100886000F0C3
:1004D000BFFE21688A68D20730D1A06AC00644D422
:1004E000A06A41F2021290430230A062E36981F0F7
:1004F000804080F49E3083F44022104308BF4FF4C4
:100500000023D4E9010243EA000C531EB3FA83F33B
:100510005D091346B2F5807F18BF2B02207D257B35
:1005200001284CEA450030D135B3A56A45F02005D5
:10053000A562E56A45F00105E56226E0054602E0B0
:100540008868C007C9D000F083FE401B21680328DB
:10055000F6D38868C007F3D0A06A40F01000A0620C
:10056000E06A40F00100E062A06AA06A40F010007A
:10057000A0620120B0BD00BFD4F818C04EF600053F
:10058000CFF6FF7505EB4C352B434D68B2F5807FF8
:1005900025F4694543EA05034B608B684FF2FD750E
:1005A000CFF6E17503EA050343EA00038B6001D04F
:1005B000012A07D122690023CFF6F07303EB025220
:1005C00001E000BF0022CB6A23F470031A43CA6221
:1005D000896840F6FE62CFF61F721140814207D152
:1005E0000020E062A16A012262F30101A162B0BDB4
:1005F000A06A40F0100020F00200A062E06A40F023
:100600000100E0620120B0BD80B586B0014640F631
:100610000040C4F20100096800F5C05291424FF059
:100620000001CDE9041101D006B080BD41F21801EE
:10063000C4F202010A6842F400720A600A6802F415
:1006400000720192019A0A6842F008020A60096881
:1006500001F0080101910199012102910321039107
:1006600002A900F0EDFC06B080BD000090F820204B
:10067000013A012A08D8006800F11402002013682A
:1006800019431160704700BF00F1240201204FF4AC
:1006900080211368194311607047000010B590F86D
:1006A00020E0D0F800C0AEF1010EBEF1010FDCF881
:1006B00008E011D81EF0E05F18D0CEF3016EBEF155
:1006C000030F1DD100F1240101204FF400020B683B
:1006D0001A430A6010BD00BF00F1240101204FF44D
:1006E00080220B681A430A6010BD00BF00F124018C
:1006F00001204FF400120B681A430A6010BD00BFBE
:10070000012000FA0EF01860886818B14B6840EAC2
:10071000C30001E008684005D1E9033403430CEB52
:100720000E10C0F88031C0F88441097D012905D13F
:1007300000F5C2710B6843F480730B605168C0F818
:100740008C11126800F5C071C0F8882100200122C8
:100750000B681A430A6010BDB0B5026890F82030EB
:10076000013B012B28D8D2F80002012340F0010000
:10077000C2F80002D1F814E0CC690EF01F0003FAB1
:1007800000F0D2F81C326FEA000C8343012CC2F84F
:100790001C3217D06CBBD2F80C3203EA0C03C2F83F
:1007A0000C32CB688C8844EA034302EBCE04C4F8D5
:1007B00040320B4615E000BF416A41F4802141629E
:1007C0000120B0BDD2F80C320343C2F80C320B68E2
:1007D0008C8844EA034302EBCE04C4F8403201F1B2
:1007E0000C038C681B8843EA044302EBCE04C4F874
:1007F0004432D2F804328D6943EA0004D1F810E0A3
:10080000096A002D08BF03EA0C04C2F80442D2F8BA
:100810001432BEF1000F43EA000408BF03EA0C04DF
:100820000129C2F8144204D1D2F81C120843C2F8BC
:100830001C02D2F8000220F00100C2F800020020E1
:10084000B0BD00007047000010B590F82040013C9A
:10085000012C71D8D0F800C0002977D0DCF8104006
:10086000A40777D00CEB011CDCF8B0410CF5D87E66
:1008700014F004049460DCF8B04119BFE40854603B
:10088000640D1460DEF80040002904F00204D46016
:10089000DCF8B44104F00F041461DCF8B441C4F393
:1008A00007249461DCF8B4414FEA14445461DCF845
:1008B000B8211A70026802EB0112D2F8B8214FEA8F
:1008C00012225A70026802EB0112D2F8B8214FEAE4
:1008D00012429A70026802EB0112D2F8B8214FEA74
:1008E0001262DA70026802EB0112D2F8BC211A71AE
:1008F000026802EB0112D2F8BC214FEA12225A71AF
:10090000026802EB0112D2F8BC214FEA12429A713E
:10091000026802EB0112D2F8BC214FEA1262DA71CE
:10092000006814BF00F1100100F10C01002020222A
:100930000B681A430A6010BD00F1240101204FF436
:1009400080220B681A430A6010BD00BFDCF80C401F
:10095000A40787D100F1240101204FF400120B6895
:100960001A430A6010BD00002DE9F04F81B0044623
:1009700000684669D0F804908768D0F80CB0D0F8C9
:1009800010A0D0F81880F10704D1002530071DD43D
:1009900024E000BFF90710D00121BA07816009D413
:1009A000780700F1AF80380700F1B680204600F0EC
:1009B0006DFA02E0204600F06BFA0025F80500F120
:1009C0008780F80300F1B180300707D51BF01000D5
:1009D00004D0206845F400751021C160700708D567
:1009E0001BF0080005D020680821C160204600F0F7
:1009F000ABF9B00706D52068C068800702D0204652
:100A000000F0A4F9700607D51AF0100004D0206891
:100A100045F4806510210161B00608D51AF0080080
:100A200005D0206808210161204600F0FBF9F0069E
:100A300006D520680069800702D0204600F0F4F94E
:100A4000B00308D519F0100005D0206810214160CE
:100A5000204600F0EBF9F00308D519F0080005D0A6
:100A6000206808214160204600F01CFA300440F163
:100A70009B805FEA497040F1948006F4807008EA38
:100A8000102028435FEA8871014648BF41F0020107
:100A9000B20558BF01465FEA48700D4648BF45F0B1
:100AA0000405700558BF0D46300540F17A8018F0F6
:100AB000700000F076801038000905286CD8DFE857
:100AC00000F003595D61656945F0080564E000BF09
:100AD00020684FF48071BA0581600BD4780515D475
:100AE00038051DD4204600F0D5F9F8037FF56CAF2A
:100AF0001BE000BF204600F0CFF9F8037FF564AF9C
:100B000013E000BF4FF4006558E700BF05F500553E
:100B1000F8037FF559AF08E04FF480554EE700BF6A
:100B200005F58045F8037FF54FAF20684FF480311D
:100B3000BA0381600AD4780310D4380314D4204651
:100B400000F0ACF930073FF541AF47E7204600F031
:100B5000A7F930073FF53AAF40E700BF05F500457C
:100B600030073FF533AF39E705F5803530073FF5FE
:100B70002DAF33E745F010050EE000BF45F020052E
:100B80000AE000BF45F0400506E000BF45F08005E3
:100B900002E000BF45F480752068816921F0700192
:100BA000816120680421416055B1606A40EA050115
:100BB0002046616201B0BDE8F04FFFF743BE00BFC1
:100BC00001B0BDE8F08F0000B0B5C8B1044690F8A0
:100BD000200010B9204600F071F82068016841F04B
:100BE0000101016000F034FB054600BF2068416848
:100BF000C90707D100F02CFB401B0B28F6D312E0ED
:100C00000120B0BD016821F00201016000F020FB6D
:100C1000054600BF2068416889070DD500F018FB24
:100C2000401B0B28F6D3606A052140F40030606257
:100C3000012084F82010B0BD217E0268012922F035
:100C4000800208BF80320260617E0268012922F0C2
:100C5000400208BF40320260A17E0268012922F0F2
:100C6000200208BF20320260E17E0268012922F0E2
:100C7000100218BF10320260217F0268012922F0A1
:100C8000080208BF08320260617F0268012922F071
:100C9000040208BF04320260D4E901C2D4E903357A
:100CA00061691A432A431143ACF101021143C16146
:100CB00000200121606284F82010B0BDB0B586B07C
:100CC00040F60004C4F201040068A4F524420021A7
:100CD0009042059102D006B0B0BD00BF41F21800AD
:100CE000C4F20200426802AD42F000724260426803
:100CF00002F000720192019A026842F0040202605E
:100D0000006800F00400019001984FF40060CDE904
:100D1000020104912046294600F092F94FF48050D8
:100D2000029002200390032005902046294600F0FF
:100D300087F914200021002200F008FB142000F0A5
:100D4000F5FA06B0B0BD000070470000B0B582B043
:100D500040F27002C2F200026B460021FFF774FD00
:100D600010B102B0B0BD00BF26A001F063FD42F695
:100D7000C1349DF80010C0F60004204601F05AFD71
:100D800040F268059DF80000C2F200059DF80110D0
:100D90002870204601F04EFD9DF801009DF80210DC
:100DA0006870204601F046FD9DF802009DF8031092
:100DB000A870204601F03EFD9DF803009DF8041048
:100DC000E870204601F036FD9DF804009DF80510FE
:100DD0002871204601F02EFD9DF805009DF80610B3
:100DE0006871204601F026FD9DF806009DF8071069
:100DF000A871204601F01EFD9DF80700E87102B0C1
:100E0000B0BD00BF0A476574205278204D657373EA
:100E1000616765205375636365737321210A4461BB
:100E200074613A007047000070470000704700008E
:100E3000B0B5044690F8200001281DD1022084F8A6
:100E400020002068016821F00101016000F000FA33
:100E5000054600BF20684068C00713D000F0F8F9CD
:100E6000401B0B28F6D3606A40F400306062052016
:100E700084F820000120B0BD606A40F40020606268
:100E80000120B0BD00206062B0BD000070470000CE
:100E90007047000070470000704700007047000076
:100EA0007047000070470000014690F821000228BA
:100EB00016D10868D1E90FC3026822F00E02026061
:100EC000026822F001020260012000FA03F2CCF86D
:100ED000042081F821000020002281F820207047A2
:100EE000042088630120002281F820207047000040
:100EF00080B590F82110022928D1026840F2040C34
:100F00001368C4F2020C23F00E03136013680CF193
:100F10007C018A4223F0010111601BD940F2084193
:100F2000C4F202018A4249D040F21C41C4F20201DB
:100F30008A4247D040F23041C4F202018A4245D190
:100F40004FF48073CCF800345DE000BF042181636E
:100F5000012080BD4321C4F202018A420EDD6B21D3
:100F6000C4F202018A421BDC4421C4F202018A421B
:100F70003CD05821C4F202018A4233E00821C4F275
:100F800002018A4236D01C21C4F202018A4237D0C3
:100F90003021C4F202018A4224D14FF4807230E041
:100FA0006C21C4F202018A4226D08021C4F20201DF
:100FB0008A4217D14FF0807223E000BF0123CCF8A2
:100FC000003420E01023CCF800341CE00CF58861DC
:100FD0004FF480338A4208BF4FF48053CCF800347A
:100FE00011E000BF4FF480320BE000BF4FF480529D
:100FF00007E000BF012204E04FF4801201E000BFCF
:101000001022CCF80020416B4FF48072028401B1B1
:101010008847002080BD0000B0B5044600F018F9F4
:10102000054640F20400C2F200000078611C18BFBF
:10103000044400BF00F00CF9401BA042FAD3B0BD3D
:101040002DE9F04F83B041F60043C4F201030E686E
:1010500006229842019008BF0522002E009200F05F
:10106000ED80019840F20C45A0F18043A3F5843354
:101070004FEAB32740F200404FF6FF73C4F2010578
:10108000C4F20100009A4FF0000E4FF0010CC1F2C3
:1010900010034FF0000A4FF0000B4FF00F08052F20
:1010A00038BF3A46009208E00E680AF1010A36FAA3
:1010B0000AF20EF1040E00F0C1800CFA0AF916EAE9
:1010C000090FF1D04E689E4212DC122E56D8DFE88E
:1010D00006F0350B454955555555555555555555FA
:1010E0005555554D510000BFD1F80CB046E000BF3A
:1010F0004FF6FF72C1F2210296420FDC0022C1F2CC
:10110000110296421AD00022C1F21202964215D064
:101110000022C1F22102964210D02FE00022C1F23B
:10112000220296420AD00022C1F23102964205D034
:101130000022C1F23202964220D100BF8E684EB129
:10114000012E019A14BFC2F81490C2F810904FF00B
:10115000080B13E04FF0040B10E000BFCF6807F15D
:10116000080B0BE04FF0000B08E000BFCF6807F161
:10117000040B03E0CF6807F10C0B00BF7446BAF113
:10118000080F28BF203C019F28BF04373E6808FA9B
:1011900004F226EA02020BFA04F632433A60CA79F4
:1011A000D2067FF581AF41F21807C4F202073A6810
:1011B0004FF6084C42F001023A603A68CFF6FF7CE5
:1011C00002F001020292029A2AF00302024452F84B
:1011D0000C700EF00C0608FA06F4A743009C04FA03
:1011E00006F6374342F80C70D1F804C05FEACC32FF
:1011F000026854BF22EA090642EA09065FEA8C3215
:101200000660426854BF22EA090642EA09065FEA1C
:10121000CC224660826854BF22EA090642EA0906E7
:101220005FEA8C2286604FF0010C2A6854BF22EAE4
:10123000090642EA09062E6036E700BF03B0BDE8A2
:10124000F08F0000002A08BF090401617047000008
:1012500040F21810C2F200000068704740F204002B
:1012600040F21811C2F20000C2F2000100780A68D0
:10127000104408607047000080B542F20000C4F2DC
:101280000200016841F010010160032000F08AF8BB
:101290000F2000F005F800F027F8002080BD0000C6
:1012A00070B540F20406C2F2000640F20C0132783A
:1012B000C2F200014FF47A730968B3FBF2F20446FC
:1012C000B1FBF2F1084600F0E5FB0F2C4FF00105F1
:1012D00008D838B94FF0FF3021460022002500F031
:1012E00035F87460284670BD82B041F21800C4F22F
:1012F00002000168022241F001010160016801F071
:10130000010101910199416841F0805141604068BB
:1013100000F08050009000980420C4F201000168A1
:1013200062F31A61016002B070470000002848BFF4
:10133000704700F01F01012202FA01F14EF2001283
:101340004009CEF2000242F82010704710B54EF668
:101350000C5CCEF2000CDCF80030C3F3022E8EF0F1
:101360000704042C28BF0424BEF103034FF0FF3E02
:101370000EFA04F438BF0023A14399400EFA03F398
:101380009A43114300F00F02043A624409010C32FF
:1013900000F16043B0F1FF3FC8BF03F56442117034
:1013A00010BD00004EF60C51CEF200010A684FF657
:1013B000FF031A4060F30A2242F0806040F0FD70A3
:1013C000086070472DE9F04182B00446007841F290
:1013D0001C06C007C4F202064AD0306810F08058DC
:1013E00008D1306840F080503060306800F08050A4
:1013F0000190019847F20007C4F200073868C00561
:1014000012D4386840F480703860FFF721FF054639
:101410003868C00508D4FFF71BFF401B6428F7D9C4
:10142000032002B0BDE8F081706810F4407012D063
:10143000616801F4407188420DD0706840F240420A
:10144000C4F24222012320F4407113600023C0073C
:10145000136071602AD17068616820F4407008439D
:10146000B8F1000F706003D1306820F08050306018
:101470002068810707D556F8181CA26821F440415E
:10148000114346F8181CC00604D4002002B0BDE881
:10149000F08100BF56F8180C616920F48000084301
:1014A00046F8180C002002B0BDE8F081FFF7D0FE2E
:1014B000054641F2883700BF70688007CBD4FFF73C
:1014C000C7FE401BB8424FF00300F5D9EBE7000020
:1014D0002DE9F04381B0002800F0858042F2000839
:1014E000C4F202080446D8F800000D4600F00700D8
:1014F00088420CD2D8F8000020F007002843C8F832
:101500000000D8F8000000F00700A8426BD1206866
:1015100041F204098107C4F2020917D5410705D534
:10152000D9F8001041F4E061C9F80010010705D5B1
:10153000D9F8001041F46051C9F80010D9F8001032
:10154000A26821F0F0011143C9F80010C00741D191
:10155000D8F8000000F00700A8420CD9D8F8000025
:1015600020F007002843C8F80000D8F8000000F079
:101570000700A84237D12068410707D5D9F80010E5
:10158000E26821F4E0611143C9F80010000708D5B2
:10159000D9F80000216920F4605040EAC100C9F880
:1015A0000000D9F8002002F00C00082841F20020C9
:1015B000C0F27A0050D142F67233C2F38341C0F6D2
:1015C0000003595CD2033BD440F60010C0F23D004A
:1015D000484341E0606802280AD001282AD159F81E
:1015E000041C890308D4012001B0BDE8F08300BFCA
:1015F00059F8041C8901F6D5D9F8001021F003012F
:101600000843C9F80000FFF723FE064641F2883779
:10161000D9F80000616800F00C00B0EB810F97D0A2
:10162000FFF716FE801BB842F2D9032001B0BDE8D7
:10163000F08300BF59F8041C8907D4D5DCE700BF4C
:10164000D9F8002042F65833C2F34042C0F60003F6
:101650009A5C4843B0FBF2F0D9F8001042F65A32D7
:10166000C1F30311C0F60002515C40F20C0220FAF3
:1016700001F140F20800C2F200000068C2F200026C
:101680001160FFF70DFE002001B0BDE8F0830000FF
:1016900040F20C0041F20401C2F20000C4F2020167
:1016A0000068096842F66A32C1F30221C0F60002FE
:1016B000515CC8407047000040F20C0041F2040148
:1016C000C2F20000C4F202010068096842F66A3200
:1016D000C1F3C221C0F60002515CC840704700004F
:1016E0002DE9F04182B0002868D00446007841F22C
:1016F0000006C007C4F2020625D0706800F00C0096
:1017000004281BD0706800F00C00082802D1706813
:10171000C00313D46068002800F06881B0F5A02FE2
:1017200000F07C81B0F5803F00F07C81306820F4CF
:1017300080303060306820F4802076E130688003AB
:1017400001D56068D0B32078800718D5706810F094
:101750000C0F07D0706800F00C0008286ED170687C
:10176000C0036BD43068800702D52069012825D1D9
:101770003068616920F0F80040EAC10030602078EC
:1017800000071FD42078400732D4E56995B170680E
:1017900000F00C00082840F08F80012D0ED07068FA
:1017A000216A00F480328A4208D1616A00F4701024
:1017B000884203D1002002B0BDE8F081012002B0D0
:1017C000BDE8F081A069002862D00020C4F2422068
:1017D0000121C0F88014FFF73BFD0546706A8007C1
:1017E00000F18C80FFF734FD401B0228F6D92AE176
:1017F000F06910F0805808D1F06940F08050F06135
:10180000F06900F080500090009847F20007C4F2A1
:1018100000073868C00529D4386840F48070386003
:10182000FFF716FD054600BF3868C0051ED4FFF758
:101830000FFD401B6428F7D905E100BF206900288F
:1018400040F20000C4F2422000F0828001210160D9
:10185000FFF7FEFC054600BF306880073FF588AF04
:10186000FFF7F6FC401B0228F6D9ECE0E068002800
:1018700000F08080052800F09780012800F0988013
:10188000306A20F001003062306A20F0040092E0FB
:101890000020C4F242200021C0F88014FFF7D8FCD9
:1018A000054600BF706A80077FF56CAFFFF7D0FC7C
:1018B000401B0228F6D9C6E00027C4F242270020C8
:1018C0003866FFF7C5FC022D05460BD13068800154
:1018D00040F1BE80FFF7BCFC401B02284FF0030024
:1018E000F4D968E7306880017FF564AFFFF7B0FC9A
:1018F000401B02284FF00300F4D95CE740F20C00D3
:10190000C2F20000006844F6D351C1F26201A0FBAC
:101910000101480A019000BF00BF0198411E002844
:1019200001913FF42FAF00BF0198411E00280191A3
:101930003FF428AF00BF0198411E002801913FF4F9
:1019400021AF00BF0198411E00280191E4D119E7A1
:1019500000210160FFF77CFC054600BF306880076E
:101960007FF50DAFFFF774FC401B02284FF003001A
:10197000F4D920E7306A20F001003062306A20F0AC
:1019800004003062FFF764FC054641F2883700BF6F
:10199000306A800720D5FFF75BFC401BB8424FF050
:1019A0000300F5D907E700BF306A40F00400306259
:1019B000306A40F001003062FFF74AFC054641F210
:1019C000883700BF306A800706D4FFF741FC401B10
:1019D000B842F7D937E000BFB8F1000F7FF4D5AEB9
:1019E000F06920F08050F061CFE600BF306820F44D
:1019F00080303060306820F480203060FFF728FCB1
:101A0000054600BF306880037FF59DAEFFF720FCE0
:101A1000401B64284FF00300F4D9CCE6306840F452
:101A200080203060306840F480303060FFF710FC78
:101A3000054600BF306880033FF585AEFFF708FC20
:101A4000401B6428F6D9032002B0BDE8F08100BF36
:101A5000206AB0F5803F05D17168A26821F4003199
:101A6000114371607168626A21F474111043084374
:101A7000706001203866FFF7EBFB04463068800198
:101A80003FF598AEFFF7E4FB001B02284FF0030080
:101A9000F4D990E6411E0020B0EB116F1CBF01206D
:101AA00070474EF21002CEF2000251604EF6235102
:101AB000CEF20001F0230B70072190601160704797
:101AC0007047000070470000B0B582B0026805465C
:101AD0001068D368546900F02F01202903F0200119
:101AE00006D129B1284602B0BDE8B04000F06CBB79
:101AF0005FEA007C1EBF04F0010E03F4907414EB47
:101B00000E0455D1296B012905D110F0100118BF21
:101B100013F0100136D1010622D513F080011FD039
:101B200095F83D00212841D1A868B0F5805F03D128
:101B30002869002800F0F680286A411C2962007894
:101B40005060E88C01380104E8842FD1D06820F07F
:101B50008000D060D06840F04000D06002B0B0BDDE
:101B6000400623D513F0400020D0D068202120F07B
:101B70004000D060284685F83D1002B0BDE8B04076
:101B800000F066BA00200190106801905068019042
:101B900001985069400613D4A88DE98DEB8D002B78
:101BA0001CBF401A5FEA004140F0A48002B0B0BD03
:101BB000C40718BF13F480732CD1430730D436E028
:101BC000A86B01684B689CB2002CEFD0A98D8C42A9
:101BD000ECD2EB858369202B17D0D16821F480717A
:101BE000D160516921F001015161516921F0400139
:101BF0005161202185F83E1000212963D16821F030
:101C00001001D160FFF750F9A98DE88D081A81B253
:101C1000284682E02B6C43F001032B64430706D572
:101C2000BEF1000F03D02B6C43F002032B6483073B
:101C300006D5BEF1000F03D02B6C43F004032B64D8
:101C4000BCF1000F06D551EA0E0303D02B6C43F014
:101C500008032B642B6C002BA8D010F0200018BFB9
:101C6000002903D0284600F0AFFA2A685069296C91
:101C700000F0400001F0080140182DD0D06820F499
:101C80009070D060506920F001005061286B0128ED
:101C900003D1D06820F01000D060202085F83E00ED
:101CA00000202863506940061ED5506920F040008E
:101CB0005061A86BC0B142F2BD11C0F60001416392
:101CC000FFF716F900283FF471AFA86B416B02B023
:101CD000BDE8B040084700BF2846FFF7F3FE0020EC
:101CE000286402B0B0BD00BF284602B0BDE8B040D5
:101CF000FFF7E8BED16821F49071D160516921F0FD
:101D000001015161202185F83E1000212963D1682D
:101D100021F0100381B22846D36002B0BDE8B04084
:101D2000FFF7CEBE286A30F8021B6FF35F215160C7
:101D3000286206E7002804BF0120704710B504465A
:101D400090F83D0028B9002084F83C00204600F0BF
:101D50005FF8242084F83D002068D4E90212C368AB
:101D600023F40053C360036923F440531A43026110
:101D7000D4E904231143C268194341F20C639A4326
:101D80001143C1604169A26921F44071114343F6D6
:101D90000002C4F201029042416103D0FFF778FCD7
:101DA00002E000BFFFF788FC6268192148439100F8
:101DB000B0FBF1F048F21F51C5F2EB11A0FB01237B
:101DC0005A096FF0630302FB0300322303EB001098
:101DD000A0FB0101F02303EA5113206803EB021278
:101DE000C1F3431111448160016921F49041016103
:101DF000416921F02A014161C16841F40051C1608B
:101E000000202021206484F83D1084F83E1010BD8D
:101E100070B586B040F60004C4F20104006804F511
:101E2000405100268842049602D006B070BD00BF23
:101E300041F21800C4F20200016802AD41F4804191
:101E40000160016801F4804101910199016841F04C
:101E5000040101600068294600F004000190019827
:101E60004FF400700290022003900320059020465A
:101E7000FFF7E6F84FF48060CDE9020620462946D8
:101E80000496FFF7DDF8252000210022FFF75EFA17
:101E90002520FFF74BFA06B070BD00007047000028
:101EA0002DE9F04381B0044690F83D0020280DD183
:101EB0000F4600294FF0010000F092801646002ADC
:101EC00000F08E8094F83C00012803D1022001B07C
:101ED000BDE8F083012084F83C004FF00009212088
:101EE0001D46C4F8409084F83D00FFF7B1F9A68480
:101EF000E684A1688046B1F5805F25D1206900287D
:101F00001CBF38464F463E46074684F83C90E08C5E
:101F100000B3681C20D0002D66D120680BE000BF04
:101F200036F8021B00276FF35F214160E18C013915
:101F3000E184E18C81B30168090675D5002FEFD0EB
:101F400017F8011BF1E700BF002684F83C90E08CF5
:101F50000028DED120681FE0206802E00168090641
:101F600009D40168090606D4016809065CBF016846
:101F70005FEA0161F2D51FB117F8011B05E000BF50
:101F800036F8021B00276FF35F214160E18C0139B5
:101F9000E184E18C0029E4D1016849061CD4002DBC
:101FA00042D0691C0ED10168490615D40168490662
:101FB0005CBF01685FEA41610ED401684906F2D551
:101FC0000AE000BFFFF744F9A0EB08012068A9422E
:101FD0002AD800684006F5D5202084F83D0000206E
:101FE00001B0BDE8F08300BF206800BF01680906AA
:101FF00008D4FFF72DF9A0EB08012068A942F5D914
:1020000012E000BF17B117F8011B04E036F8021BFD
:1020100000276FF35F214160E18C0139E184E18C9D
:102020000029E3D1B8E700BFC16821F4D071C160D5
:10203000416921F001014161202084F83D0084F8CC
:102040003E00002084F83C00032001B0BDE8F0838E
:1020500070470000FEE70000B0B584B040F2A40075
:1020600042F20041C2F20000C4F201010024012545
:102070004FF4602205730475C261C0E900148460E6
:102080000561FEF709FA002818BFFEF735F90820A8
:10209000CDE9010540F2A400C2F2000001A90394B9
:1020A000FEF730F9002818BFFEF726F904B0B0BDDE
:1020B00010B540F2180046F20041C2F20000C4F22E
:1020C000000140F2001404220023C0F2010480E861
:1020D0000E0000F10C014FF4403C4FF4401E81E82B
:1020E000085084618383FEF76FFD002808BF10BD90
:1020F000BDE81040FEF700B970B584B041F2180099
:10210000C4F20200016841F6000441F040010160A0
:102110000168C4F2010401F04001009100990168D6
:10212000012241F0080101600168202501F0080149
:10213000009100990168012641F0040101600068E6
:10214000202100F00400009000982046FFF77AF864
:10215000002002900220039069462046CDE90056F7
:10216000FEF76EFF04B070BD80B540F2D40043F6B8
:102170000001C2F20000C4F2010100234FF00C0C78
:102180004FF4E13280E80E00C0E90333C0E905C333
:10219000C361FFF7CFFD002808BF80BDBDE88040C8
:1021A000FEF7AAB8FEE70000FEE700007047000057
:1021B00070470000FFF752B870470000406A0021E6
:1021C000C185C184FFF77EBC81B090F83E10222902
:1021D00020D18368B3F5805F08D10169002941D01F
:1021E00000F128010A6803685B680AE0014651F8BB
:1021F000282F13B90369002BF5D003685B6803F03F
:102200007F0313700A6801320A60C18D01390A0424
:10221000C18501D001B070470168CA6822F0200270
:10222000CA60CA6822F48072CA604A6922F0010258
:102230004A61202280F83E20026B012A1CD1002234
:102240000263CB6823F01003CB600B68DB0605D577
:1022500000920A680092496800910099818D01B04E
:10226000FFF72EBC0168826A49686FF35F2122F88C
:10227000021B8262C9E700BF01B0FFF70FBE00007A
:1022800040F2D400C2F20000FFF71EBC40F218007A
:10229000C2F20000FEF768BBFEE7000070B582B036
:1022A000044600200190601E15460E46A421042815
:1022B00000910DD8DFE800F004101820280000BFBE
:1022C0000021C4F27A413046FDF74EFF064622E077
:1022D00027A000F02FFC1EE00021C4F24841304648
:1022E000FDF742FF064616E00021C4F26151304678
:1022F000FDF73AFF06460EE00021C4F248413046A1
:10230000FDF732FF064606E00021C4F26151304677
:10231000FDF72AFF0646280A8DF80300300A8DF8DB
:102320000500300C8DF80600300E40F28C018DF85F
:10233000070004F5A070C2F2000100220823C1E9E1
:1023400000020B6140F2180040F21003C1E90222C2
:10235000C2F20000C2F200036A468DF802508DF806
:102360000460FEF79BF90320FEF756FE02B070BD35
:102370006964206572726F720000000080B582B0DF
:10238000019040F2D400C2F2000001A901224FF6F0
:10239000FF73FFF785FD019802B080BD96B0FEF790
:1023A0006BFF00240120CDE91144CDE90F440C90CE
:1023B00010904FF4E0104FF48031022515900CA8D6
:1023C0000694CDE90444CDE90244CDE90D14CDE9EC
:1023D0001351FFF785F928B1EFF3108072B600BFF3
:1023E000FEE700BF0F20CDE907054FF48060CDE97F
:1023F0000A0407A802210994FFF76AF820B1EFF355
:10240000108072B6FEE700BF022001904FF400403A
:10241000039001A8FEF7D6FF20B1EFF3108072B64B
:10242000FEE700BFFFF768FEFFF742FEFFF79CFEE6
:10243000FFF712FEFDF72EFF012000F043F9022006
:1024400000F040F9032000F03DF9042000F03AF9D3
:10245000052000F037F9022000F0A2F940F26804EC
:10246000C2F20004E188022000F0BCF9032000F071
:1024700097F9E188032000F0B5F9042000F090F905
:10248000E188042000F0AEF9052000F089F9E18828
:10249000052000F0A7F976A000F04CFB022000F028
:1024A00055F942F68234C0F600042046022100F0BD
:1024B000C1F94FF47A70FEF7AFFD032000F046F942
:1024C0002046032100F0B6F94FF47A70FEF7A4FD20
:1024D000042000F03BF92046042100F0ABF94FF452
:1024E0007A70FEF799FD052000F030F920460521AD
:1024F00000F0A0F94FF47A70FEF78EFD63A000F0B3
:1025000019FB022000F000F942F6A234C0F60004E4
:102510002046022100F08EF9032000F0F5F8204655
:10252000032100F087F9042000F0EEF82046042192
:1025300000F080F9052000F0E7F82046052100F0C2
:1025400079F959A000F0F6FA00240025C4F2B42469
:10255000CCF2B425022000214FF4FA72FFF79EFE60
:10256000032000214FF47A72FFF798FE0420002127
:102570004FF4FA72FFF792FE052000214FF47A72B1
:10258000FFF78CFE42F21070FEF746FD0220214656
:102590004FF4FA72FFF782FE032021464FF47A725D
:1025A000FFF77CFE042021464FF4FA72FFF776FE17
:1025B000052021464FF47A72FFF770FE42F2107048
:1025C000FEF72AFD022000214FF4FA72FFF766FEA3
:1025D000032000214FF47A72FFF760FE04200021EF
:1025E0004FF4FA72FFF75AFE052000214FF47A7279
:1025F000FFF754FE42F21070FEF70EFD022029464E
:102600004FF4FA72FFF74AFE032029464FF47A721C
:10261000FFF744FE042029464FF4FA72FFF73EFE0E
:10262000052029464FF47A72FFF738FE42F2107007
:10263000FEF7F2FC022000214FF4FA72FFF72EFEA3
:10264000032000214FF47A72FFF728FE04200021B6
:102650004FF4FA72FFF722FE052000214FF47A7240
:10266000FFF71CFE42F21070FEF7D6FC72E700BFC7
:102670000A736574207A65726F20706F696E7420BA
:102680005375636365737321210D00000A476574F8
:102690002073696E676C65416E676C652053756366
:1026A0006365737321210D000A476574206D756C95
:1026B0007469616E676C652053756363657373211C
:1026C000210D000080B582B08821009140F28C017C
:1026D000002200F5A070C2F200010823C1E9000247
:1026E0000B6140F2180040F210030192C1E902228E
:1026F000C2F20000C2F200036A46FDF7CFFF0320DA
:10270000FEF78AFC02B080BD80B582B092210091B4
:1027100040F28C01002200F5A070C2F200010823F3
:10272000C1E900020B6140F2180040F2100301926F
:10273000C1E90222C2F20000C2F200036A46FDF7BC
:10274000ADFF0320FEF768FC02B080BD10B582B07B
:102750009421009140F28C01002200F5A070C2F299
:10276000000140F210040823C1E9000240F2180001
:10277000C2F200040192C1E902220B61C2F2000020
:102780006A462346FDF78AFF0320FEF745FC40F228
:102790006800C2F200004068606002B010BD000036
:1027A00080B582B09021009140F28C01002200F5AA
:1027B000A070C2F200010823C1E900020B6140F2DF
:1027C000180040F210030192C1E90222C2F2000097
:1027D000C2F200036A46FDF761FF0320FEF71CFC0E
:1027E00002B080BD80B582B09122ADF8061040F2F3
:1027F0008C018DF80020002200F5A070C2F20001CB
:102800000823C1E900020B6140F2180040F21003F6
:10281000CDF801208DF80520C1E90222C2F20000A6
:10282000C2F200036A46FDF739FF0320FEF7F4FB0E
:1028300002B080BD0FB4054B10B503A9044A02983D
:1028400000F018F810BC5DF814FB00007D230008B0
:102850000000002002E008C8121F08C1002AFAD1B7
:1028600070477047002001E001C1121F002AFBD110
:10287000704700002DE9FF4F8DB09B460F46044680
:10288000002606E025280BD05A460F999047641C75
:10289000761C20780028F5D111B03046BDE8F08FC5
:1028A0000025A8460122984900E0054314F8013F9D
:1028B000203B02FA03F00842F7D120782E2817D1E6
:1028C00014F8010F45F004052A280ED06FF02F02EE
:1028D0002078A0F1300109290AD808EB880102EB21
:1028E000410100EB0108641CF2E757F8048B641CFB
:1028F00020786C280DD004DC4C2812D06A2811D125
:1029000004E074280DD07A280CD10AE045F40015B3
:1029100007E0617845F48015814202D1641C05F519
:102920008015641C2278692A45D008DC002AB3D0BF
:10293000582A69D0632A10D0642A08D13BE0702A53
:1029400067D0732A13D0752A5CD0782A5CD01046E1
:102950005A460F999047761CD3E017F8040B8DF870
:10296000000000208DF80100E946012003E057F83F
:10297000049B4FF0FF3069074FF0000501D40AE0D7
:102980006D1C45450DDA8542FADB19F80510002962
:10299000F6D106E06D1C8542FCDB19F80510002914
:1029A000F8D12E4404E019F8010B5A460F999047CC
:1029B0006D1EF8D2A5E00A200021CDE90801C5F37B
:1029C000025002280DD001CFC117031E71F1000380
:1029D0000DDA4FF0000CD0EB0C006CEB01012D2355
:1029E00008E0FF1D27F00707F7E80201EDE72B05D8
:1029F00004D52B238DF8283001233BE0EB0739D099
:102A00002023F7E70A2000E010200021CDE908018B
:102A100007E01020002145F00405CDE908014FF042
:102A20000808C5F3025002280FD001CF00214FF053
:102A3000000A2B071FD5702A0DD0DDE908C38CF0E2
:102A4000100C5CEA030C0CD015E0FF1D27F0070703
:102A5000F7E80201EBE740228DF828204FF0010A49
:102A60000BE050EA010306D030238DF828308DF8B2
:102A7000292002239A46582A04D024A20DF12009C5
:102A80000B9209E026A2F9E7DDE90823FDF79EFB9A
:102A90000B9B9B5C09F8013D50EA0102F4D1ADEBC0
:102AA000090020300890680701D44FF00108089908
:102AB000884502DDA8EB010000E0002080460025EB
:102AC00006E00AA85A46405D0F9990476D1C761C97
:102AD0005545F6DB04E030205A460F999047761CA6
:102AE000B8F10001A8F10108F5DC05E019F8010BC7
:102AF0005A460F999047761C0899481E089000295D
:102B0000F4DC641CC5E600000928010030313233D2
:102B10003435363738396162636465660000000019
:102B20003031323334353637383941424344454603
:102B30000000000010B5044601E0FFF71FFC14F888
:102B4000010B04490028F8D1BDE810400A20FFF726
:102B500015BC000000000020010200000000000081
:102B6000000001020304060708090000000001023A
:102B7000030402030405060708090A0B0C0D0E0FD7
:102B800010100A4765742025642073696E676C65B0
:102B9000416E676C65205375636365737321210D06
:102BA0000A000A476574202564206D756C7469619C
:102BB0006E676C65205375636365737321210D0A1D
:102BC0000025782C00000000E82B00080000002001
:102BD0001000000054280008F82B00081000002006
:102BE000100500006428000800000000010000003B
:082BF000100000000024F400B5
:0400000508000131BD
:00000001FF
