:020000040800F2
:100000007807002045010008F3300008912C000813
:10001000F1300008A10B0008A53400080000000022
:10002000000000000000000000000000F7300008A1
:10003000F90B000800000000F5300008F930000856
:100040005F0100085F0100085F0100085F01000810
:100050005F0100085F0100085F0100085F01000800
:100060005F0100085F0100085F0100085F010008F0
:100070005F0100085F0100085F0100085F010008E0
:100080005F0100085F0100085F0100085F010008D0
:10009000993400085F0100085F0100085F01000853
:1000A0005F0100085F0100085F0100085F010008B0
:1000B000793100085F0100085F0100085F01000856
:1000C0005F0100085F0100085F0100085F01000890
:1000D0005F0100088D3400085F0100085F0100081F
:1000E0005F0100085F0100085F0100085F01000870
:1000F0005F0100085F0100085F0100085F01000860
:100100005F0100085F0100085F0100085F0100084F
:100110005F0100085F0100085F0100085F0100083F
:100120005F0100085F0100085F0100085F0100082F
:10013000DFF80CD000F09AFC004800473547000873
:10014000780700200648804706480047FEE7FEE79C
:10015000FEE7FEE7FEE7FEE7FEE7FEE7FEE7FEE777
:100160007731000831010008202A04DB203A21FA07
:1001700002F00021704721FA02F3D040C2F12002C0
:100180009140084319467047D2B201E000F8012BB4
:10019000491EFBD270470022F6E710B513460A4607
:1001A00004461946FFF7F0FF204610BDF0B480EA80
:1001B0000102D40F4200B2EB410F02D202460846C0
:1001C00011464A0042D0C30DDDB2C1F3C752AD1A89
:1001D000202D35DAC1F3160141F4000204B1524278
:1001E000C5F1200602FA06F12A411044B3EBD05FB4
:1001F00023D0C4B1012DA0EBC35009DCF0BC4FF0FB
:10020000004202EAC352DBB200F5000000F072BB0C
:10021000400000F1807000EBC350A0F1807040EA14
:10022000D170490009E0490841EAC071A0EBC35010
:1002300000F50000400800EBC350F0BC00F051BBDB
:100240006142012202EB4101001BF6E7F0BC70475E
:1002500081F00041AAE780F00040A7E780EA0102B0
:1002600010B502F00043400022D04A001FD0010E1A
:1002700001EB1261C0F35600C2F3560240F40000D5
:1002800042F40002A0FB022000047F39140400D0D5
:10029000401C50EA124001D44000491EC2B20C0674
:1002A00004EBD010401C4008802A02D003E000205C
:1002B00010BD20F00100002900DA0020184310BD15
:1002C00030B480EA010202F0004530F0004221F033
:1002D000004013D090B1C30DD40DC2F31601C0F38A
:1002E0001600E41A41F4000140F400027D3491420A
:1002F00001D3641C00E04900002C02DA30BC00206D
:1003000070474FF400000023914201D3891A034340
:1003100040084FEA4101F7D151B1914202D14FF06B
:10032000004105E002D24FF0010101E06FF0010150
:1003300003EBC450284430BC00F0D3BA420005D0CF
:10034000C0F3C7525242914201DC0020704700EBDB
:10035000C15070472DE9FE4F804681EA0300C00F6F
:100360000C46009021F0004123F00045B8EB02005C
:10037000A94105D24046214690461C460B460246FE
:1003800023F00040104347D0270DC7F30A00C3F302
:100390000A510290401A019040286BDAC3F313000F
:1003A00040F4801B0098924620B10023D2EB030A50
:1003B00063EB0B0B01985946C0F14002504600F028
:1003C0006FFA06460D4650465946019A00F077FAF4
:1003D00010EB08006141002487EA115284EAE773B8
:1003E0001A4340D0009A62B3019A012A4FEA075299
:1003F00015DC001B61EB02014FF0004202EA0752DC
:10040000CDE90042001C41F5801132462B4600F038
:10041000AEFA03B0BDE8F08F40462146F9E7001B75
:1004200061EB0201001C41F5801300185B412018AC
:10043000A2F5001747EB030140EAD570B6196D41EC
:1004400011E06D084FEA360645EAC0754FEA0752DB
:10045000001B61EB0201001C41F5801149084FEAC5
:1004600030000019514132462B4603B0BDE8F04F31
:1004700000F06EBA0098012240000023D0EB020287
:1004800063EBE073009821464FEAE074B8EB00009C
:1004900061EB0401E9E783F000435BE781F0004191
:1004A00058E72DE9FE4F81EA030404F0004421F0EF
:1004B000004100944FF0000B23F0004350EA010488
:1004C0005ED052EA03045BD0C3F30A54C1F30A5569
:1004D0002C44A4F2F3340194A0FB0254C1F31301A1
:1004E00041F48011C3F3130343F4801301FB02446E
:1004F00000FB034E840A970A44EA815447EA835773
:10050000A4FB076802958D0A05FB07854FEA932C2B
:1005100004FB0C542705029D4FEA065847EA16379C
:10052000B5EB08056EEB070C870E920E47EA8117B4
:1005300042EA8312A7FB0201B6EB0B0164EB000455
:100540002B0D43EA0C335E1844EB1C50DA4651463F
:10055000E7FB0201C5F313044FEA0B3343EA1453DC
:100560004FEA0432019C43EA0603A4F10C0402940E
:10057000009CCDE900B400F0FAF903B0BDE8F08FBB
:1005800000200146F9E72DE9F04D81EA030404F06B
:10059000004B21F0004514464FF0000A23F00041C3
:1005A00050EA050220D054EA01021DD0C5F30A57D3
:1005B0000246C5F31303C1F31300C1F30A5640F416
:1005C000801543F48013A7EB0608101BD64608F2EB
:1005D000FD3873EB050002D308F1010801E0921821
:1005E0005B41B8F1000F03DA00200146BDE8F08D51
:1005F00000204FF48011064684460EE0171B73EB73
:10060000050705D3121B63EB050306434CEA010CF7
:1006100049084FEA300092185B4150EA0107EDD1DA
:1006200052EA030012D082EA040083EA050108437B
:1006300005D0101BAB4106D20122002306E00022A8
:100640004FF0004302E06FF0010253101AEB060076
:100650004CEB085110EB0A0041EB0B01BDE8F04DEB
:1006600000F076B970B521F0004303430CD0C1F31C
:100670000A550024D5EB040564EB0403D617AD1A24
:10068000B34102DB0020014670BD201841EB02514E
:1006900070BDC10F80EAE0700844CA0796230021AC
:1006A00000F028B996230022114600F023B90EB5B8
:1006B000C10F80EAE0700844CA07002140F23343CA
:1006C0008DE80E000A460B4600F051F903B000BD5C
:1006D0000EB540F2334102910021CDE900110A46E6
:1006E0000B4600F044F903B000BD00F0004220F0DA
:1006F0000040C10DC0F3160040F400007F2901DA6C
:1007000000207047962903DCC1F19601C84001E042
:1007100096398840002AF4D04042704720F00040CB
:10072000C10DC0F3160040F400007F2901DA00205B
:100730007047962903DCC1F19601C840704796398D
:100740008840704770B5C1F30A5201F0004500249B
:10075000C1F3130140F2FF3341F480119A4201DAF0
:10076000002070BD40F233439A42A2F2334203DCD0
:100770005242FFF7F9FC00E090402C43F1D0404298
:1007800070BDC1F30A5210B5C1F3130140F2FF333B
:1007900041F480119A4201DA002010BD40F2334347
:1007A0009A42A2F2334203DC5242FFF7DDFC10BD55
:1007B000904010BD00F0004230F000400AD0C10D62
:1007C00001F56071C0F3160042EA0151C20840070A
:1007D0001143704700200146704701F0004330B4D8
:1007E00021F0004150EA010206D00A0DA2F5607224
:1007F000C1F31301002A02DC30BC00207047440F13
:1008000044EAC104C100E01830BC00EBC25000F063
:1008100068B830B50B46014600202022012409E0CB
:1008200021FA02F59D4205D303FA02F5491B04FAA9
:1008300002F52844151EA2F10102F1DC30BD2DE9BC
:10084000F05F0546002092469B4688460646814654
:1008500040241BE02846414647462246FFF784FCD9
:1008600053465A46C01A914110D3114618462246A3
:1008700000F016F82D1A67EB01084F4622460120BA
:10088000002100F00DF817EB00094E41201EA4F1E5
:100890000104DFDC484631462A464346BDE8F09F66
:1008A000202A04DB203A00FA02F100207047914030
:1008B000C2F1200320FA03F3194390407047202A25
:1008C00006DBCB17203A41FA02F043EAE07306E078
:1008D00041FA02F3D040C2F1200291400843194688
:1008E00070470029A8BF7047401C490008BF20F08E
:1008F0000100704710B4B0FA80FC00FA0CF050EA26
:10090000010404BF10BC704749B1CCF1200421FAA6
:1009100004F411FA0CF118BF012121430843A3EBA1
:100920000C01CB1D4FEA00614FEA102042BF0020AE
:1009300010BC704700EBC35010440029A4BF10BC8A
:100940007047401C490008BF20F0010010BC7047F0
:1009500010B5141E73F1000408DA401C41F10001C7
:1009600092185B411A4301D120F0010010BD2DE91E
:10097000F04D92469B4611B1B1FA81F202E0B0FA15
:1009800080F220329046FFF78BFF04460F4640EA84
:100990000A0041EA0B0153465A46084313D0114658
:1009A00053EA010019D0C8F140025046FFF7DCFBC2
:1009B00005460E46504659464246FFF771FF08432A
:1009C00005D0012004E020463946BDE8F08D002026
:1009D000054346EAE0762C4337430A986305E40A68
:1009E000A0EB08000022FD0A44EA47540A3002D571
:1009F00000200146E9E7010510196941DDE90845D4
:100A000000196941BDE8F04DA2E7C1F30A52C1F3F4
:100A1000130140F2FF3341F480119A4202DA0020C0
:100A20000146704740F233439A42A2F2334202DC5D
:100A30005242FFF799BBFFF733BF000030B5041EE9
:100A400071F1000404DB4FF00044404264EB01010B
:100A5000141E73F1000405DB1C464FF000435242A4
:100A600063EB0403994208BF904230BD064C074D2A
:100A700006E0E06840F0010394E80700984710346E
:100A8000AC42F6D3FFF758FB185000083850000866
:100A900030B58C1810F8012B12F00F0301D110F8AB
:100AA000013B120906D110F8012B03E010F8015B9D
:100AB00001F8015B5B1EF9D101E001F8013B521E18
:100AC000FBD1A142E6D3002030BD000070B5044642
:100AD00000688168C943C90717D1816821F0010105
:100AE000816001F07BF805460AE000BF01F076F86E
:100AF000401B022804D920688068C043C00706D084
:100B000020688068C043C007F0D0002070BDA06A94
:100B100040F01000A062E06A40F00100E0620120B5
:100B200070BD0000F8B50026044600960068816894
:100B3000C943C9072DD0816841F001018160164881
:100B400016490068B0FBF1F000E0401E009000285C
:100B5000FBD101F043F8054616E000BF01F03EF876
:100B6000401B022810D920688068C043C0070BD002
:100B7000A06A40F01000A062E06A40F00100E0626C
:100B800084F824600120F8BD20688068C043C00755
:100B9000E4D10020F8BD00006401002040420F00B5
:100BA000FEE70000134810B50122002102624161F6
:100BB000C0E906120161016041608160C1600146C7
:100BC000283000F0F5FA08B100F03AF8094828306A
:100BD00000F002FE08B100F033F806480221283088
:100BE00000F070FA002803D0BDE8104000F028B8EB
:100BF00010BD00000C020020704770B504464FF491
:100C00007A7502E0284600F003F8641EFAD270BD3F
:100C100070B54FF6FA75094E281A84B230684462EE
:100C2000304601F07FFC306801E0416A8CB2AC4292
:100C3000FBD3BDE87040014801F0DCBCA4020020F9
:100C400072B6FEE7F8B50024009490F824202546FB
:100C5000012A12D0012280F824204A681F23072A83
:100C60000DD20668776B521E02EB820293409F43BF
:100C70000B6893401F43776319E00220F8BD0668B4
:100C80000D2A0AD2376BD21F02EB820293409F4398
:100C90000B6893401F43376309E0F76A0D3A02EB94
:100CA000820293409F430B6893401F43F7620A6898
:100CB000072306680A2A0AD3F7680A3A02EB4202B7
:100CC00093409F438B6893401F43F76008E0376968
:100CD00002EB420293409F438B6893401F4337616E
:100CE0000A68102A01D0112A20D1124B02689A42B8
:100CF00017D193681B0219D4936843F400039360DF
:100D00000968102912D10C490C4A0968B1FBF2F1AB
:100D100001EB8101490000E0491E00910029FBD14F
:100D200004E0816A41F020018162012480F82450AE
:100D30002046F8BD002401406401002040420F001D
:100D4000806A70470068C06C704700002DE9F04170
:100D500004004FF0000514D0A06A002628B9E6620E
:100D600084F82460204600F083F82046FFF7AEFEAA
:100D7000A16A01F01001014304D0A06A40F0100004
:100D8000A0626BE0A16A21F4885141F00201A162E6
:100D9000334923688B42E16904D1B1F5402F01D179
:100DA0004FF40021277B4FF4807C41EA47026168C1
:100DB0000A43A168614509D0012907D05FF000010D
:100DC00094F814E0BEF1010F02D00AE06146F7E7A3
:100DD000C7B1A76A47F02007A762E76A47F0010793
:100DE000E7625F6827F469470F435F60236899688B
:100DF0001C4F394011439960A16861450BD001290E
:100E000009D00CE0DFF860E0A7690EEB47370F432D
:100E100047F40061E5E7218A0D05A5F580152168F5
:100E2000CB6A23F470032B43CB62216889680F4B94
:100E30001940914208D1E662A16A21F0020141F015
:100E40000101A162BDE8F081A06A20F0020040F03B
:100E50001000A062E06A40F00100E0620120F1E7CA
:100E6000003C0140FDF7E1FF00E0FFFFFE0E1FFF29
:100E700000B585B0002100910191029103910068B5
:100E80000E49884218D10E48816941F40071816190
:100E9000816901F400710491816941F00801816167
:100EA0008069694600F0080004900120009003204A
:100EB0000190044800F090FD05B000BD0024014001
:100EC00000100240000C01402DE9F84300270D46B8
:100ED0000446009700F082FE804620688168C905BC
:100EE00008D5A06A40F02000A06284F82470012098
:100EF000BDE8F8834168C90503D4C06A10F4700FD7
:100F00002AD0022000F008FF3B490968B1FBF0F647
:100F10002068036939490B424FEA61014FEAA11287
:100F20001FD1C3684FEA611C13EA0C0F19D1036982
:100F30000B4225D1C068104222D1142023E0681C46
:100F40000AD02DB100F04AFEA0EB0800A84203D958
:100F500020680068800725D5206800688007EED5E6
:100F60002DE003690B4202D1C168114206D002692B
:100F700023490A4206D1C068084203D1542002E046
:100F8000292000E0FC204643009816E0681C11D0A0
:100F90002DB100F023FEA0EB0800A8420AD900986A
:100FA000B04207D2A06A40F00400A06284F8247026
:100FB00003209DE70098401C0090B042E6D32168D2
:100FC0006FF012000860A06A40F40070A062206810
:100FD0008068C0F3424007280CD1207B50B9A06A3A
:100FE00020F48070A062A06AC00403D4A06A40F01C
:100FF0000100A06200207BE76401002024499224C4
:101000004992240070B5044690F8240001280DD0C0
:10101000012084F824002046FFF784FD02004FF0F1
:10102000000005D084F82400104670BD022070BD79
:10103000A16A40F20123994341F48071A1621F4DDE
:1010400023681F49AB4218D10E6816F4702F14D0D4
:10105000A66A46F48016A6620E68760505D5A66ACD
:1010600026F4005646F48056A662A66AF6040AD50F
:10107000E66A26F00606E66206E0A66A26F4801610
:10108000A6625E68E9E7E06284F824006FF002007F
:10109000186020688368C3F34243072B05D1A84238
:1010A00008D1096811F4702F04D0816841F48011CF
:1010B0008160B9E7816841F4A001F9E700280140A7
:1010C0000424014090F82020012A07D0022A05D0EC
:1010D000416A41F480214162012070470068426901
:1010E0000A43426100207047F0B590F82050046830
:1010F000A468012D05D0022D03D0416A41F480215E
:1011000053E014F0406F01D1E5004BD5C4F3016406
:10111000022C03D9416A41F4000146E00125A540B3
:101120001D608D684FF4C0739DB1CE6835434E6825
:1011300045EAC605066803EB0417F5514FF4C2757E
:10114000076805EB04150E697E51097D012905D05C
:1011500009E00E88CD6845EA4655EBE701684E592F
:1011600046F480764E511179D2F805504FF4C67688
:1011700041EA0525016806EB04168D511178D2F875
:1011800001204FF4C47541EA0221026805EB041501
:101190005151006803EB0411425842F001024250E1
:1011A0000020F0BD416A41F4001141620120F0BD10
:1011B00010B590F820300268012B07D0022B05D023
:1011C000416A41F480214162012010BDD2F8000241
:1011D00040F00100C2F80002087D00F01F0301206A
:1011E0009840D2F81C328343C2F81C32CB69B3B9A1
:1011F000D2F80C328343C2F80C328C894B6864F30A
:101200001F434C6902EBC404C4F840320C890B68DC
:1012100064F31F434C6902EBC404C4F84432CB6945
:10122000012B16D1D2F80C320343C2F80C320C88D1
:101230004B6864F31F434C6902EBC404C4F84032AA
:101240000C89CB6864F31F434C6902EBC404C4F8F7
:1012500044328B69002BD2F804320FD053EA0003DA
:10126000C2F804320B69002BD2F8143208D00343C1
:10127000C2F81432096A012904D008E08343EFE779
:101280008343F5E7D2F81C120143C2F81C12D2F8CE
:10129000000220F00100C2F80002002010BD7047DB
:1012A00030B590F82040012C05D0022C03D0416AC3
:1012B00041F480215DE00468002955D02469A40729
:1012C00054D04FF4D874056804EB01142D5915F06F
:1012D0000405956005682D594ED0ED0855600568E8
:1012E0002C5904F00204D4604FF4DA74056804EB5E
:1012F00001142D5905F00F05156105682D59C5F329
:101300000725956105682C59240C54614FF4DC7253
:10131000046802EB0112A4581C700468A458240A43
:101320005C700468A458240C9C700468A258120EC7
:10133000DA704FF4DE72046802EB0112A4581C71DB
:101340000468A458240A5C710468A458240C9C7195
:101350000468A258120EDA71006881B1016941F087
:1013600020010161002030BDE468A8E7416A41F432
:1013700000114162012030BD6D0D1560AFE7C168FD
:1013800041F02001C160EDE72DE9F05F05460068FE
:1013900000244669D0F804908768D0F80CB0D0F8E3
:1013A00010A0D0F81880F10748D0F90714D0012117
:1013B0008160B80703D5284600F03BFA0CE07807B7
:1013C00002D54FF4006407E0380702D54FF480548B
:1013D00002E0284600F02CFAF80516D529684FF4EB
:1013E00080708860B80503D5284600F024FA0CE028
:1013F000780502D544F4005407E0380502D544F4DA
:10140000804402E0284600F015FAF80316D5296852
:101410004FF480308860B80303D5284600F00DFAF9
:101420000CE0780302D544F4004407E0380302D509
:1014300044F4803402E0284600F0FEF9300707D576
:101440005FEACB6004D52968102044F40074C860BA
:1014500070074FF0080707D55FEA0B7004D52868BE
:10146000C760284600F05AF9B00706D52868C0685A
:10147000800702D0284600F053F9700607D55FEACE
:10148000CA6004D52968102044F480640861B0065D
:1014900007D55FEA0A7004D528680761284600F07E
:1014A00097F9F00606D528680069800702D028461B
:1014B00000F08FF9B00308D55FEAC96005D5296847
:1014C00010204860284600F085F9F00307D55FEA50
:1014D000097004D528684760284600F0AFF9300449
:1014E00046D55FEA497040D5F00504D55FEAC8707B
:1014F00001D044F00104B00504D55FEA887001D53D
:1015000044F00204700504D55FEA487001D544F048
:101510000404300529D518F0700F26D008F07000AB
:10152000402815D006DC102809D020280AD0302801
:1015300016D10AE050280ED0602811D10EE044F0F8
:1015400008040DE044F010040AE044F0200407E031
:1015500044F0400404E044F0800401E044F480746A
:101560002868816921F07001816129680420486040
:10157000002C05D0686A204368622846FFF78FFE7A
:10158000BDE8F09F70B5040003D094F8200010B1BE
:1015900004E0012070BD204600F082F82068016858
:1015A00041F00101016000F019FB0546052604E049
:1015B00000F014FB401B0A2811D820684068C007BF
:1015C000F6D02068016821F00201016000F006FBFE
:1015D00005460BE000F002FB401B0A2806D9606AB2
:1015E00040F40030606284F82060D2E720684068F0
:1015F0008007EFD4207E0128206801683DD021F0CB
:1016000080010160607E01282068016838D021F0E7
:1016100040010160A07E01282068016833D021F0DC
:1016200020010160E07E0128206801682ED041F091
:1016300010010160207F01282068016829D021F075
:1016400008010160607F01282068016824D021F032
:1016500004010160D4E902010843D4E904121143F2
:1016600008436168491E08432168C8610020606220
:10167000012084F82000002070BD41F08001C0E707
:1016800041F04001C5E741F02001CAE721F0100117
:10169000CFE741F00801D4E741F00401D9E70000A9
:1016A00010B586B00021009101910291039100686C
:1016B000174988422AD11748C16941F00071C161B8
:1016C000C16901F000710491816941F004018161F7
:1016D0008069114C00F0040004904FF40060009009
:1016E0006946204600F078F9A0140090022001908D
:1016F000032003906946204600F06EF9002211464F
:10170000142000F0D7FA142000F0C6FA06B010BD7D
:1017100000640040001002400008014070470000D3
:101720001CB5002100916B46234A0191FFF7B8FDDB
:10173000002816D19DF8011068462B2916D19DF876
:101740000210E82902D0E2290CD00FE09DF8051024
:10175000E9290BD1194A0021435C5354491C08293B
:10176000FADB1CBD9DF80510E4290ED09DF8001091
:10177000922912D09C294FF0000116D0104A435CE8
:101780005354491C0829FADB1CBD0E4A0021435C56
:101790005354491C0829FADB1CBD0B4A0021435C49
:1017A0005354491C0829FADB1CBD084A435C5354B6
:1017B000491C0829FADB1CBDF00100202400002090
:1017C000080000202C00002010000020180000203D
:1017D000704770477047000070B5044690F82000CD
:1017E000012804D0606A40F40020606218E0022002
:1017F00084F820002068016821F00101016000F0F8
:10180000EDF905460EE000BF00F0E8F9401B0A289C
:1018100008D9606A40F400306062052084F8200036
:10182000012070BD20684068C007EDD1606270BDC6
:10183000704770477047704770477047704710B5E2
:1018400090F821100022022905D00421816380F83C
:101850002020012010BD01680B6823F00E030B60EF
:1018600001680B6823F001030B6090F84030C46BF3
:10187000012101FA03F3636080F8211080F8202031
:10188000104610BD2DE9F05F90F8211000240229C8
:1018900003D004218163012485E001680A6822F0F5
:1018A0000E020A6001680A6822F001020A603F4ED7
:1018B0003E4FB215DFF8F4C0DFF8F090DFF8ECA08F
:1018C000DFF8E8B0DFF8E4E00168783F13011502C3
:1018D000ACF1640CA9F15009AAF13C0AABF1280B58
:1018E000AEF1140E4FF48018B14227D9B9420ED090
:1018F000614512D049451DD0514518D0594518D0E1
:10190000714501D1424615E0294EB14201D1012273
:1019100010E0274E1436B14201D110220AE0244EC5
:101920002836B14206D0224A3C32914201D11A46B1
:1019300000E02A461E49091F0A602BE0B94213D075
:10194000614517D0494522D051451DD059451DD07C
:10195000714501D142461AE0B14202D14FF0807286
:1019600015E0134EB14201D1012210E0104E1436A1
:10197000B14201D110220AE00D4E2836B14206D004
:101980000B4A3C32914201D11A4600E02A460749EF
:1019900080394A60012180F82110002180F8201050
:1019A000416B01B188472046BDE8F09F80000240AE
:1019B0000804024070B5044600F010F90546601CAA
:1019C00002D004480078044400F008F9401BA0420B
:1019D000FAD370BD580100202DE9F84FDFF8C89107
:1019E000002409F1040A0AF1040B23460F270BF126
:1019F000040ED1E00125A54006EA0502AA4276D1EF
:101A0000DFF8A8C14E68A6EB0C0866452BD00DDCAC
:101A1000032E34D005DC36B3012E19D0022E2FD17F
:101A20001BE0112E16D0122E2AD119E0B8F5881F0E
:101A300019D006DCB8F5803F15D0B8F5801F1FD14E
:101A400011E0B8F5001F0ED0B8F5041F18D10AE058
:101A5000CB6815E0CB681B1D12E0CB6808330FE0A4
:101A6000CB680C330CE08B682BB1012B4FF00803D3
:101A700003D0456104E0042302E0056100E0002397
:101A8000FF2A01D8064601E000F104064FEA84056A
:101A900001D9A5F12005D6F8008007FA05FC28EA4F
:101AA0000C0803FA05F548EA0508C6F800804D68F9
:101AB000ED0070D53E4DAE6946F00106AE61AD69F0
:101AC00024F0030605F0010500953A4D06EB050CE0
:101AD000DCF80850A607360F07FA06F825EA0805CD
:101AE000DFF8D480404503D14FF0000825E052E0F4
:101AF000DFF8C880404502D14FF001081DE0DFF853
:101B0000C080404502D14FF0020816E0DFF8B480F3
:101B1000404502D14FF003080FE0DFF8AC804045AC
:101B200002D14FF0040808E0DFF8A080404502D160
:101B30004FF0050801E04FF0060808FA06F848EAF9
:101B40000508CCF808804D68D9F80060ED034D46D3
:101B500001D5164300E096432E604D68DAF8006028
:101B6000AD03554601D5164300E096432E604D68FF
:101B7000DBF80060ED025D4601D5164300E09643B8
:101B80002E604D68DEF80060AD02754601D5164343
:101B900000E096432E60641C0A681646E2407FF41B
:101BA00029AFBDE8F88F00000004014000001110CB
:101BB000001002400000014000080140000C0140FC
:101BC000001001400014014000180140001C0140B9
:101BD0000AB1016170470904FBE700000148806811
:101BE00070470000580100200248816802781144C3
:101BF0008160704758010020074810B5016841F026
:101C000010010160032000F075F8002000F006F8D4
:101C100000F024F8002010BD0020024070B50D4DEA
:101C200004464FF47A712878B1FBF0F00A4909684C
:101C3000B1FBF0F000F0CCFB48B9102C07D2002229
:101C40002146501E00F036F800206C6070BD012067
:101C500070BD000058010020640100200C4808B548
:101C6000816941F001018161816901F00101009107
:101C7000C16941F08051C161C06900F0805000909D
:101C80000448416821F0E06141F00071416008BD05
:101C90000010024000000140002809DB00F01F0294
:101CA000012191404009800000F1E020C0F80011BE
:101CB00070470000F0B40E4B1B680C46C3F30223C0
:101CC000C3F10705042D00D90425191D072901D2E8
:101CD000002300E0DB1E012606FA05F1491E214023
:101CE00099409E40761E16403143F0BC01F000BC86
:101CF0000CED00E0064900F0070208684FF6FF030C
:101D0000184040EA0220034A104308607047000070
:101D10000CED00E00000FA0510B52CA401461DCC26
:101D200086B08DE81D002DA02D4C00680490002089
:101D300004292FD00BDC01292FD0022928D100F053
:101D400071F96168C1F38131491C49001EE008291D
:101D500020D010291CD161682268D20118D5C1F3A6
:101D60008342C9031DF8020009D5616804AAC1F3C2
:101D70004041515C1B4AB2FBF1F1484301E01A4972
:101D800048436168490203D440000321B0FBF1F0ED
:101D900006B010BD00F056F9FAE7226AC2F301213D
:101DA000012903D1920701D5C803F1E7022905D122
:101DB000626A920702D549F64040E9E70329E7D174
:101DC00021688903E4D54FF22440E1E702030405CA
:101DD000060708090A0B0C0D0E0F10100102000077
:101DE0000010024000127A0000093D002DE9F8437E
:101DF00005460078354CC00754D0E0690026C00085
:101E000008D4E06940F08050E061E069012600F00C
:101E1000805000902E480168C90512D401688046A0
:101E200041F480710160FFF7D9FE074605E000BF6D
:101E3000FFF7D4FEC01B642823D8D8F80000C005E3
:101E4000F6D5206A10F4407021D0A98801F44071C1
:101E500081421CD0206A1F49012220F440700A6090
:101E600000220A602062C00711D0FFF7B7FE0746C4
:101E700041F2883808E000BFFFF7B0FEC11B4145C2
:101E800002D90320BDE8F883206A8007F4D5206AD0
:101E9000696820F44070084320621EB1E06920F0B8
:101EA0008050E0612878800705D56068A96820F433
:101EB0004040084360602878C00605D560686969BD
:101EC00020F48000084360600020DBE7001002403F
:101ED00000700040400442422DE9F0470F460500E3
:101EE00061D0434E306800F00700B84209D2306834
:101EF00020F0070038433060306800F00700B84237
:101F000051D128683B4C810712D5400703D5606842
:101F100040F4E06060602878000703D5606840F412
:101F2000605060606068A96820F0F000084360605D
:101F30002878C00728D06868012810D021680228B6
:101F400010D0890700292EDA616821F003010143CE
:101F50006160FFF743FE804641F288390DE0216859
:101F60008903EFE78901EDE7FFF738FEA0EB0801F1
:101F7000494502D90320BDE8F0876068696800F030
:101F80000C00B0EB810FEFD1306800F00700B842D1
:101F90000BD9306820F0070038433060306800F01B
:101FA0000700B84201D00120E5E72878400705D5B1
:101FB0006068E96820F4E060084360602878000702
:101FC00006D56068296920F4605040EAC10060606D
:101FD00000F038F86168084AC1F30311515CC84049
:101FE0000649086006480068FFF718FE0020C2E7AF
:101FF0000020024000100240E04E00086401002072
:102000005C0100200448054900684968044AC1F39E
:102010000221515CC840704764010020001002405A
:10202000F04E00080448054900684968044AC1F3B5
:10203000C221515CC840704764010020001002407A
:10204000F04E000812A185B00FC98DE80F0014A052
:10205000144A006804905168134801F00C03042BE3
:1020600010D0082B0ED1C1F38343C9031DF8030020
:102070000AD5516804AAC1F34041515C0A4A504351
:10208000B0FBF1F005B0704708494843FAE700009B
:1020900002030405060708090A0B0C0D0E0F1010A9
:1020A000010200000010024000127A0000093D0009
:1020B0002DE9F84F040070D02078C04DC00749D0FA
:1020C0006868C0F38100012807D06868C0F3810008
:1020D000022809D16868C00306D52868800339D56D
:1020E00060680028E7D035E06068B0F5803F0BD02D
:1020F00010B1B0F5A02F11D0286820F480302860EE
:10210000286820F4802002E0286840F480302860AD
:10211000606890B1FFF762FD06460AE0286840F467
:1021200080202860F0E700BFFFF758FD801B64287F
:1021300073D828688003F7D50CE0FFF74FFD0646FB
:1021400005E000BFFFF74AFD801B6428F0D828682F
:102150008003F7D420789A4E80074FF001094FF0A2
:10216000000839D5686810F00C0F07D06868C0F314
:102170008100022809D16868C00306D42868800756
:1021800014D52069012808D110E02069B0B1C6F843
:102190000090FFF723FD074605E00AE1FFF71EFD6B
:1021A000C01B0228C4D828688007F7D52868616951
:1021B00020F0F80040EAC10028600DE0C6F8008079
:1021C000FFF70CFD074604E0FFF708FDC01B0228DF
:1021D00023D828688007F7D4207800072CD57948C1
:1021E000A169D9B1C0F80090FFF7F8FC074604E0F8
:1021F000FFF7F4FCC01B02280FD8686A8007F7D5E8
:1022000071484FF4FA510068B0FBF1F0009000BF44
:102210000098411E0091FAD20EE080E0C0F80080E4
:10222000FFF7DCFC074604E0FFF7D8FCC01B0228E0
:1022300075D8686A8007F7D42078400760D5E869C8
:102240000027C00008D4E86940F08050E861E869E0
:10225000012700F0805000905C480168C90513D444
:102260000168834641F480710160FFF7B7FC824644
:1022700006E000BFFFF7B2FCA0EB0A0064284ED8CE
:10228000DBF80000C005F5D5E06801280AD008B1E8
:10229000052813D0286A20F001002862286A20F05F
:1022A000040002E0286A40F001002862E06841F280
:1022B000883B98B1FFF792FC82460BE0286A40F019
:1022C00004002862EEE700BFFFF788FCA0EB0A01DC
:1022D00059455AD8286A8007F6D50CE0FFF77EFCEE
:1022E000824605E0FFF77AFCA0EB0A0159454CD87D
:1022F000286A8007F6D41FB1E86920F08050E861B1
:10230000E06988B36968C1F38101022944D00228D9
:10231000C6F8608004D0FFF761FC044638E034E082
:10232000FFF75CFC074604E0FFF758FCC01B0228DF
:102330002BD828688001F7D4206AB0F5803F05D1FA
:102340006868A16820F4003008436860D4E9080197
:102350000843696821F4741108436860C6F8609006
:10236000FFF73CFC044606E025E000BFFFF736FC23
:10237000001B022809D828688001F7D51BE000BFA0
:10238000FFF72CFC001B022802D90320BDE8F88FC0
:1023900028688001F4D40EE00128F7D06868226A2A
:1023A00000F48031914204D1616A00F470108842D7
:1023B00001D00120EAE70020E8E700000010024019
:1023C000000042428004424264010020007000404C
:1023D00010B5401EB0F1807F01D3012010BD4FF039
:1023E000E02460610F21601701F082F80020A061F5
:1023F00007202061002010BD7047704770B590F82D
:102400003C20012A2CD0012480F83C40022280F894
:102410003D2003685A689D6822F070060A683243BE
:102420005A60104B02689A420ED00F4B9A420BD062
:10243000B2F1804F08D00D4B9A4205D00C4B9A4216
:1024400002D00C4B9A4204D1496825F0800319430D
:10245000916080F83D40002180F83C10084670BD36
:10246000022070BD002C01400034014000040040F7
:1024700000080040000C004010B5040003D094F8A0
:102480003D0010B107E0012010BD002084F83C00A1
:10249000204600F01FF8022084F83D00211D20682E
:1024A00000F070FE012084F8460084F83E0084F8B5
:1024B0003F0084F8400084F8410084F8420084F82A
:1024C000430084F8440084F8450084F83D0000206F
:1024D00010BD000008B501681048B1F1804F0BD065
:1024E0000F4A914207D1C16941F00201C161C0693F
:1024F00000F00200009008BDC16941F00101C16116
:10250000C069002200F00100009011461C20FFF776
:10251000D1FBBDE808401C20FFF7BEBB0010024005
:102520000004004090F83D10012901D001207047BF
:10253000022180F83D1000680E4988420ED00E49F5
:1025400088420BD0B0F1804F08D00C49884205D0AA
:102550000B49884202D00B49884204D1816801F0BE
:102560000701062903D0016841F001010160002044
:1025700070470000002C014000340140000400407E
:1025800000080040000C004090F83D10012901D0E7
:1025900001207047022180F83D100168CA6842F0AE
:1025A0000102CA6000680E4988420ED00D49884277
:1025B0000BD0B0F1804F08D00B49884205D00B49B1
:1025C000884202D00A49884204D1816801F007019B
:1025D000062903D0016841F0010101600020704725
:1025E000002C01400034014000040040000800407D
:1025F000000C004001680A6A41F211131A4207D127
:102600000A6A9B101A4203D10A6822F001020A608A
:10261000012180F83D10002070470168CA6822F04F
:102620000102CA6001680A6A41F211131A4207D115
:102630000A6A9B101A4203D10A6822F001020A605A
:10264000012180F83D100020704770B5044690F8D5
:102650003C00012817D0012584F83C50022084F862
:102660003D002068826822F0770222F47F42826077
:102670000868502830D00DDC20284DD005DC98B3F8
:1026800010283BD148E0022070BD302844D04028BB
:1026900034D139E0602828D0702806D0B0F5805FAA
:1026A0002CD0B0F5005F29D10AE0CB68D1E9012137
:1026B000206800F0ADFD2068816841F0770109E0F5
:1026C000CB68D1E90121206800F0A2FD2068816873
:1026D00041F48041816011E0CA684968206800F0D7
:1026E000A9FD5021206807E016E0CA684968206803
:1026F00000F0B1FD6021206800F094FD84F83D50A9
:10270000002084F83C0070BDCA684968206800F069
:1027100091FD40212068EFE7226801461046EBE773
:10272000704770B50446006801694FF00005C94361
:10273000890715D4C168C943890711D4E91E01610D
:1027400001202077206880698007204602D0FFF7AB
:10275000E7FF04E000F098F8204600F096F82577AF
:1027600020680169C943490717D4C168C9434907AB
:1027700013D46FF004010161022020772068806982
:1027800010F4407F204602D0FFF7CAFF04E000F0BB
:102790007BF8204600F079F8257720680169C94365
:1027A000090716D4C168C943090712D46FF008019C
:1027B0000161042020772068C0698007204602D08C
:1027C000FFF7AEFF04E000F05FF8204600F05DF890
:1027D000257720680169C943C90617D4C168C94370
:1027E000C90613D46FF0100101610820207720681A
:1027F000C06910F4407F204602D0FFF791FF04E04B
:1028000000F042F8204600F040F825772068016982
:10281000C943C90708D1C168C943C90704D1891E82
:102820000161204600F032F820680169C9430906B9
:1028300009D4C168C943090605D46FF0800101615C
:102840002046FFF7D9FD20680169C943490609D42C
:10285000C168C943490605D46FF0400101612046B3
:1028600000F016F820680169C94389060BD4C168D5
:10287000C943890607D46FF0200101612046BDE8F5
:102880007040FFF7BABD70BD7047704702F066B97F
:102890007047704770470000F8B50268044610683A
:1028A000D168536910F00F0F4FF0000554D003F0BA
:1028B000010601F4907737435FD0C20705D0CA05FF
:1028C00003D5226C42F001022264420705D5DA07E3
:1028D00003D0226C42F002022264820705D5DA0797
:1028E00003D0226C42F004022264020707D501F0F3
:1028F0002002324303D0226C42F008022264226C90
:10290000002A35D0800604D5880602D5204600F07E
:10291000D4FC20684069216CC0F3801001F00801EC
:102920000143204625D000F0B0FC206841694906EB
:102930001BD5416921F040014161A06BA8B1584904
:102940004163A06BFEF79EFF002811D0A06B416B86
:1029500001B0BDE8F040084783060ED58B060CD5C4
:102960002046BDE8F84000F0A8BC2046FFF792FFE3
:10297000F8BDFFF78FFF2564F8BD266B2023012EDD
:1029800052D1C60650D5CE064ED51068506800907C
:10299000506940062AD5A16B086840680004000C05
:1029A000EAD0A68D8642E7D9E0858869202818D02C
:1029B000D06820F48070D0602068416921F0010166
:1029C00041612068416921F04001416184F83E3055
:1029D00025632068C16821F01001C160A06BFEF77B
:1029E0002EFFA08DE18D401A81B219E0A08DE18DFE
:1029F000401A81B2E08D0028BED00029BCD0D0683A
:102A000020F49070D0602068426922F00102426197
:102A100084F83E3025632068C26822F01002C2604C
:102A20002046FFF736FFF8BD05062BD50D0629D544
:102A300094F83D002128F6D1A068B0F5805F01D15F
:102A40002069B0B1206A411C216221680078486089
:102A5000E08C401E0004000CE084E4D12068C168D2
:102A600021F08001C1602068C16841F04001C1606F
:102A7000F8BD206A0088C0F308005060206A801CFE
:102A80002062E5E74006F3D54806F1D5D168204637
:102A900021F04001D16084F83D3000F0F8F8F8BD35
:102AA0007B32000870B5040004D094F83D00002586
:102AB00010B106E0012070BD84F83C50204600F0C3
:102AC00023F8242084F83D002068C16821F40051D7
:102AD000C160204600F04CFC2068016921F490415F
:102AE00001612068416921F02A0141612068C168C3
:102AF00041F40051C1602564202084F83D0084F831
:102B00003E00002070BD000070B586B00024009427
:102B100001940294039403682B482A4E0221032255
:102B20000515B34229D1836943F4804383618369E6
:102B300003F480430493836943F004038361806951
:102B4000224E00F0040004900802CDE90001039237
:102B500069463046FEF740FFCDE9005469463046ED
:102B60000294FEF739FF002211462520FFF7A2F854
:102B70002520FFF791F806B070BD154EB342FAD18B
:102B8000C36943F48023C361C36903F480230493BE
:102B9000836943F0080383618069CDE9005100F047
:102BA0000800CDE903200B4D69462846FEF714FFC7
:102BB000E814CDE90004694628460294FEF70CFFAC
:102BC000D9E7000000380140001002400008014031
:102BD00000480040000C0140704700002DE9F84318
:102BE000044690F83D001F4616460D4620284CD15D
:102BF000C5B1BEB194F83C00012846D0012084F84C
:102C00003C004FF00008C4F84080212084F83D00CB
:102C1000FEF7E4FFA6848146E684A068B0F5805FF5
:102C200003D004E00120BDE8F883206928B12E46D6
:102C30005FF0000584F83C800EE00026FAE7802172
:102C4000204600F0F1FBA0B9AEB116F8010B2168E7
:102C50004860E08C401EE084E08C4B464FF0000260
:102C600000970028EBD14FF04001204600F0DCFB3C
:102C700030B10320D7E735F8020BC0F30800E6E7D0
:102C8000202084F83D000020CDE70220CBE77047EC
:102C9000FEE70000064B0246074819600021596014
:102CA000D960996008211961024B0149FEF71CBAED
:102CB000D801002020000020340200207CB5002133
:102CC0000546ADF80010E420CDE900010B46E222F4
:102CD000284601F04DFE1E4C20798DF80000E0786A
:102CE0008DF80100BDF8000000B2FDF7E0FC002205
:102CF000184BFDF748FCFDF770FDFDF75BFD024644
:102D00000B46294614A000F0CFFBE0798DF80000B7
:102D1000A0798DF80100BDF8000000B2FDF7C7FCF6
:102D20006FF00C02FDF79EFC0022144BFDF7B9FB7F
:102D3000FDF753FDFDF73EFD02460B46294610A068
:102D400000F0B2FBBDE87C400220FDF756BF00005A
:102D50002C000020000059404C696E65617241638F
:102D6000747561746F725F63757272656E742564D9
:102D70003A20252E3366410D0A0000000070A7405E
:102D80004C696E6561724163747561746F725F73D3
:102D90007065656425643A20252E336672706D0D6A
:102DA0000A0000007CB500240546E920CDE90004B6
:102DB0002346E8222146284601F0DAFD1149C87968
:102DC0008A7960F30704204662F30F200A79C978F4
:102DD00062F3174061F31F60FDF769FC00220A4BA4
:102DE000FDF7D1FBFDF7F9FCFDF7E4FC02460B46CD
:102DF000294606A000F058FBBDE87C400220FDF704
:102E0000FCBE0000240000200088A3404C696E65D1
:102E100061724163747561746F725F706F7369740E
:102E2000696F6E25643A20252E3366206D6D0D0A7C
:102E3000000000007CB516460A46054618491046B3
:102E4000FDF70CFA044617493046FDF707FA6FF014
:102E50000101FDF773FA1449FDF732FA0D21FDF770
:102E60006DFAFDF75BFC80B21D21CDE90010002258
:102E700001231146284602F007F82046FDF735FCED
:102E800081B2030C0520CDE9000150220021284623
:102E900001F0FAFFBDE87C400220FDF7AEBE000065
:102EA00000401C450000704200803B453EB50024B8
:102EB00011480094019402940E4984600160012538
:102EC0000573047505614FF460214460C161FDF72D
:102ED0003DFF08B1FDF7B4FE0820CDE900056946C5
:102EE00002940548FDF7AEFE002801D0FDF7A8FECC
:102EF0003EBD000000240140A80100200F4810B58D
:102F00000D4901600421416000214FF4403281608D
:102F1000C0E90312120142610176012242768276F3
:102F2000C17601774177FEF72DFB002803D0BDE87D
:102F30001040FDF785BE10BD006400403402002043
:102F400030B585B00024184800940194029403948D
:102F5000816941F040018161816901F04001049182
:102F6000816941F008018161816901F008010491E2
:102F7000816941F00401816180690C4D00F0040019
:102F80000490012220212846FEF722FE20200090F6
:102F90000120CDE901040220039069462846FEF78E
:102FA0001BFD05B030BD00000010024000180140BC
:102FB00010B586B00024174800940194029403943D
:102FC00004944FF080410594016041F61F41C0E92F
:102FD000011440F2F311C0E9031480218161FFF76D
:102FE0004BFA08B1FDF72CFE4FF480500090694673
:102FF0000848FFF72AFB08B1FDF722FE049404A954
:1030000004480594FFF7FAF9002801D0FDF718FEEF
:1030100006B010BD5C02002010B586B00024174831
:10302000009401940294039404941349059401605C
:103030004721C0E901144FF6FF71C0E90314846110
:10304000FFF71AFA08B1FDF7FBFD4FF4805000902E
:1030500069460A48FFF7F9FA08B1FDF7F1FD049453
:1030600004A906480594FFF7C9F9002801D0FDF727
:10307000E7FD06B010BD000000040040A4020020DF
:103080000C4810B50A4901604FF4E131416000215C
:1030900081600C22C160C0E904128161C161FFF747
:1030A00001FD002803D0BDE81040FDF7C9BD10BDEB
:1030B00000380140EC0200200C4810B50A490160BC
:1030C0004FF4E1314160002181600C22C160C0E910
:1030D00004128161C161FFF7E5FC002803D0BDE85F
:1030E0001040FDF7ADBD10BD00480040300300208A
:1030F000FEE7FEE770477047FEF776BD30B595B046
:1031000028216846FDF747F814210AA8FDF743F87F
:1031100018210FA8FDF73FF801210804CDE90010A0
:103120000025029502240491CDE907404FF4E010F8
:1031300009906846FEF7BCFF08B172B6FEE70AA91F
:103140000F2081E831004FF48060CDE90D050221A8
:103150000AA8FEF7C1FE08B172B6FEE74FF40040C0
:1031600011900F940FA8FEF741FE002801D072B60F
:10317000FEE715B030BD70470148FFF7D2BA000036
:103180005C020020F0B502681C4B1D4D1D4E1E4F09
:103190001E4C4FF0804C984209D0A04207D06045A9
:1031A00005D0A84203D0B04201D0B84204D122F0E9
:1031B000700E4A6842EA0E02984209D0A04207D037
:1031C000604505D0A84203D0B04201D0B84203D137
:1031D00022F44075CA682A434D6922F080022A43CE
:1031E00002608A68C2620A688262984201D0A04284
:1031F00001D10969016301214161F0BD002C014049
:103200000004004000080040000C00400034014071
:1032100010B5846842EA032224F47F440A4322431F
:10322000826010BD826822F070020A4342F00701FA
:103230008160704710B5036A046A24F001040462D7
:10324000846924F0F00444EA021423F00A020A43D9
:103250008461026210BD10B5036A23F0100303629B
:103260008369046A23F4704343EA023224F0A00322
:1032700043EA01118261016210BD10B5406A00216C
:10328000C185C184FFF706FB10BD0168CA6822F43E
:103290009072CA6001684A6922F001024A61016BBA
:1032A000012904D10168CA6822F01002CA602021F5
:1032B00080F83E1000210163704708B590F83E1079
:1032C000222901D0022008BD82684FF480539A421F
:1032D00001D1016921B1816A9A421BD04AB10AE049
:1032E0000268816A5268C2F308020A80816A891CF6
:1032F00008E0026972B10268526802F07F020A7047
:10330000816A491C8162C18D491E0904090CC1856D
:1033100003D019E002685268F1E70168CA6822F038
:103320002002CA600168CA6822F48072CA6001681B
:103330004A6922F001024A61202180F83E10016BA7
:10334000012903D0FFF748FC002008BD00210163DC
:103350000168CA6822F01002CA6001680A68D206D1
:1033600002D50A6849680091818DFFF792FAEBE770
:1033700070B5044600680169E26821F440511143C8
:1033800001612169A0680843616908432168CA682E
:1033900041F20C639A430243CA6020684169A26902
:1033A00021F44071114341611E492068884202D1D5
:1033B000FEF738FE01E0FEF725FE00EBC00101EB51
:1033C0000012606864218000B2FBF0F3B3FBF1F3FC
:1033D0006FF018067343B2FBF0F5B2FBF0F605EBA5
:1033E0008305322303EB0515B5FBF1F5B6FBF1F6CA
:1033F00005F0F00505EB0615B2FBF0F6B2FBF0F0B8
:10340000B0FBF1F06FF01802504306EB800003EBC5
:103410000010B0FBF1F0216800F00F002844886034
:1034200070BD0000003801402DE9F0419846174674
:103430000E460446069D1DE0681C1BD02DB1FEF70C
:10344000CDFBA0EB0800A84214D92068C16821F484
:10345000D071C1602068416921F0010141612020E3
:1034600084F83D0084F83E00002084F83C000320EE
:10347000BDE8F0812068006836EA000004D0002032
:10348000B842D9D00020F3E70120F9E70148FFF75F
:1034900003BA0000EC0200200148FDF775BF0000F0
:1034A00034020020FEE700000FB4054B10B503A95D
:1034B000044A029800F014FC10BC5DF814FB0000F4
:1034C0001D47000868010020490050EAC12018BFCC
:1034D00004204A0D18BF40F0010040F2FF72B2EB29
:1034E000515F08BF40F00200012808BF0520704767
:1034F0000907090E002804DB00F1E02080F8001421
:10350000704700F00F0000F1E02080F8141D7047B4
:103510002DE9F74F144694B00021C4E90211159922
:10352000079121F00045C9498D4206DC1599C4E98F
:10353000000117B00020BDE8F08FC549DFF814A3E3
:10354000A9423CDD0799C44E0029C44FC44A1599CD
:10355000534619DDFCF79FFF554506D0C14AC24BC3
:10356000FCF799FFC4E900010AE04FF0D352BE4BCB
:10357000FCF791FF32463B46FCF78DFFC4E90001A2
:1035800017B00120BDE8F08FFCF7E4FE554506D0EA
:10359000B44AB54BFCF7DEFEC4E900010AE04FF087
:1035A000D352B14BFCF7D6FE32463B46FCF7D2FE77
:1035B000C4E9000117B04FF0FF30BDE8F08FAB4910
:1035C000A942159978DB21F0004183468846A84A34
:1035D000A84BFCF766FF0022A74BFCF7BBFEFDF7EC
:1035E000B1F80990FDF763F806460F469C4A53462A
:1035F000FCF757FF43465A46FCF750FF80468A4681
:10360000984A994B30463946FCF74BFF2A0D012565
:103610000B9242465346FCF741FF032DC4E90001DB
:1036200039D00B98C1F30A51401A05EB45111139F5
:10363000814230DA9148C346784400EB0510CDF85A
:103640000CA00C90D0E9002330463946FCF729FF46
:1036500002460B460491069058460399FCF71BFF5F
:1036600080468A4602460B4658460399FCF713FFEC
:10367000049B069AFCF70FFF83460C98039139468A
:10368000D0E902233046FCF70CFF5A46039BFCF7B7
:1036900002FF6D1CBDE707980028A2BF099817B06C
:1036A000BDE8F08F616881F000416160099817B052
:1036B0004042BDE8F08FFFE784461598C1F313013F
:1036C000C0F30A50A0F2F5304FEA601800F01F0670
:1036D000C6F12000139000200690079041F4801E50
:1036E00005206D4676B1664A08EB00017A4452F82F
:1036F000213002EB8101B3404A68139922FA01F1AB
:10370000194305E05F4908EB0002794451F82210A3
:10371000A1FB0E27A1FB0C131A449A4234BF0123CC
:10372000002303EB070A05EB8003D3E901B70F443D
:103730008F4234BF0121002193448B4411B1934542
:1037400002D903E0934501D2012100E00021C3E941
:1037500001B7514445F82010011EA0F10100C1DC61
:103760000298059F00F10050800F12900298DDE949
:1037700003568000FCF79BFF834628460D91FCF71B
:10378000A7FF6FF01D02FCF76DFFCDE90E0130467B
:10379000FCF79EFF6FF03D02FCF764FF80468A460F
:1037A0003846FCF795FF6FF05D02FCF75BFF0746BC
:1037B000424653461191FCF7CDFDDDE90E23FCF79F
:1037C000C9FD5A460D9BFCF7C5FD00250E465A461D
:1037D00028460D9BFCF75FFEDDE90E23FCF75BFE40
:1037E00042465346FCF757FE3A46119BFCF756FEFD
:1037F000DFF898A0244A5346FCF753FE0746884654
:10380000234A244B31462846FCF74BFE3A464346B2
:10381000FCF7A0FD074688464FF0A84253463146C4
:103820002846FCF73EFE3A464346FCF793FD159AC0
:1038300012F0004F04D0129A81F0004152421292CD
:10384000C4E90001129817B0BDE8F08FFB21E93FF1
:103850007CD90240FB21F93F7370032E8A19A33BE8
:10386000000040543163621A61B4D03DFB213941FC
:1038700083C8C96D305FE43F0000E03FEC180000F2
:10388000681800004A180000182D4454FB21F93D27
:103890003326A611460B113C2DE9FF4D21F00048BF
:1038A00007460C46B8F1795F08DAFCF74BFF0028B1
:1038B00001BF0020324904B0BDE8F08D3A462346EE
:1038C00010461946FCF7EDFD054602462D480E460A
:1038D0000B460621784400F05DF82A463346FCF793
:1038E000E0FDDDE9022382468B4638462146FCF79F
:1038F000D8FD04460F4652465B4628463146FCF743
:10390000D0FD22463B46FCF7C6FD07468A464FF0EF
:10391000FF3228463146FCF7A5FE1B4A90450ADADD
:103920003A465346FCF7B7FD04B00022BDE8F04D1F
:10393000134BFCF7B3BD154A4245A8BFA8F50015C7
:103940004FF00004B8BF124D22462B46FCF7A3FDF2
:103950000646884622462B4600200949FCF79BFD77
:1039600004460D463A46534630464146FCF793FD21
:1039700004B022462B46BDE8F04DFCF78FBD000099
:103980000000F03F201600003333D33F0000E93F32
:103990000000D23F2DE9F0414F1E00EBC701044665
:1039A000D1E9000115461E4637F006020DD02A4621
:1039B0003346FCF776FD7F1E04EBC703D3E90023F3
:1039C000FCF7C8FC37F00602F1D1022F25D0042FF6
:1039D00013D0062F18BFBDE8F0812A463346FCF706
:1039E00060FDD4E90A23FCF7B5FC2A463346FCF710
:1039F00058FDD4E90823FCF7ADFC2A463346FCF712
:103A000050FDD4E90623FCF7A5FC2A463346FCF713
:103A100048FDD4E90423FCF79DFC2A463346FCF715
:103A200040FDD4E90223FCF795FC2A463346FCF717
:103A300038FDD4E90023BDE8F041FCF78BBC000061
:103A40002DE9FF4D054621F0004084B00C46B0F151
:103A5000795F0BDA2846FFF737FD042808BF00F02E
:103A60006FF8284608B02146BDE8F08D2A460B467F
:103A70001046FCF716FD06460F462A462346FCF77D
:103A800010FD804626488A4632463B46052178444A
:103A9000FFF780FF83461098029160B3214A224BC2
:103AA00040465146FCF7FDFCCDE900015A46404630
:103AB0005146029BFCF7F5FC82468846DDE906018B
:103AC0004FF0FF32FCF7CEFD52464346FCF7E3FCD5
:103AD00032463B46FCF7E5FCDDE90623FCF7DBFC60
:103AE000DDE90023FCF7D7FC08B02A462346BDE8F1
:103AF000F04DFCF7D3BC0B465A4630463946FCF72E
:103B0000D0FC084A084BFCF725FC42465346FCF71C
:103B1000C8FC08B02A462346BDE8F04DFCF71ABCA5
:103B20005E150000495555555555C5BF0122FCF796
:103B300099BD0022134610461146FCF724BD000033
:103B4000024A00201107FCF78DBD000001FDFFFFB8
:103B500002E008C8121F08C1002AFAD17047704756
:103B6000002001E001C1121F002AFBD170470000B4
:103B700001490860704700006C0100202DE9FF5FDB
:103B8000DDE90220010DDDF838B0024318D044F61B
:103B90001050A1F2FF3141430D140F98012820D09D
:103BA000A5EB0B00401C5FEA000A4FF00004474EF3
:103BB000DFF81C91A046504616D5CAF1000728E050
:103BC0000F98012443A2012808D0002100980F9BE0
:103BD000C0E90021C0E90243BDE8FF9F6FEA0B0185
:103BE000F4E7CBF10000DEE7074612E0F80707D064
:103BF0002246334640464946FCF753FC80468946F8
:103C00002246334610461946FCF74BFC04460E4646
:103C10007F10002FEAD1DDE90201BAF1000F424620
:103C20004B4602DAFCF73DFC01E0FCF7ACFC044635
:103C30000E460022284BFCF701FF03D84FF0FF305F
:103C4000014607E00022254B20463146FCF782FB67
:103C5000FCF7DBFE102409E0002C0ADB0A2200231B
:103C6000FCF7EDFD019B30321A55641E50EA01024B
:103C7000F2D1641C019AC4F1110314440F9A012A71
:103C800003D0012208430DD10AE0084304D00020EC
:103C90004FF0110B0F9080E7A3EB0B056D1E0DE0AD
:103CA0005B4504DD4FF0000205F1010504E003DA95
:103CB0004FF00002A5F10105002AECD000980F9901
:103CC000C0E90231C0E9004586E700000000244059
:103CD0000000F03F300000000000F0430000E03F33
:103CE0002DE9FF4F95B09B468946064600250FE219
:103CF000252877D100242746F84A0121059400E0C1
:103D0000044316F8013F203B01FA03F01042F7D1BB
:103D100030782A2811D06FF02F033078A0F13002CC
:103D2000092A16D8059A44F0020402EB820203EB3A
:103D300042021044761C0590EFE759F8042B0592D7
:103D4000002A03DA504244F40054059044F002047F
:103D5000761C30782E2816D116F8010F44F0040492
:103D60002A280DD06FF02F023078A0F13003092BF4
:103D700009D807EB870302EB4303C718761CF3E768
:103D800059F8047B761C30786C280FD006DC4C2860
:103D900017D068280DD06A2814D104E0742810D0F8
:103DA0007A280FD10DE044F400140AE044F48014A2
:103DB00001E044F440147278824202D104F5801488
:103DC000761C761C307866280BD013DC582877D008
:103DD00009DC002875D04528F6D04628F4D04728BD
:103DE0001AD19DE118E0632835D0642879D0652880
:103DF00012D195E1702873D008DC6728F1D06928CA
:103E00006FD06E280DD06F2806D1B5E073282CD066
:103E1000752875D0782874D05A46179990476D1C2C
:103E200075E1C4F30250022809D003280DD0D9F857
:103E3000001004280DD00D6009F1040967E1D9F8DC
:103E40000010EA17C1E90052F6E7D9F800100D801A
:103E5000F2E70D70F0E719F8041B8DF80010002050
:103E60008DF80100EA46012003E059F804AB4FF059
:103E7000FF3061074FF0000102D40DE008F10101AD
:103E80008846B9420FDA8045F8DB1AF80810002995
:103E9000F4D108E008F1010188468142FADB1AF802
:103EA00008100029F6D105985B46A0EB08072146CB
:103EB0003846179A00F094FA284400EB080507E00A
:103EC0004DE029E10DE01AF8010B5A461799904789
:103ED000B8F10108F7D25B4621463846179A13E13C
:103EE00042E00A220092C4F302524FF0000A022A72
:103EF00008D059F804CB032A4FEAEC710AD00DE040
:103F000029E02AE009F1070121F00702F2E802C1E5
:103F1000914609E00FFA8CFC4FEAEC71042A03D1B8
:103F20004FFA8CFC4FEAEC71002907DA0A460021AF
:103F3000DCF1000C61EB02012D2202E0220504D528
:103F40002B228DF80420012203E0E20701D0202279
:103F5000F7E7904659E00A2102E010220DE0102117
:103F60004FF0000A00910BE010224FF0000A44F0DD
:103F700004040827009203E008224FF0000A009290
:103F8000C4F30252022A05D059F804CB0021032AB7
:103F900008D009E009F1070121F00702F2E802C1A7
:103FA000914605E01FFA8CFC042A01D10CF0FF0CAD
:103FB0004FF00008220728D5702806D0009B83F018
:103FC000100353EA0A0305D00EE040228DF80420C6
:103FD000012208E05CEA010206D030228DF80420BC
:103FE0008DF8050002229046009B83F0080353EAF7
:103FF0000A030AD15CEA010201D1620705D5302229
:104000008DF804204FF001087F1E582804D034A0FA
:1040100003900EA802900DE036A0F9E753466046E3
:10402000009AFCF70CFC84460398825C0298401EC0
:10403000029002705CEA0100F0D1029806A9081A09
:1040400000F1200A600702D524F4803400E0012743
:10405000574502DDA7EB0A0000E0002000EB0A0153
:10406000009005984144401A0590E00306D45B4651
:104070002146179A059800F0B3F90544002706E099
:1040800001A85A46C05D179990476D1C7F1C474593
:10409000F6DBE0030CD55B462146179A059800F045
:1040A0009FF9054404E030205A46179990476D1C4B
:1040B0000099481E00900029F5DC08E0029802995A
:1040C0005A460078491C0291179990476D1CBAF125
:1040D0000001AAF1010AF1DC65E1000009280100F4
:1040E000303132333435363738396162636465666E
:1040F0000000000030313233343536373839414230
:10410000434445460000000000F058F90544761C81
:10411000307800287FF4ECAD19B02846BDE8F08F68
:10412000620700D4062709F1070222F0070CFCE819
:104130000223E14603F000485FEA080C02D00FF2C8
:10414000702C0DE05FEA045C02D50FF2682C07E0EA
:104150005FEAC47C02D00FF2602C01E0AFF2700C79
:104160004FF0FF3823F00043CDF850C065280CD045
:1041700006DC452809D046281DD047283DD13DE022
:10418000662818D067287ED138E00021112F01DB86
:10419000112000E0781CCDE9000106A90EA8FFF768
:1041A000EDFCDDE90F010E9A03910021009207F169
:1041B000010A04914DE04FF000400097CDE9011055
:1041C00006A90EA8FFF7DAFCDDE90F0203920E9BA9
:1041D00011990022DDF80CA00093049211B9791C0A
:1041E00000EB010AB7EB0A0004D4C0F1FF3007F17D
:1041F000010A0490AAEB0700019044E0012F00DAC5
:1042000001270021112F01DD112000E03846CDE902
:10421000000106A90EA8FFF7B1FCDDE90F010E9A17
:104220000391002104910092BA4621070CD403990E
:10423000514500DA8A46BAF1010F05DD009AAAF16C
:104240000101515C302908D0B84202DA10F1040FA4
:1042500006DA0121CDE9011015E0AAF10101E9E733
:10426000002805DC049901440491AAEB000102E056
:10427000411C514500DD8A460499401A401C0190BA
:104280004FF000400290200704D40198504501DB14
:10429000CDF8048000208DF84F0002980DF14F07F3
:1042A000B0F1004F25D02B200E9002984FF002085D
:1042B00000280CDA404202902D200E9007E00A21DF
:1042C0000298FCF7A6FA3031029007F8011DB8F108
:1042D0000001A8F10108F2DC02980028EFD1791E54
:1042E0000E980870307800F0200040F0450007F884
:1042F000020D12A8C01B00F107081498007800B145
:10430000012000EB0A01019801EBE071059841449E
:10431000401A401E0590E00306D45B462146179ADA
:10432000059800F05DF805441498007818B15A46D5
:10433000179990476D1CE00324D55B462146179AD8
:10434000059800F04DF805441CE00498002807DBB0
:10435000DDE90301884203DD0098405C179901E024
:10436000179930205A469047049805F10105401CE2
:1043700004900198401E019004D12E205A461799AE
:1043800090476D1CBAF10001AAF1010ADDDC05E0DD
:1043900017F8010B5A46179990476D1CB8F10001A8
:1043A000A8F10108F4DC5B462146179A0598ABE6B4
:1043B0002D0000002B000000200000002DE9F0413E
:1043C000044600251E461746880404D405E03946F5
:1043D0002020B0476D1C641EF9D52846BDE8F08149
:1043E0002DE9F041044600251E469046C80301D53C
:1043F000302700E02027880404D505E041463846F0
:10440000B0476D1C641EF9D52846BDE8F081000058
:104410002DE9FF47804639A09146D0E90020CDE93B
:104420000020A8F10202374F374E384D052A45D2F9
:10443000DFE802F02F1B2F1B03000846FCF7BAF938
:104440000022334BFCF72DF8FCF77CF90446484674
:10445000FCF764F980B2FCF73BF900222D4B2AE00F
:10446000FCF770F9ADF80C002BE00846FCF7A2F958
:1044700000223B46FCF715F8FCF764F90446484671
:10448000FCF74CF980B2FCF723F90322FCF7EAF8B9
:10449000E6E70846FCF78EF900223346FCF701F800
:1044A000FCF750F904464846FCF738F980B2FCF7AF
:1044B0000FF900222B46FBF7F4FFD1E716A0FEF719
:1044C000F3FF9DF80C008DF802009DF80D008DF8AB
:1044D00003008DF80440200A8DF80500200C8DF8AB
:1044E0000600200E8DF807004146684600F01AF8D5
:1044F0000220FCF782FBBDE8FF870000A40000005B
:1045000000000000000089400020AC400000424054
:1045100000408F40000024406964206572726F7211
:104520000A000000074B01F5A07102461960002146
:104530005960D960996008211961034B014903480A
:10454000FCF7D2BDD801002000000020340200207A
:1045500000B5244B21F0004287B09A42DCBF002214
:10456000134629DD204B9A4208D140B94FF0010093
:10457000FFF7FEFAFFF7DDFA07B000BD03DBFFF738
:10458000D5FA07B000BD02AAFEF7C2FF10F0030182
:1045900004BF0DF1080C9CE80F000DD0012001298B
:1045A0000ED0022914D00DF1080C00909CE80F00E9
:1045B000FFF746FA07B000BDFFF76EF907B000BD80
:1045C0000DF1080C00909CE80F00FFF739FA05E0A8
:1045D0000DF1080C9CE80F00FFF75EF907B081F0C1
:1045E000004100BDFB21E93F0000F07F2DE9F14FC4
:1045F000464D84B0287840064FEA1068E868FCF71A
:10460000D9F80122FCF72EF8414A424BFBF749FF4B
:10461000FCF7E3F80124286170E000BF08F1010114
:10462000621E5143CFB2394907EB0802143101EB46
:10463000820101254A68384941F8242059E028467A
:10464000FCF727F800903169FBF708FE0499FBF7A7
:1046500005FEFCF7AFF8FFF77BFF81468A4600981E
:104660003169FBF7FBFD8346284A07EB450014320E
:104670000290594652F82000FBF722FEFCF79AF808
:104680004A465346FBF70DFF81468A465846049931
:10469000FBF7E4FDFCF78EF800F05CFB834601912C
:1046A00000983169FBF7DAFD0146184A0298143286
:1046B00002EB800050F8040CFBF702FEFCF77AF8DE
:1046C0005A46019BFBF7EDFE4A465346FBF7E3FED5
:1046D000DFF844A0064689465AF82400FCF76AF839
:1046E00032464B46FBF736FEFCF777F84AF82400D3
:1046F0006D1C064E30788542A1DD641C034841786C
:104700008C428BDD05B0BDE8F08F00003400002046
:104710006F1283C0CA2109407001002013B54FF603
:10472000FF73012269460248FEF758FA00981CBD43
:10473000EC02002070B5FDF75FFAFEF7DFFCFEF734
:10474000FFFBFEF7DBFBFEF79BFCFEF7AFFBFEF784
:104750002FFCFEF761FCFEF7AFFCFCF723FA00F03C
:1047600077FB0224E0B200F0ADF8641C062CF9DD02
:1047700000F040FB012415E0012C13D0E0B200F062
:104780008DF9E0B200F020F9641C062CF4DD3E48FF
:10479000FDF7FAFE3DA0FEF787FE3F4D4FF4C876C9
:1047A00001241CE00120FEF7FDFA0120FEF786FA45
:1047B00000F09AF8E5E7012C11D0E0B200F06EF9B4
:1047C000E0B200F001F9641C062CF4DD2868B04268
:1047D000E6D94FF4FA70FDF7EDF8304D1BE00120FB
:1047E000FEF7E0FA0120FEF769FA00F07DF8E7E74E
:1047F000012C10D0042C15D0052C1AD0062C1DD05D
:10480000E0B22A460021FFF703FE641C062CEFDD10
:10481000012501242EE001202A460021FEF70AFB93
:104820000224E5E704202A460021FFF7F1FD0524D4
:10483000DEE705202A460021FFF7EAFD06202A468A
:104840000021FFF7E5FDE3E7012C13D0E0B200F013
:1048500025F9E0B200F0B8F8641C062CF4DD642001
:10486000FDF7A8F86D1C282DD3DB0DA0FEF71CFE6C
:10487000002070BD0120FEF795FA0120FEF71EFA18
:1048800000F032F8E5E700005C020020737461720A
:10489000742121210A000000380000200000F041AE
:1048A0006578636974696E67207472616A206578DF
:1048B000706572696D656E7420656E642121210AD0
:1048C000000000001CB506A2D2E90012CDE90012DA
:1048D00001466846FFF726FE0220FCF78EF91CBD54
:1048E000880000000000000010B51548FCF78AFBA6
:1048F0000A211348FCF7E8FA1148FCF721FA114C99
:10490000800505D50E48FCF71DFAFBF7CBFE2060AD
:104910000B48FCF717FAFBF7C5FE2060FBF74AFFD0
:104920004FF06632084BFBF7BCFD6FF00B02FBF754
:1049300099FE0246BDE810400B4604A0FEF7B4BD48
:10494000A80100205401002066660A40204C696ED0
:104950006561724163747561746F725F50726573E3
:1049600073757265203D20252E336656200D0A0092
:104970003FB513A583B0D5E900450A9BCDE90045B5
:104980008DF800108DF805309DF818108DF8041082
:104990008DF802209DF819108DF803109DF82C1049
:1049A0008DF807109DF82D108DF806100146684609
:1049B000FEF770F90220FCF720F907B030BD0000C7
:1049C000002A0000000000002DE9FF4124A1054657
:1049D000D1E90001CDE90201294602A8FFF7A2FDB5
:1049E0000120FCF70AF9204900206A460B185B7881
:1049F0001354401C0728F9DBA81E1C4E1C4F052829
:104A00001CD2DFE800F0150F150F03000098FBF72C
:104A10004EFE184B002200BFFBF7B5FDFBF7DDFE95
:104A200004460EE00098FBF742FE00223346F3E70F
:104A30000098FBF73CFE00223B46EDE70EA0FEF798
:104A400033FD2046FBF7B6FE02460B4629460DA075
:104A5000FEF72AFD0220FCF7D0F8BDE8FF81000038
:104A600092000000000000001000002000008940BB
:104A70000020AC4000408F406964206572726F7204
:104A80000A0000006D6F746F725F616E676C652560
:104A9000643A20252E336664750D0A003EB51EA1CA
:104AA0000546D1E90001CDE9000129466846FFF736
:104AB00039FD0220FCF7A1F8194CA0788DF8080008
:104AC000E0788DF80900BDF8080000B2FBF7EFFDB3
:104AD0006FF00A02FBF7C6FD0022124BFBF7E1FC68
:104AE000FBF77BFEFBF766FE02460B4629460EA04F
:104AF000FEF7DAFC20798DF8080060798DF809005E
:104B0000BDF80800294602B20EA0FEF7CDFC022037
:104B1000FCF773F83EBD00009C00000000000000A0
:104B200018000020008040406D6F746F725F6375E5
:104B30007272656E7425643A20252E3366410D0A23
:104B4000000000006D6F746F725F7370656564259F
:104B5000643A2025646470730D0A00002DE9F84F53
:104B6000734E7068FBF79EFDB168FBF777FBFFF7AC
:104B70003DFD714CDFF8BCB14FF07E5804F11C05CF
:104B80004FF06639DFF8B4A13AE0012F38D0042F96
:104B900051D0052F78D0062F75D054F82700FBF799
:104BA00009FE674A674BFBF7EEFC0022664BFBF7FA
:104BB00078FCFBF712FE44F82700009055F8271008
:104BC000FBF746FBB168FBF77BFB20F00042424558
:104BD00000DA4246F8B20099FFF71AFC54F82700B1
:104BE00045F827007F1C062FCFDD7068401C7060E1
:104BF000B0F5C87F7DD9BDE8F84F5448FDF70DBD2D
:104C00006068FBF7D7FD4A465346FBF744FCFBF7C9
:104C1000E4FD606007466968FBF71AFBB168FBF7C3
:104C20004FFB20F0004201203946FEF703F960688F
:104C300002276860A9E72069FBF7BCFD404A414BA9
:104C4000FBF7A1FC0022404BFBF72BFC00225B464C
:104C5000FBF780FBFBF7C1FD206107462969FBF7E5
:104C6000F7FAB168FBF72CFB20F00042424500DA6E
:104C7000424687F000410420FFF7CAFB2069052760
:104C8000286182E700E023E06069FBF793FD2C4A8E
:104C90002C4BFBF778FC00222B4BFBF702FC00228D
:104CA0005B46FBF7F8FBFBF798FD60610746696917
:104CB000FBF7CEFAB168FBF703FB20F00042424558
:104CC00000DA424605203946FFF7A2FB61696961B7
:104CD000A969A06989460746FBF7BAFA1C4920F082
:104CE0000040884281DB3846FBF764FD144A154BCF
:104CF00000E01BE0FBF747FC0022134BFBF7D1FB66
:104D0000FBF76BFD07464946A061FBF7A1FAB168C6
:104D1000FBF7D6FA20F00042424500DA4246062070
:104D20003946FFF775FBA069A8615EE7BDE8F88F1B
:104D300034000020008056407001002066D65740A5
:104D40006F1283C0CA210940008066405C020020C7
:104D5000CDCC4C3D00B5254B21F0004287B09A42A6
:104D600003DC0022134600922BE0214B9A4208D12B
:104D700040B94FF00100FEF7FBFEFEF7DAFE07B088
:104D800000BD03DBFEF7D2FE07B000BD02AAFEF7AE
:104D9000BFFB10F003014FF001000DD0012914D02A
:104DA00002291AD00DF1080C9CE80F00FEF774FDE3
:104DB00007B081F0004100BD0DF1080C00909CE8A7
:104DC0000F00FEF73DFE07B000BD0DF1080C9CE89A
:104DD0000F00FEF761FD07B000BD0DF1080C00905B
:104DE0009CE80F00FEF72CFEE2E70000FB21E93F04
:104DF0000000F07F70B5154D06E0012C04D0042CA6
:104E000009D0052C0ED013E001202A460021FEF720
:104E100011F80224F1E704202A460021FFF7F8FAEE
:104E20000524EAE705202A460021FFF7F1FA0624C7
:104E3000E0B22A460021FFF7EBFA641C062CDCDD09
:104E4000BDE8704041F28830FBF7D7BE0000F0416A
:104E500070B50B4DE868FBF7ADFC04460E46A8683C
:104E6000FBF7A8FC02460B4600200649FBF78BFB2C
:104E700022463346FBF787FBFBF783FCA87070BD27
:104E8000340000200000F03F3FB513A583B0D5E902
:104E900000450A9BCDE900458DF800108DF80530DE
:104EA0009DF818108DF804108DF802209DF8191047
:104EB0008DF803109DF82C108DF807109DF82D101B
:104EC0008DF8061001466846FDF7E4FE0220FBF768
:104ED00094FE07B030BD0000001A00000000000082
:104EE000000000000000000001020304060708099A
:104EF00000000000010203044C5555555555A53FCF
:104F00007751C1166CC156BF9015CB19A001FA3E5E
:104F1000AD529C804F7E92BEC4B1B4BD9EEE213E88
:104F2000D43888BEE9FAA8BD00004054FB21F93FFF
:104F30003163621A61B4D03D0000601A61B4D03DA3
:104F40007370032E8A19A33B0000002E8A19A33B1D
:104F5000C14920259A837B39000000000000000031
:104F60006E83F9A22915444ED15727FCC0DD34F5D4
:104F7000999562DB4190433CAB6351FE61C5BBDE5A
:104F80003A6E24B7E0D24D42EA2E49061C92D1096E
:104F90001CEB1DFE3EA729B1F53582E88444BB2EEB
:104FA00026709CE9417E5FB439D69139F439538338
:104FB0008B5F849C3B28F9BDFF97F81F0F9805DE97
:104FC0008B112FEF1F6D0A5ACF7E366DB709CB2795
:104FD000663F464F2DEA5F9EC7BA27757BF1E5EB2A
:104FE000F739073DEA92528AB15FFB6B085D8D1F6E
:104FF000A6F810111111813FD561C119A0012ABF76
:105000007DFEB157E31DC73EEB9C2B8AE6E55ABEF9
:105010007CD5CF5A3AD9E53D385000080000002031
:1050200070010000900A000858510008700100202B
:1050300008060000603B0008013573050699CDCCD9
:105040004C3DCDCC4C3D2975AB073EE9B7573F10E1
:10505000FF1D1EBF151D21BF9B55973FC807053F6C
:1050600070CE80BFB8013FBE5B429E3EBA81A2BDFA
:1050700019C4C24292E825BE6F11183D289B123E0A
:1050800052F41BBC962605BE56B7FABDD5CFDB3D04
:10509000C7BA383DFE282A3D96400A3D7FF8F93CC4
:1050A00027A5803D137E09BEE3A9473D1E89973C95
:1050B0008A20CEBC1688BE3DD218AD3E4DDAB4BDB6
:1050C0007155D9BE3C6A0C3D6C04B2BE47AC453D3F
:1050D0006C96CBBB2E8D5F3DEC51883E9127293ECF
:1050E000DF32E7BD2D6002BEAA0F243D481610BE78
:1050F00025798EBDA245A6BFEF72313EF7E9383D56
:105100004AB50FBEF98642BCE5B3BC3EA6F2F6BD79
:1051100009A7853C2861A63ED0EDD5BE6F8144BE6F
:10512000F31FDA3F8A023DBE3717BF3D9BC957BE0A
:105130009D9F22BDD28C65BE327296BD1170383FE4
:1051400092050C3E9ACECEBD7D778BBD55A46252A2
:085150003E42019210A324F479
:0400000508000131BD
:00000001FF
