:020000040800F2
:10000000D806002045010008892E0008D52B0008DD
:10001000852E00080D090008852F0008000000004B
:10002000000000000000000000000000912E000809
:1000300071090008000000008D2E0008952E0008B0
:100040005F0100085F0100085F0100085F01000810
:100050005F0100085F0100085F0100085F01000800
:100060005F0100085F0100085F0100085F010008F0
:100070005F0100085F0100085F0100085F010008E0
:100080005F0100085F0100085F0100085F010008D0
:10009000792F00085F0100085F0100085F01000878
:1000A0005F0100085F0100085F0100085F010008B0
:1000B0009D2E00085F0100085F0100085F01000835
:1000C0005F0100085F0100085F0100085F01000890
:1000D0005F0100086D2F00085F0100085F01000844
:1000E0005F0100085F0100085F0100085F01000870
:1000F0005F0100085F0100085F0100085F01000860
:100100005F0100085F0100085F0100085F0100084F
:100110005F0100085F0100085F0100085F0100083F
:100120005F0100085F0100085F0100085F0100082F
:10013000DFF80CD000F0B4FB00480047853200081F
:10014000D80600200648804706480047FEE7FEE73D
:10015000FEE7FEE7FEE7FEE7FEE7FEE7FEE7FEE777
:10016000992E000831010008F0B480EA0102D40F92
:100170004200B2EB410F02D20246084611464A0045
:1001800042D0C30DDDB2C1F3C752AD1A202D35DA0E
:10019000C1F3160141F4000204B15242C5F1200638
:1001A00002FA06F12A411044B3EBD05F23D0C4B168
:1001B000012DA0EBC35009DCF0BC4FF0004202EA75
:1001C000C352DBB200F5000000F0DEBA400000F1DF
:1001D000807000EBC350A0F1807040EAD1704900FC
:1001E00009E0490841EAC071A0EBC35000F50000E6
:1001F000400800EBC350F0BC00F0BDBA61420122E0
:1002000002EB4101001BF6E7F0BC704781F00041B2
:10021000AAE780F00040A7E780EA010210B502F0EB
:100220000043400022D04A001FD0010E01EB1261B2
:10023000C0F35600C2F3560240F4000042F400023C
:10024000A0FB022000047F39140400D0401C50EAB7
:10025000124001D44000491EC2B20C0604EBD0107B
:10026000401C4008802A02D003E0002010BD20F08E
:100270000100002900DA0020184310BD30B480EAE4
:10028000010202F0004530F0004221F0004013D09E
:1002900090B1C30DD40DC2F31601C0F31600E41AD9
:1002A00041F4000140F400027D34914201D3641C0A
:1002B00000E04900002C02DA30BC002070474FF407
:1002C00000000023914201D3891A034340084FEAFA
:1002D0004101F7D151B1914202D14FF0004105E007
:1002E00002D24FF0010101E06FF0010103EBC450B5
:1002F000284430BC00F03FBA2DE9FE4F804681EA29
:100300000300C00F0C46009021F0004123F000458F
:10031000B8EB0200A94105D24046214690461C4652
:100320000B46024623F00040104347D0270DC7F389
:100330000A00C3F30A510290401A019040286BDA78
:10034000C3F3130040F4801B0098924620B10023B1
:10035000D2EB030A63EB0B0B01985946C0F1400244
:10036000504600F0D7F906460D4650465946019AC8
:1003700000F0EFF910EB08006141002487EA115208
:1003800084EAE7731A4340D0009A62B3019A012AC3
:100390004FEA075215DC001B61EB02014FF00042EF
:1003A00002EA0752CDE90042001C41F580113246B5
:1003B0002B4600F026FA03B0BDE8F08F40462146F8
:1003C000F9E7001B61EB0201001C41F580130018E6
:1003D0005B412018A2F5001747EB030140EAD570F6
:1003E000B6196D4111E06D084FEA360645EAC07551
:1003F0004FEA0752001B61EB0201001C41F580111E
:1004000049084FEA30000019514132462B4603B0EB
:10041000BDE8F04F00F0E6B900980122400000234B
:10042000D0EB020263EBE073009821464FEAE074E0
:10043000B8EB000061EB0401E9E783F000435BE700
:1004400081F0004158E72DE9FE4F81EA030404F0F2
:10045000004421F0004100944FF0000B23F00043D2
:1004600050EA01045ED052EA03045BD0C3F30A549D
:10047000C1F30A552C44A4F2F3340194A0FB0254B6
:10048000C1F3130141F48011C3F3130343F4801348
:1004900001FB024400FB034E840A970A44EA81549C
:1004A00047EA8357A4FB076802958D0A05FB078579
:1004B0004FEA932C04FB0C542705029D4FEA065883
:1004C00047EA1637B5EB08056EEB070C870E920E60
:1004D00047EA811742EA8312A7FB0201B6EB0B0140
:1004E00064EB00042B0D43EA0C335E1844EB1C5004
:1004F000DA465146E7FB0201C5F313044FEA0B331A
:1005000043EA14534FEA0432019C43EA0603A4F180
:100510000C040294009CCDE900B400F072F903B021
:10052000BDE8F08F00200146F9E72DE9F04D81EAA2
:10053000030404F0004B21F0004514464FF0000A7C
:1005400023F0004150EA050220D054EA01021DD0F8
:10055000C5F30A570246C5F31303C1F31300C1F3F1
:100560000A5640F4801543F48013A7EB0608101BCD
:10057000D64608F2FD3873EB050002D308F10108F6
:1005800001E092185B41B8F1000F03DA0020014648
:10059000BDE8F08D00204FF48011064684460EE041
:1005A000171B73EB050705D3121B63EB050306430B
:1005B0004CEA010C49084FEA300092185B4150EABE
:1005C0000107EDD152EA030012D082EA040083EA67
:1005D0000501084305D0101BAB4106D201220023C0
:1005E00006E000224FF0004302E06FF001025310DA
:1005F0001AEB06004CEB085110EB0A0041EB0B0123
:10060000BDE8F04D00F0EEB8C10F80EAE07008449C
:10061000CA079623002100F0B7B89623002211469E
:1006200000F0B2B80EB5C10F80EAE0700844CA0706
:10063000002140F233438DE80E000A460B4600F0DD
:10064000E0F803B000BD00F0004220F00040C10D12
:10065000C0F3160040F400007F2901DA0020704743
:10066000962903DCC1F19601C84001E09639884023
:10067000002AF4D04042704770B5C1F30A5201F02D
:1006800000450024C1F3130140F2FF3341F480110F
:100690009A4201DA002070BD40F233439A42A2F23E
:1006A000334203DC524200F044F800E090402C4317
:1006B000F1D0404270BD00F0004230F000400AD05E
:1006C000C10D01F56071C0F3160042EA0151C20884
:1006D00040071143704700200146704701F0004376
:1006E00030B421F0004150EA010206D00A0DA2F513
:1006F0006072C1F31301002A02DC30BC0020704795
:10070000440F44EAC104C100E01830BC00EBC25001
:1007100000F031B8202A04DB203A00FA02F1002070
:1007200070479140C2F1200320FA03F3194390402F
:100730007047202A04DB203A21FA02F0002170479A
:1007400021FA02F3D040C2F1200291400843194639
:100750007047202A06DBCB17203A41FA02F043EA21
:10076000E07306E041FA02F3D040C2F1200291406A
:100770000843194670470029A8BF7047401C49002C
:1007800008BF20F00100704710B4B0FA80FC00FAF6
:100790000CF050EA010404BF10BC704749B1CCF121
:1007A000200421FA04F411FA0CF118BF01212143AD
:1007B0000843A3EB0C01CB1D4FEA00614FEA102068
:1007C00042BF002010BC704700EBC350104400290A
:1007D000A4BF10BC7047401C490008BF20F00100B6
:1007E00010BC704710B5141E73F1000408DA401CE9
:1007F00041F1000192185B411A4301D120F0010040
:1008000010BD2DE9F04D92469B4611B1B1FA81F22F
:1008100002E0B0FA80F220329046FFF77BFF0446F8
:100820000F4640EA0A0041EA0B0153465A46084384
:1008300013D0114653EA010019D0C8F140025046C6
:10084000FFF777FF05460E46504659464246FFF7EA
:1008500061FF084305D0012004E020463946BDE889
:10086000F08D0020054346EAE0762C4337430A9892
:100870006305E40AA0EB08000022FD0A44EA47549D
:100880000A3002D500200146E9E701051019694147
:10089000DDE9084500196941BDE8F04DA2E7000017
:1008A000064C074D06E0E06840F0010394E80700BD
:1008B00098471034AC42F6D3FFF73EFCFC3E0008EC
:1008C0001C3F000870B521F0004303430CD0C1F376
:1008D0000A550024D5EB040564EB0403D617AD1AC2
:1008E000B34102DB0020014670BD201841EB0251EC
:1008F00070BD0EB540F2334102910021CDE90011E7
:100900000A460B46FFF77DFF03B000BDFEE700007F
:1009100080B540F26C10C2F2000001210022C0E953
:100920001111014641F8282FC0E90B22C0E90D2220
:10093000C0E90F2200F04EFA002818BF00F01AF8A4
:1009400040F26C10C2F2000000F086FD002818BFD3
:1009500000F010F840F26C10C2F20000022100F02A
:10096000C3F9002808BF80BDBDE8804000F002B890
:1009700070470000EFF3108072B600BFFEE7000082
:1009800010B581B00022009290F82420012A03D1F2
:100990000221084601B010BD4B680122062B80F8E9
:1009A000242015D8026803EB8303A3F1050E1F234F
:1009B000D2F834C003FA0EF40B682CEA040C03FAE4
:1009C0000EF444EA0C045463092B17D937E000BF36
:1009D00002680C2B20D803EB8303A3F123041F230D
:1009E000D2F830C003FA04FE0B682CEA0E0C03FAAE
:1009F00004F444EA0C041463092B20D8D2F810C084
:100A000003EB4303072489689C402CEA04049940C3
:100A100021431161002136E003EB8303A3F141047C
:100A20001F23D2F82CC003FA04FE0B682CEA0E0C2C
:100A300003FA04F444EA0C04D462092BDED903EB74
:100A40004304D2F80CC0A4F11E0E0724896804FAEE
:100A50000EF42CEA040401FA0EF1214323F0010400
:100A6000102CD1600ED142F20841C4F20101A1F173
:100A70000804A2420ED0816A41F020018162012166
:100A800001E000BF0021002280F82420084601B0C8
:100A900010BD00BF0A68120230D40A68102B42F45D
:100AA00000020A602CD140F23801C2F2000109684C
:100AB0004DF68362C4F21B32A1FB0212910C01EBD2
:100AC0008101490000910099E1B10099013900913B
:100AD0000099C9B10099013900910099B1B100990B
:100AE00001390091009999B100990139009100995B
:100AF00000294FF00001E8D1C5E700BF0021C2E79F
:100B00000021C0E70021BEE70021BCE70021BAE7D1
:100B10000021B8E7B0B5002800F0B2800446806A32
:100B200020B121688868C0070BD114E00020E06282
:100B300084F82400204600F0A5F821688868C007E2
:100B400009D0886820F00100886000F095FE2168D7
:100B50008A68D20730D1A06AC00644D4A06A41F2A4
:100B6000021290430230A062E36981F0804080F479
:100B70009E3083F44022104308BF4FF40023D4E991
:100B8000010243EA000C531EB3FA83F35D091346D6
:100B9000B2F5807F18BF2B02207D257B01284CEA0F
:100BA000450030D135B3A56A45F02005A562E56A58
:100BB00045F00105E56226E0054602E08868C007C9
:100BC000C9D000F059FE401B21680328F6D388687D
:100BD000C007F3D0A06A40F01000A062E06A40F0C5
:100BE0000100E062A06AA06A40F01000A06201204B
:100BF000B0BD00BFD4F818C04EF60005CFF6FF75A3
:100C000005EB4C352B434D68B2F5807F25F46945E3
:100C100043EA05034B608B684FF2FD75CFF6E17533
:100C200003EA050343EA00038B6001D0012A07D1E0
:100C300022690023CFF6F07303EB025201E000BFFC
:100C40000022CB6A23F470031A43CA62896840F613
:100C5000FE62CFF61F721140814207D10020E06290
:100C6000A16A012262F30101A162B0BDA06A40F055
:100C7000100020F00200A062E06A40F00100E06293
:100C80000120B0BD80B586B0014640F60040C4F2F8
:100C90000100096800F5C05291424FF00001CDE912
:100CA000041101D006B080BD41F21801C4F2020166
:100CB0000A6842F400720A600A6802F40072019243
:100CC000019A0A6842F008020A60096801F0080106
:100CD00001910199012102910321039102A900F0E0
:100CE000C3FC06B080BD000090F82020013A012A24
:100CF00008D8006800F1140200201368194311603D
:100D0000704700BF00F1240201204FF480211368D6
:100D1000194311607047000010B590F820E0D0F83A
:100D200000C0AEF1010EBEF1010FDCF808E011D8F1
:100D30001EF0E05F18D0CEF3016EBEF1030F1DD19F
:100D400000F1240101204FF400020B681A430A60ED
:100D500010BD00BF00F1240101204FF480220B6878
:100D60001A430A6010BD00BF00F1240101204FF4B6
:100D700000120B681A430A6010BD00BF012000FA80
:100D80000EF01860886818B14B6840EAC30001E0B3
:100D900008684005D1E9033403430CEB0E10C0F89A
:100DA0008031C0F88441097D012905D100F5C27167
:100DB0000B6843F480730B605168C0F88C111268A3
:100DC00000F5C071C0F88821002001220B681A4389
:100DD0000A6010BDB0B5026890F82030013B012BCD
:100DE00028D8D2F80002012340F00100C2F8000226
:100DF000D1F814E0CC690EF01F0003FA00F0D2F82D
:100E00001C326FEA000C8343012CC2F81C3217D04D
:100E10006CBBD2F80C3203EA0C03C2F80C32CB687C
:100E20008C8844EA034302EBCE04C4F840320B46FC
:100E300015E000BF416A41F4802141620120B0BD4C
:100E4000D2F80C320343C2F80C320B688C8844EAA7
:100E5000034302EBCE04C4F8403201F10C038C686A
:100E60001B8843EA044302EBCE04C4F84432D2F8B0
:100E700004328D6943EA0004D1F810E0096A002DBC
:100E800008BF03EA0C04C2F80442D2F81432BEF1DF
:100E9000000F43EA000408BF03EA0C040129C2F86A
:100EA000144204D1D2F81C120843C2F81C02D2F832
:100EB000000220F00100C2F800020020B0BD0000D6
:100EC0007047000010B590F82040013C012C71D80B
:100ED000D0F800C0002977D0DCF81040A40777D004
:100EE0000CEB011CDCF8B0410CF5D87E14F00404C6
:100EF0009460DCF8B04119BFE4085460640D1460DC
:100F0000DEF80040002904F00204D460DCF8B441AB
:100F100004F00F041461DCF8B441C4F307249461B5
:100F2000DCF8B4414FEA14445461DCF8B8211A707B
:100F3000026802EB0112D2F8B8214FEA12225A706D
:100F4000026802EB0112D2F8B8214FEA12429A70FD
:100F5000026802EB0112D2F8B8214FEA1262DA708D
:100F6000026802EB0112D2F8BC211A71026802EB8E
:100F70000112D2F8BC214FEA12225A71026802EB28
:100F80000112D2F8BC214FEA12429A71026802EBB8
:100F90000112D2F8BC214FEA1262DA71006814BF64
:100FA00000F1100100F10C01002020220B681A430F
:100FB0000A6010BD00F1240101204FF480220B686B
:100FC0001A430A6010BD00BFDCF80C40A40787D1AB
:100FD00000F1240101204FF400120B681A430A604B
:100FE00010BD00002DE9F04F81B00446006846694D
:100FF000D0F804908768D0F80CB0D0F810A0D0F8E2
:101000001880F10704D1002530071DD424E000BF6B
:10101000F90710D00121BA07816009D4780700F1DF
:10102000AF80380700F1B680204600F043FA02E0B6
:10103000204600F041FA0025F80500F18780F8030A
:1010400000F1B180300707D51BF0100004D02068F4
:1010500045F400751021C160700708D51BF0080029
:1010600005D020680821C160204600F0ABF9B00728
:1010700006D52068C068800702D0204600F0A4F999
:10108000700607D51AF0100004D0206845F480657A
:1010900010210161B00608D51AF0080005D02068BB
:1010A00008210161204600F0D1F9F00606D520683C
:1010B0000069800702D0204600F0CAF9B00308D5C5
:1010C00019F0100005D0206810214160204600F082
:1010D000C1F9F00308D519F0080005D020680821EF
:1010E0004160204600F0F2F9300440F19B805FEA55
:1010F000497040F1948006F4807008EA102028437B
:101100005FEA8871014648BF41F00201B20558BF4D
:1011100001465FEA48700D4648BF45F0040570057A
:1011200058BF0D46300540F17A8018F0700000F08D
:1011300076801038000905286CD8DFE800F00359E4
:101140005D61656945F0080564E000BF20684FF403
:101150008071BA0581600BD4780515D438051DD48B
:10116000204600F0ABF9F8037FF56CAF1BE000BF41
:10117000204600F0A5F9F8037FF564AF13E000BF47
:101180004FF4006558E700BF05F50055F8037FF5FB
:1011900059AF08E04FF480554EE700BF05F5804594
:1011A000F8037FF54FAF20684FF48031BA038160B8
:1011B0000AD4780310D4380314D4204600F082F9FE
:1011C00030073FF541AF47E7204600F07DF9300793
:1011D0003FF53AAF40E700BF05F5004530073FF562
:1011E00033AF39E705F5803530073FF52DAF33E7ED
:1011F00045F010050EE000BF45F020050AE000BFF5
:1012000045F0400506E000BF45F0800502E000BF64
:1012100045F480752068816921F070018161206842
:101220000421416055B1606A40EA050120466162CF
:1012300001B0BDE8F04FFFF743BE00BF01B0BDE80D
:10124000F08F0000B0B5C8B1044690F8200010B986
:10125000204600F071F82068016841F0010101604A
:1012600000F00AFB054600BF20684168C90707D1A6
:1012700000F002FB401B0B28F6D312E00120B0BDAA
:10128000016821F00201016000F0F6FA054600BF96
:101290002068416889070DD500F0EEFA401B0B2845
:1012A000F6D3606A052140F400306062012084F8C2
:1012B0002010B0BD217E0268012922F0800208BF03
:1012C00080320260617E0268012922F0400208BF7C
:1012D00040320260A17E0268012922F0200208BF8C
:1012E00020320260E17E0268012922F0100218BF5C
:1012F00010320260217F0268012922F0080208BF33
:1013000008320260617F0268012922F0040208BFEE
:1013100004320260D4E901C2D4E9033561691A4399
:101320002A431143ACF101021143C16100200121A4
:10133000606284F82010B0BDB0B586B040F60004FD
:10134000C4F201040068A4F52442002190420591F2
:1013500002D006B0B0BD00BF41F21800C4F20200D6
:10136000426802AD42F000724260426802F00072D0
:101370000192019A026842F004020260006800F0E3
:101380000400019001984FF40060CDE9020104913E
:101390002046294600F068F94FF480500290022060
:1013A0000390032005902046294600F05DF91420A3
:1013B0000221002200F0DEFA142000F0CBFA06B081
:1013C000B0BD00007047000080B582B0002140F23F
:1013D000E012CDE90011C2F200026B460021FFF7D6
:1013E00071FD08B102B080BD9DF801209DF802108A
:1013F0009DF805002B2A08BFE8290FD0DDE9003C45
:101400002B2A08BFE22915D040F25010C2F200008A
:101410000360C0F804C002B080BD00BFE928EDD170
:10142000DDE9000140F25C12C2F20002516010607E
:1014300002B080BDE428E7D140F26410C2F200009F
:101440000360C0F804C002B080BD00007047000017
:101450007047000070470000B0B5044690F82000C7
:1014600001281DD1022084F820002068016821F0A5
:101470000101016000F000FA054600BF20684068E5
:10148000C00713D000F0F8F9401B0B28F6D3606AB0
:1014900040F400306062052084F820000120B0BDD7
:1014A000606A40F4002060620120B0BD00206062EC
:1014B000B0BD00007047000070470000704700009A
:1014C0007047000070470000704700007047000040
:1014D000014690F82100022816D10868D1E90FC30F
:1014E000026822F00E020260026822F0010202602D
:1014F000012000FA03F2CCF8042081F8210000203A
:10150000002281F8202070470420886301200022F7
:1015100081F820207047000080B590F82110022942
:1015200028D1026840F2040C1368C4F2020C23F0C4
:101530000E03136013680CF17C018A4223F0010151
:1015400011601BD940F20841C4F202018A4249D01D
:1015500040F21C41C4F202018A4247D040F23041BD
:10156000C4F202018A4245D14FF48073CCF80034B2
:101570005DE000BF04218163012080BD4321C4F2EE
:1015800002018A420EDD6B21C4F202018A421BDC99
:101590004421C4F202018A423CD05821C4F2020123
:1015A0008A4233E00821C4F202018A4236D01C216B
:1015B000C4F202018A4237D03021C4F202018A42C9
:1015C00024D14FF4807230E06C21C4F202018A42CF
:1015D00026D08021C4F202018A4217D14FF08072D6
:1015E00023E000BF0123CCF8003420E01023CCF826
:1015F00000341CE00CF588614FF480338A4208BF48
:101600004FF48053CCF8003411E000BF4FF4803227
:101610000BE000BF4FF4805207E000BF012204E05E
:101620004FF4801201E000BF1022CCF80020416B83
:101630004FF48072028401B18847002080BD000011
:10164000B0B5044600F018F9054640F23000C2F289
:1016500000000078611C18BF044400BF00F00CF9C2
:10166000401BA042FAD3B0BD2DE9F04F83B041F644
:101670000043C4F201030E6806229842019008BF9D
:101680000522002E009200F0ED80019840F20C45FA
:10169000A0F18043A3F584334FEAB32740F2004022
:1016A0004FF6FF73C4F20105C4F20100009A4FF037
:1016B000000E4FF0010CC1F210034FF0000A4FF082
:1016C000000B4FF00F08052F38BF3A46009208E094
:1016D0000E680AF1010A36FA0AF20EF1040E00F061
:1016E000C1800CFA0AF916EA090FF1D04E689E4241
:1016F00012DC122E56D8DFE806F0350B4549555559
:1017000055555555555555555555554D510000BFD5
:10171000D1F80CB046E000BF4FF6FF72C1F22102D3
:1017200096420FDC0022C1F2110296421AD000222A
:10173000C1F21202964215D00022C1F22102964255
:1017400010D02FE00022C1F2220296420AD00022DD
:10175000C1F23102964205D00022C1F23202964215
:1017600020D100BF8E684EB1012E019A14BFC2F87D
:101770001490C2F810904FF0080B13E04FF0040BD8
:1017800010E000BFCF6807F1080B0BE04FF0000B33
:1017900008E000BFCF6807F1040B03E0CF6807F152
:1017A0000C0B00BF7446BAF1080F28BF203C019F04
:1017B00028BF04373E6808FA04F226EA02020BFA50
:1017C00004F632433A60CA79D2067FF581AF41F21E
:1017D0001807C4F202073A684FF6084C42F00102BB
:1017E0003A603A68CFF6FF7C02F001020292029A58
:1017F0002AF00302024452F80C700EF00C0608FAAC
:1018000006F4A743009C04FA06F6374342F80C702E
:10181000D1F804C05FEACC32026854BF22EA09065C
:1018200042EA09065FEA8C320660426854BF22EA47
:10183000090642EA09065FEACC224660826854BF84
:1018400022EA090642EA09065FEA8C2286604FF026
:10185000010C2A6854BF22EA090642EA09062E60F2
:1018600036E700BF03B0BDE8F08F0000002A08BFD4
:10187000090401617047000040F2D420C2F2000068
:101880000068704740F2300040F2D421C2F20000FC
:10189000C2F2000100780A68104408607047000036
:1018A00080B542F20000C4F20200016841F010016C
:1018B0000160032000F08AF8012000F005F800F034
:1018C00027F8002080BD000070B540F23006C2F25B
:1018D000000640F238013278C2F200014FF47A7308
:1018E0000968B3FBF2F20446B1FBF2F1084600F0DE
:1018F000E5FB0F2C4FF0010508D838B94FF0FF3049
:1019000021460022002500F035F87460284670BD9D
:1019100082B041F21800C4F202000168022241F0D4
:1019200001010160016801F0010101910199416823
:1019300041F080514160406800F080500090009874
:101940000420C4F20100016862F31A61016002B070
:1019500070470000002848BF704700F01F010122B7
:1019600002FA01F14EF200124009CEF2000242F8F2
:101970002010704710B54EF60C5CCEF2000CDCF86F
:101980000030C3F3022E8EF00704042C28BF042479
:10199000BEF103034FF0FF3E0EFA04F438BF0023FC
:1019A000A14399400EFA03F39A43114300F00F024A
:1019B000043A624409010C3200F16043B0F1FF3F88
:1019C000C8BF03F56442117010BD00004EF60C5103
:1019D000CEF200010A684FF6FF031A4060F30A22B4
:1019E00042F0806040F0FD70086070472DE9F041E2
:1019F00082B00446007841F21C06C007C4F2020619
:101A00004AD0306810F0805808D1306840F08050DB
:101A10003060306800F080500190019847F2000774
:101A2000C4F200073868C00512D4386840F48070EA
:101A30003860FFF721FF05463868C00508D4FFF776
:101A40001BFF401B6428F7D9032002B0BDE8F081DA
:101A5000706810F4407012D0616801F440718842DF
:101A60000DD0706840F24042C4F24222012320F4BB
:101A7000407113600023C007136071602AD1706841
:101A8000616820F440700843B8F1000F706003D122
:101A9000306820F0805030602068810707D556F804
:101AA000181CA26821F44041114346F8181CC006D6
:101AB00004D4002002B0BDE8F08100BF56F8180C35
:101AC000616920F48000084346F8180C002002B039
:101AD000BDE8F081FFF7D0FE054641F2883700BF30
:101AE00070688007CBD4FFF7C7FE401BB8424FF0A9
:101AF0000300F5D9EBE700002DE9F04381B00028A1
:101B000000F0858042F20008C4F202080446D8F8CA
:101B100000000D4600F0070088420CD2D8F8000003
:101B200020F007002843C8F80000D8F8000000F0B3
:101B30000700A8426BD1206841F204098107C4F272
:101B4000020917D5410705D5D9F8001041F4E06125
:101B5000C9F80010010705D5D9F8001041F460510B
:101B6000C9F80010D9F80010A26821F0F001114363
:101B7000C9F80010C00741D1D8F8000000F00700F4
:101B8000A8420CD9D8F8000020F007002843C8F874
:101B90000000D8F8000000F00700A84237D1206804
:101BA000410707D5D9F80010E26821F4E06111433C
:101BB000C9F80010000708D5D9F80000216920F401
:101BC000605040EAC100C9F80000D9F8002002F0D6
:101BD0000C00082841F20020C0F27A0050D143F6F0
:101BE000E263C2F38341C0F60003595CD2033BD4E5
:101BF00040F60010C0F23D00484341E06068022812
:101C00000AD001282AD159F8041C890308D40120DC
:101C100001B0BDE8F08300BF59F8041C8901F6D576
:101C2000D9F8001021F003010843C9F80000FFF7BC
:101C300023FE064641F28837D9F80000616800F0BB
:101C40000C00B0EB810F97D0FFF716FE801BB84257
:101C5000F2D9032001B0BDE8F08300BF59F8041C9D
:101C60008907D4D5DCE700BFD9F8002043F6C86364
:101C7000C2F34042C0F600039A5C4843B0FBF2F066
:101C8000D9F8001043F6CA62C1F30311C0F600028E
:101C9000515C40F2380220FA01F140F23400C2F205
:101CA00000000068C2F200021160FFF70DFE002084
:101CB00001B0BDE8F083000040F2380041F20401B9
:101CC000C2F20000C4F202010068096843F6DA6259
:101CD000C1F30221C0F60002515CC8407047000009
:101CE00040F2380041F20401C2F20000C4F20201E5
:101CF0000068096843F6DA62C1F3C221C0F6000247
:101D0000515CC840704700002DE9F04182B00028C6
:101D100068D00446007841F20006C007C4F202060B
:101D200025D0706800F00C0004281BD0706800F00B
:101D30000C00082802D17068C00313D46068002822
:101D400000F06881B0F5A02F00F07C81B0F5803FF5
:101D500000F07C81306820F480303060306820F4FE
:101D6000802076E13068800301D56068D0B32078A8
:101D7000800718D5706810F00C0F07D0706800F05D
:101D80000C0008286ED17068C0036BD430688007DF
:101D900002D52069012825D13068616920F0F8005A
:101DA00040EAC1003060207800071FD42078400747
:101DB00032D4E56995B1706800F00C00082840F055
:101DC0008F80012D0ED07068216A00F480328A4223
:101DD00008D1616A00F47010884203D1002002B07B
:101DE000BDE8F081012002B0BDE8F081A0690028C3
:101DF00062D00020C4F242200121C0F88014FFF715
:101E00003BFD0546706A800700F18C80FFF734FDCA
:101E1000401B0228F6D92AE1F06910F0805808D159
:101E2000F06940F08050F061F06900F0805000905F
:101E3000009847F20007C4F200073868C00529D4AB
:101E4000386840F480703860FFF716FD054600BF23
:101E50003868C0051ED4FFF70FFD401B6428F7D972
:101E600005E100BF2069002840F20000C4F24220D2
:101E700000F0828001210160FFF7FEFC054600BFF3
:101E8000306880073FF588AFFFF7F6FC401B02285B
:101E9000F6D9ECE0E068002800F08080052800F02A
:101EA0009780012800F09880306A20F001003062AD
:101EB000306A20F0040092E00020C4F242200021A9
:101EC000C0F88014FFF7D8FC054600BF706A800791
:101ED0007FF56CAFFFF7D0FC401B0228F6D9C6E0B7
:101EE0000027C4F2422700203866FFF7C5FC022D08
:101EF00005460BD13068800140F1BE80FFF7BCFC85
:101F0000401B02284FF00300F4D968E730688001D5
:101F10007FF564AFFFF7B0FC401B02284FF00300D1
:101F2000F4D95CE740F23800C2F20000006844F6E1
:101F3000D351C1F26201A0FB0101480A019000BF28
:101F400000BF0198411E002801913FF42FAF00BF50
:101F50000198411E002801913FF428AF00BF01986D
:101F6000411E002801913FF421AF00BF0198411E9E
:101F700000280191E4D119E700210160FFF77CFC02
:101F8000054600BF306880077FF50DAFFFF774FC92
:101F9000401B02284FF00300F4D920E7306A20F0FC
:101FA00001003062306A20F004003062FFF764FC08
:101FB000054641F2883700BF306A800720D5FFF719
:101FC0005BFC401BB8424FF00300F5D907E700BFA8
:101FD000306A40F004003062306A40F00100306244
:101FE000FFF74AFC054641F2883700BF306A800798
:101FF00006D4FFF741FC401BB842F7D937E000BFD9
:10200000B8F1000F7FF4D5AEF06920F08050F06198
:10201000CFE600BF306820F480303060306820F4B4
:1020200080203060FFF728FC054600BF3068800341
:102030007FF59DAEFFF720FC401B64284FF00300A6
:10204000F4D9CCE6306840F480203060306840F449
:1020500080303060FFF710FC054600BF3068800319
:102060003FF585AEFFF708FC401B6428F6D9032036
:1020700002B0BDE8F08100BF206AB0F5803F05D115
:102080007168A26821F40031114371607168626A5D
:1020900021F4741110430843706001203866FFF783
:1020A000EBFB0446306880013FF598AEFFF7E4FB98
:1020B000001B02284FF00300F4D990E6411E0020D7
:1020C000B0EB116F1CBF012070474EF21002CEF230
:1020D000000251604EF62351CEF20001F0230B7046
:1020E0000721906011607047704700007047000042
:1020F00010B590F83C20012A4FF002023FD080F842
:102100003D200268D2F804E0D2F808C00C682EF036
:102110007003234340F6FF34C4F20004A24253602C
:1021200010DCB2F1804F1FD040F20043C4F2000334
:102130009A4219D040F60003C4F200039A4213D029
:1021400017E000BF40F60043C4F200039A420BD0F0
:1021500043F20043C4F201039A4205D042F6004321
:10216000C4F201039A4204D149682CF08003194358
:1021700091600121002280F83D1080F83C2010463B
:1021800010BD0000002804BF0120704710B50446B0
:1021900090F83D0028B9002084F83C00204600F06B
:1021A00085F8022084F83D00206840F6FF3302687D
:1021B000C4F2000343F2004C9842C4F2010C21DC4B
:1021C000B0F1804F2CD040F20041C4F200018842AF
:1021D00026D040F60001C4F20001884220D0984287
:1021E00024DCB0F1804F2FD040F20041C4F2000156
:1021F000884229D040F60001C4F20001884223D071
:1022000026E000BF40F60041C4F20001884207D03A
:10221000604505D042F60041C4F201018842DED19A
:10222000A16822F070020A439842DADD40F60041CC
:10223000C4F20001884207D0604505D042F6004153
:10224000C4F20101884203D1216922F440720A4399
:10225000A36922F08001D4F804E0E26819436045E4
:102260000160C262C0F828E005D042F60041C4F225
:102270000101884201D161690163012141610020AE
:1022800084F8461084F83E1084F83F1084F840101B
:1022900084F8411084F8421084F8431084F8441004
:1022A00084F8451084F83D1010BD000080B582B060
:1022B0000068B0F1804F1CBF02B080BD41F21C002D
:1022C000C4F202000168002241F0010101600068CF
:1022D000022100F00100019001981C20FFF74AFB49
:1022E0001C2002B0BDE88040FFF734BB0146006807
:1022F00041F21113C26822F00102C260026A1A425E
:1023000004D00122002081F83D207047026A40F28B
:1023100044431A42F5D1026822F001020260012210
:10232000002081F83D20704780B590F83C20012ABC
:102330004FF0020200F0BF8080F83D20D0F800C0CE
:102340004FF67772DCF8083023EA0202CCF8082056
:102350000B683F2B1CDD5F2B20DD602B50D0B3F5CD
:10236000005F6DD0702B40F0A080D1E901E3C96817
:10237000DCF8082043EA0E0322F47F4243EA0121FD
:102380001143CCF80810DCF8081041F077018AE01E
:102390001F2B29DC63B3102B2AD086E0402B63D09F
:1023A000502B40F08280D1F804E0C968DCF820307E
:1023B000DCF8202022F00102CCF82020DCF81820E4
:1023C00022F0F00242EA011123F00A0242EA0E0270
:1023D000CCF81810CCF82020DCF8081041F0570198
:1023E00021F020015FE000BF202B01D0302B5CD119
:1023F000DCF8081021F07001194341F0070152E0A8
:10240000D1F804E0C968DCF8203023F01003CCF8E0
:102410002030DCF81830DCF8202023F4704322F060
:10242000A00243EA013142EA0E12CCF81810CCF8AF
:102430002020DCF8081041F0670121F0100132E0A3
:10244000D1E901E3C968DCF8082043EA0E0322F46D
:102450007F4243EA01211143CCF80810DCF8081050
:1024600041F480411FE000BFD1F804E0C968DCF806
:102470002030DCF8202022F00102CCF82020DCF80B
:10248000182022F0F00242EA011123F00A0242EA87
:102490000E02CCF81810CCF82020DCF8081041F01F
:1024A000470121F03001CCF808100121002280F80A
:1024B0003D1080F83C20104680BD000070470000B1
:1024C00010B5016804460869800744BFC8685FEA20
:1024D000807039D40869400744BFC8685FEA40701B
:1024E0003ED40869000744BFC8685FEA007045D45D
:1024F0000869C00644BFC8685FEAC0604AD408697A
:10250000C0071CBFC8685FEAC07051D108690006E7
:1025100044BFC8685FEA006052D40869400644BFFF
:10252000C8685FEA406053D40869800646BFC8683F
:102530005FEA806010BD6FF0200220460A61BDE8AE
:102540001040FFF7D3BD00BF6FF00200086101200B
:1025500020778869800743D02046FFF7AFFF45E02A
:102560006FF00400086102202077886910F4407F32
:1025700040D02046FFF7A2FF42E000BF6FF0080006
:10258000086104202077C86980073DD02046FFF706
:1025900095FF3FE06FF01000086108202077C869C0
:1025A00010F4407F3AD02046FFF788FF3CE000BFA0
:1025B0006FF001000861204600F03EF82168A5E7B1
:1025C0006FF0800008612046FFF78EFD2168A4E7C8
:1025D0006FF040000861204600F030F82168A3E762
:1025E000204600F025F8204600F024F8216800205D
:1025F00020776FE7204600F01BF8204600F01AF81D
:102600002168002020776CE7204600F011F8204672
:1026100000F010F821680020207769E7204600F0DC
:1026200007F8204600F006F821680020207766E7CA
:10263000704700007047000000F07ABE704700004D
:102640007047000070470000B0B582B002680546D0
:102650001068D368546900F02F01202903F020018D
:1026600006D129B1284602B0BDE8B04000F022BC36
:102670005FEA007C1EBF04F0010E03F4907414EBBB
:102680000E0455D1296B012905D110F0100118BF96
:1026900013F0100136D1010622D513F080011FD0AE
:1026A00095F83D00212841D1A868B0F5805F03D19D
:1026B0002869002800F0F680286A411C2962007809
:1026C0005060E88C01380104E8842FD1D06820F0F4
:1026D0008000D060D06840F04000D06002B0B0BD53
:1026E000400623D513F0400020D0D068202120F0F0
:1026F0004000D060284685F83D1002B0BDE8B040EB
:1027000000F066BA002001901068019050680190B6
:1027100001985069400613D4A88DE98DEB8D002BEC
:102720001CBF401A5FEA004140F0A48002B0B0BD77
:10273000C40718BF13F480732CD1430730D436E09C
:10274000A86B01684B689CB2002CEFD0A98D8C421D
:10275000ECD2EB858369202B17D0D16821F48071EE
:10276000D160516921F001015161516921F04001AD
:102770005161202185F83E1000212963D16821F0A4
:102780001001D160FEF7A4FEA98DE88D081A81B270
:10279000284682E02B6C43F001032B64430706D5E7
:1027A000BEF1000F03D02B6C43F002032B648307B0
:1027B00006D5BEF1000F03D02B6C43F004032B644D
:1027C000BCF1000F06D551EA0E0303D02B6C43F089
:1027D00008032B642B6C002BA8D010F0200018BF2E
:1027E000002903D0284600F065FB2A685069296C4F
:1027F00000F0400001F0080140182DD0D06820F40E
:102800009070D060506920F001005061286B012861
:1028100003D1D06820F01000D060202085F83E0061
:1028200000202863506940061ED5506920F0400002
:102830005061A86BC0B142F6A961C0F600014163C6
:10284000FEF76AFE00283FF471AFA86B416B02B03F
:10285000BDE8B040084700BF2846FFF7F3FE002060
:10286000286402B0B0BD00BF284602B0BDE8B04049
:10287000FFF7E8BED16821F49071D160516921F071
:1028800001015161202185F83E1000212963D168A2
:1028900021F0100381B22846D36002B0BDE8B040F9
:1028A000FFF7CEBE286A30F8021B6FF35F2151603C
:1028B000286206E7002804BF0120704710B50446CF
:1028C00090F83D0028B9002084F83C00204600F034
:1028D0005FF8242084F83D002068D4E90212C36820
:1028E00023F40053C360036923F440531A43026185
:1028F000D4E904231143C268194341F20C639A439B
:102900001143C1604169A26921F44071114343F64A
:102910000002C4F201029042416103D0FFF7CCF9FA
:1029200002E000BFFFF7DCF962681921484391001B
:10293000B0FBF1F048F21F51C5F2EB11A0FB0123EF
:102940005A096FF0630302FB0300322303EB00100C
:10295000A0FB0101F02303EA5113206803EB0212EC
:10296000C1F3431111448160016921F49041016177
:10297000416921F02A014161C16841F40051C160FF
:1029800000202021206484F83D1084F83E1010BD02
:1029900070B586B040F60004C4F20104006804F586
:1029A000405100268842049602D006B070BD00BF98
:1029B00041F21800C4F20200016802AD41F4804106
:1029C0000160016801F4804101910199016841F0C1
:1029D000040101600068294600F00400019001989C
:1029E0004FF40070029002200390032005902046CF
:1029F000FEF73AFE4FF48060CDE9020620462946F4
:102A00000496FEF731FE252002210022FEF7B2FFD8
:102A10002520FEF79FFF06B070BD00007047000044
:102A20002DE9F04381B0044690F83D0020280DD1F7
:102A30000F4600294FF0010000F092801646002A50
:102A400000F08E8094F83C00012803D1022001B0F0
:102A5000BDE8F083012084F83C004FF000092120FC
:102A60001D46C4F8409084F83D00FEF705FFA6849B
:102A7000E684A1688046B1F5805F25D120690028F1
:102A80001CBF38464F463E46074684F83C90E08CD3
:102A900000B3681C20D0002D66D120680BE000BF79
:102AA00036F8021B00276FF35F214160E18C01398A
:102AB000E184E18C81B30168090675D5002FEFD060
:102AC00017F8011BF1E700BF002684F83C90E08C6A
:102AD0000028DED120681FE0206802E001680906B6
:102AE00009D40168090606D4016809065CBF0168BB
:102AF0005FEA0161F2D51FB117F8011B05E000BFC5
:102B000036F8021B00276FF35F214160E18C013929
:102B1000E184E18C0029E4D1016849061CD4002D30
:102B200042D0691C0ED10168490615D401684906D6
:102B30005CBF01685FEA41610ED401684906F2D5C5
:102B40000AE000BFFEF798FEA0EB08012068A9424A
:102B50002AD800684006F5D5202084F83D000020E2
:102B600001B0BDE8F08300BF206800BF016809061E
:102B700008D4FEF781FEA0EB08012068A942F5D930
:102B800012E000BF17B117F8011B04E036F8021B72
:102B900000276FF35F214160E18C0139E184E18C12
:102BA0000029E3D1B8E700BFC16821F4D071C1604A
:102BB000416921F001014161202084F83D0084F841
:102BC0003E00002084F83C00032001B0BDE8F08303
:102BD00070470000FEE700002DE9F04F83B0164675
:102BE0000A4644F200010446C4F21C511046FDF7A7
:102BF00013FB48F200010546C4F23B513046FDF795
:102C00003DFB4FF08C41FDF707FBFDF71CFD1D223E
:102C100040F2FC1640F26C1940F25818010A8DF887
:102C200009204FF48072C2F20006C2F20009C2F21B
:102C300000084FF4D05B0027ADF807208DF80B009B
:102C40008DF80A104FF0080A01AA4846314643465B
:102C5000ADF804B08DF80670C6E90047C6E9027702
:102C6000C6F810A0FEF758F8022000F05FFB2846D7
:102C7000FDF7E9FC010C020E030A50258DF8065001
:102C800005258DF808108DF807208DF80B008DF8BC
:102C90000A3001AA484631464346ADF804B08DF8E3
:102CA0000950C6E90047C6E90277C6F810A0FEF74A
:102CB00033F8022000F03AFB0220FEF7C1FC03B01B
:102CC000BDE8F08FB0B584B040F2142042F200416C
:102CD000C2F20000C4F20101002401254FF4602279
:102CE00005730475C261C0E9001484600561FDF7D5
:102CF00011FF002818BFFDF73DFE0820CDE90105B2
:102D000040F21420C2F2000001A90394FDF738FE3E
:102D1000002818BFFDF72EFE04B0B0BD10B540F27C
:102D20006C1046F20041C2F20000C4F2000140F211
:102D3000001404220023C0F2010480E80E0000F118
:102D40000C014FF4403C4FF4401E81E80850846170
:102D50008383FEF777FA002808BF10BDBDE8104056
:102D6000FDF708BE70B584B041F21800C4F202004D
:102D7000016841F6000441F0400101600168C4F2BD
:102D8000010401F04001009100990168012241F025
:102D9000080101600168202501F0080100910099F7
:102DA0000168012641F0040101600068202100F063
:102DB0000400009000982046FEF758FD0020029085
:102DC0000220039069462046CDE90056FEF74CFCF0
:102DD00004B070BD80B586B040F244200021C2F23C
:102DE00000004FF0630C0591CDE90311CDE900110E
:102DF0004FF0804241F61F43C0E9021C016180216F
:102E0000C0E900238161FFF7BDF9002818BFFDF775
:102E1000B1FD4FF48050029040F24420C2F2000015
:102E200002A9FFF781FA002818BFFDF7A3FD40F2C1
:102E30004420C2F200006946FFF75AF9002818BF83
:102E4000FDF798FD06B080BD80B540F28C2043F6BA
:102E50000001C2F20000C4F2010100234FF00C0C8B
:102E60004FF4E13280E80E00C0E90333C0E905C346
:102E7000C361FFF71FFD002808BF80BDBDE880408B
:102E8000FDF778BDFEE70000FEE700007047000098
:102E900070470000FEF7F6BC7047000040F2442087
:102EA000C2F20000FFF70CBB406A0021C185C1845B
:102EB000FFF7C8BB81B090F83E10222920D183686B
:102EC000B3F5805F08D10169002941D000F12801E4
:102ED0000A6803685B680AE0014651F8282F13B9B5
:102EE0000369002BF5D003685B6803F07F03137060
:102EF0000A6801320A60C18D01390A04C18501D016
:102F000001B070470168CA6822F02002CA60CA682E
:102F100022F48072CA604A6922F001024A612022CA
:102F200080F83E20026B012A1CD100220263CB688C
:102F300023F01003CB600B68DB0605D500920A680E
:102F40000092496800910099818D01B0FFF778BB2C
:102F50000168826A49686FF35F2122F8021B82626E
:102F6000C9E700BF01B0FFF759BD000040F28C2057
:102F7000C2F20000FFF768BB40F26C10C2F2000022
:102F8000FEF730B8FEE7000070B582B004460020BE
:102F90000190A01E1546A422042800921AD8DFE84A
:102FA00000F00321354B5F000846FDF784FB42F239
:102FB0000003C4F2AC030022FDF745FAFDF75CFB09
:102FC0004FF461667543AEB2010A020C030E360A75
:102FD0005AE000BF43F6F260C0F600002E0A00F08F
:102FE0007DFE51E00846FDF766FB0023C4F289032D
:102FF0000022FDF728FAFDF73FFB4FF448767543B2
:10300000AEB2010A020C030E360A3DE00846FDF797
:1030100052FB42F20003C4F2AC030022FDF713FAA4
:10302000FDF72AFB4FF461667543AEB2010A020C4C
:10303000030E360A28E000BF0846FDF73CFB0023DC
:10304000C4F289030022FDF7FEF9FDF715FB4FF4EA
:1030500048767543AEB2010A020C030E360A13E03D
:103060000846FDF728FB44F20003C4F28F03002258
:10307000FDF7E9F9FDF700FB4FF47A767543AEB240
:10308000010A020C030E360A8DF8051040F2FC11FD
:103090008DF804008DF806208DF8073004F5A07037
:1030A000C2F2000100220823C1E900020B6140F2D4
:1030B0006C1040F24813C1E90222C2F20000C2F2D1
:1030C00000036A468DF802508DF80360FDF724FE78
:1030D00002B070BD2DE9F04F8BB040F20801C2F292
:1030E00000010C784D78896881460846FDF7E3FABF
:1030F00002460B46FDF700F941F26F2242F2CA1375
:10310000CCF28302C4F20903FDF79DF9FDF7E6FA5C
:1031100040F2BC1BC2F2000B002DCBF8040000F003
:103120009D806000C1B240F23C0602910131013045
:1031300001230022C2F200060191009008E000BFC6
:1031400000240099AB4203F101030A4480F0868019
:103150000199581E48430299C0B2084406EB80000A
:1031600040680BEB8307210647F8080FE8D0D1B27F
:1031700006EB8101A1F1080A0025CDE9033205978C
:103180000135FDF798FA0A90DAF80C40DBF8046094
:1031900028460991FDF738FA804630464146FDF74A
:1031A0003BF8074620463946FDF768F8FDF783FAF5
:1031B000CDE9071038464946FDF72EF8FDF77BFAB2
:1031C00000F09EFD0690DBF804004C46DAF8109003
:1031D0008B464146FDF720F8064648463146A14653
:1031E000FDF74CF8FDF767FA07460C4630464946AE
:1031F000FDF712F8FDF75FFA00F022FD3A4623468C
:10320000FDF721F904460E460898DDE906215B46E4
:1032100040F2BC1BC2F2000BFDF715F92246334603
:1032200040F20806C2F20006FDF707F902460B4617
:10323000DDE90910FDF760F8FDF750FA3478059FD5
:10324000A5420AF1080A38609AD37578DDE903329D
:1032500040F23C06C2F2000673E700BF0BB0BDE8C7
:10326000F08F000080B582B0019040F28C20C2F255
:10327000000001A901224FF6FF73FFF7D1FB01986F
:1032800002B080BD96B0FEF70BFB00240120CDE913
:103290001144CDE90F440C9010904FF4E0104FF41E
:1032A0008031022515900CA80694CDE90444CDE99F
:1032B0000244CDE90D14CDE91351FEF725FD28B1E7
:1032C000EFF3108072B600BFFEE700BF0F20CDE91C
:1032D00007054FF48060CDE90A0407A8022109948C
:1032E000FEF70AFC20B1EFF3108072B6FEE700BFD4
:1032F000022001904FF40040039001A8FEF776FBF6
:1033000020B1EFF3108072B6FEE700BFFFF72AFD91
:10331000FFF704FDFFF798FDFFF7D4FCFFF75AFD18
:10332000FDF7F6FA00F01EF9FEE700007047000016
:103330002DE9F04740F2BC16C2F200063068FDF7F6
:103340006CF940F2080AC2F2000ADAF804100246E8
:1033500008461146FCF760FFFFF7BCFEF06800214D
:10336000C4F27A41FCF758FFDAF81010DAF804508A
:103370000446F060FCF74AFF2946FCF77FFF20F087
:1033800000404FF07E51FCF7EFFE0246012021463F
:10339000FFF722FCD6E90310CAF81010FDF78BF9ED
:1033A00041F26F2842F2CA19CCF28308C4F209092B
:1033B00042464B46FDF7B9F848F20005C4F26605EF
:1033C00000222B46FDF73FF8FDF788F9DAF81410D4
:1033D000DAF8044007463061FCF718FF2146FCF795
:1033E0004DFF20F000404FF07E51FCF7BDFEFDF791
:1033F0002AF9024602203946FFF7C6FDD6E9041035
:10340000CAF81410FDF757F942464B46FDF78DF800
:1034100000222B46FDF717F8FDF760F9DAF81810CF
:10342000DAF8044007467061FCF7F0FE2146FCF72D
:1034300025FF20F000404FF07E51FCF795FEFDF790
:1034400002F9024603203946FFF79EFDD6E9051032
:10345000CAF81810FDF72FF942464B46FDF765F8FC
:1034600000222B46FCF7EFFFFDF738F9DAF81C10C5
:10347000DAF804400746B061FCF7C8FE2146FCF7C5
:10348000FDFE20F000404FF07E51FCF76DFEFDF791
:10349000DAF8024604203946FFF776FDD6E9061031
:1034A000CAF81C10FDF707F942464B46FDF73DF8F8
:1034B00000222B46FCF7C7FFFDF710F9DAF82010C1
:1034C000DAF804400746F061FCF7A0FE2146FCF75D
:1034D000D5FE20F000404FF07E51FCF745FEFDF791
:1034E000B2F8024605203946FFF74EFDD6E907102F
:1034F000CAF82010FDF7DFF842464B46FDF715F8F5
:1035000000222B46FCF79FFFFDF7E8F8DAF82410BD
:10351000DAF8045004463062FCF778FE2946FCF7DE
:10352000ADFE20F000404FF07E51FCF71DFEFDF790
:103530008AF8024606202146FFF726FD306A3168E8
:10354000CAF82400481CB0F5FA6F306018BFBDE817
:10355000F08740F24420C2F20000BDE8F047FEF7D9
:10356000C5BE000070B540F20801C2F20001D1E909
:103570000104FDF7A0F80B4600210246C3F6F071E6
:103580000020FCF7D2FF054620460E46FDF793F8D3
:1035900002460B4628463146FCF7C7FFFDF76CF89C
:1035A00040F2D021C2F20001087070BD490050EA1B
:1035B000C12018BF04204A0D18BF40F0010040F29E
:1035C000FF72B2EB515F08BF40F00200012808BF54
:1035D000052070472DE9F74F144694B00021C4E947
:1035E00002111599079121F00045C9498D4206DC69
:1035F0001599C4E9000117B00020BDE8F08FC54956
:10360000DFF814A3A9423CDD0799C44E0029C44F3A
:10361000C44A1599534619DDFCF70FFF554506D0EE
:10362000C14AC24BFCF709FFC4E900010AE04FF0B0
:10363000D352BE4BFCF701FF32463B46FCF7FDFE82
:10364000C4E9000117B00120BDE8F08FFCF754FE7B
:10365000554506D0B44AB54BFCF74EFEC4E900010F
:103660000AE04FF0D352B14BFCF746FE32463B46E0
:10367000FCF742FEC4E9000117B04FF0FF30BDE88F
:10368000F08FAB49A942159978DB21F000418346C0
:103690008846A84AA84BFCF7D6FE0022A74BFCF7A9
:1036A0002BFEFCF7E9FF0990FCF7BCFF06460F462E
:1036B0009C4A5346FCF7C7FE43465A46FCF7C0FEF9
:1036C00080468A46984A994B30463946FCF7BBFEFD
:1036D0002A0D01250B9242465346FCF7B1FE032DFD
:1036E000C4E9000139D00B98C1F30A51401A05EB27
:1036F00045111139814230DA9148C346784400EBD4
:103700000510CDF80CA00C90D0E9002330463946C6
:10371000FCF799FE02460B46049106905846039921
:10372000FCF78BFE80468A4602460B4658460399B4
:10373000FCF783FE049B069AFCF77FFE83460C98F9
:1037400003913946D0E902233046FCF77CFE5A4605
:10375000039BFCF772FE6D1CBDE707980028A2BF13
:10376000099817B0BDE8F08F616881F00041616091
:10377000099817B04042BDE8F08FFFE784461598DE
:10378000C1F31301C0F30A50A0F2F5304FEA6018FC
:1037900000F01F06C6F1200013900020069007904D
:1037A00041F4801E05206D4676B1664A08EB0001A3
:1037B0007A4452F8213002EB8101B3404A681399F0
:1037C00022FA01F1194305E05F4908EB0002794450
:1037D00051F82210A1FB0E27A1FB0C131A449A42A8
:1037E00034BF0123002303EB070A05EB8003D3E971
:1037F00001B70F448F4234BF0121002193448B4411
:1038000011B1934502D903E0934501D2012100E0B3
:103810000021C3E901B7514445F82010011EA0F171
:103820000100C1DC0298059F00F10050800F12904A
:103830000298DDE903568000FCF7F4FE8346284633
:103840000D91FDF756F86FF01D02FDF73BF8CDE93D
:103850000E013046FDF74DF86FF03D02FDF732F8EE
:1038600080468A463846FDF744F86FF05D02FDF762
:1038700029F80746424653461191FCF73DFDDDE924
:103880000E23FCF739FD5A460D9BFCF735FD00254C
:103890000E465A4628460D9BFCF7CFFDDDE90E2368
:1038A000FCF7CBFD42465346FCF7C7FD3A46119B59
:1038B000FCF7C6FDDFF898A0244A5346FCF7C3FD89
:1038C00007468846234A244B31462846FCF7BBFD71
:1038D0003A464346FCF710FD074688464FF0A8429B
:1038E000534631462846FCF7AEFD3A464346FCF7C0
:1038F00003FD159A12F0004F04D0129A81F0004196
:1039000052421292C4E90001129817B0BDE8F08F3C
:10391000FB21E93F7CD90240FB21F93F7370032E64
:103920008A19A33B000040543163621A61B4D03D50
:10393000FB21394183C8C96D305FE43F0000E03F9F
:10394000D00600004C0600002E060000182D44543E
:10395000FB21F93D3326A611460B113C2DE9FF4D05
:1039600021F0004807460C46B8F1795F08DAFCF709
:1039700083FE002801BF0020324904B0BDE8F08D6D
:103980003A46234610461946FCF75DFD05460246B9
:103990002D480E460B460621784400F05DF82A4675
:1039A0003346FCF750FDDDE9022382468B4638465C
:1039B0002146FCF748FD04460F4652465B46284622
:1039C0003146FCF740FD22463B46FCF736FD0746F4
:1039D0008A464FF0FF3228463146FCF773FF1B4AF8
:1039E00090450ADA3A465346FCF727FD04B0002218
:1039F000BDE8F04D134BFCF723BD154A4245A8BF67
:103A0000A8F500154FF00004B8BF124D22462B4612
:103A1000FCF713FD0646884622462B46002009493E
:103A2000FCF70BFD04460D463A46534630464146E8
:103A3000FCF703FD04B022462B46BDE8F04DFCF731
:103A4000FFBC00000000F03F040400003333D33F0C
:103A50000000E93F0000D23F2DE9F0414F1E00EB8E
:103A6000C7010446D1E9000115461E4637F006029B
:103A70000DD02A463346FCF7E6FC7F1E04EBC70355
:103A8000D3E90023FCF738FC37F00602F1D1022F0E
:103A900025D0042F13D0062F18BFBDE8F0812A4689
:103AA0003346FCF7D0FCD4E90A23FCF725FC2A4670
:103AB0003346FCF7C8FCD4E90823FCF71DFC2A4672
:103AC0003346FCF7C0FCD4E90623FCF715FC2A4674
:103AD0003346FCF7B8FCD4E90423FCF70DFC2A4676
:103AE0003346FCF7B0FCD4E90223FCF705FC2A4678
:103AF0003346FCF7A8FCD4E90023BDE8F041FCF70D
:103B0000FBBB00002DE9FF4D054621F0004084B0CD
:103B10000C46B0F1795F0BDA2846FFF747FD042821
:103B200008BF00F06FF8284608B02146BDE8F08DC8
:103B30002A460B461046FCF786FC06460F462A46E8
:103B40002346FCF780FC804626488A4632463B46A0
:103B500005217844FFF780FF83461098029160B3F7
:103B6000214A224B40465146FCF76DFCCDE900014D
:103B70005A4640465146029BFCF765FC8246884601
:103B8000DDE906014FF0FF32FCF79CFE524643464A
:103B9000FCF753FC32463B46FCF755FCDDE90623B7
:103BA000FCF74BFCDDE90023FCF747FC08B02A4694
:103BB0002346BDE8F04DFCF743BC0B465A46304661
:103BC0003946FCF740FC084A084BFCF795FB424697
:103BD0005346FCF738FC08B02A462346BDE8F04DB2
:103BE000FCF78ABB4A030000495555555555C5BFDA
:103BF0000122FCF767BE0022134610461146FCF76F
:103C000094BC0000024A00201107FCF75BBE0000D4
:103C100001FDFFFF02E008C8121F08C1002AFAD107
:103C200070477047002001E001C1121F002AFBD13C
:103C30007047000001490860704700000400002040
:103C400000B5244B21F0004287B09A42DCBF00222D
:103C5000134629DD204B9A4208D140B94FF00100AC
:103C6000FFF7E8FFFFF7C7FF07B000BD03DBFFF773
:103C7000BFFF07B000BD02AAFFF7ACFC10F00301C4
:103C800004BF0DF1080C9CE80F000DD001200129A4
:103C90000ED0022914D00DF1080C00909CE80F0002
:103CA000FFF730FF07B000BDFFF758FE07B000BDBB
:103CB0000DF1080C00909CE80F00FFF723FF05E0D2
:103CC0000DF1080C9CE80F00FFF748FE07B081F0EB
:103CD000004100BDFB21E93F0000F07F10B5044624
:103CE00001E0FFF7BFFA14F8010B04490028F8D1EE
:103CF000BDE810400A20FFF7B5BA00000000002020
:103D000000B5254B21F0004287B09A4203DC002227
:103D1000134600922BE0214B9A4208D140B94FF054
:103D20000100FFF787FFFFF766FF07B000BD03DB69
:103D3000FFF75EFF07B000BD02AAFFF74BFC10F0D3
:103D400003014FF001000DD0012914D002291AD02F
:103D50000DF1080C9CE80F00FFF700FE07B081F0A2
:103D6000004100BD0DF1080C00909CE80F00FFF72A
:103D7000C9FE07B000BD0DF1080C9CE80F00FFF76D
:103D8000EDFD07B000BD0DF1080C00909CE80F00A0
:103D9000FFF7B8FEE2E70000FB21E93F0000F07FFB
:103DA0004C5555555555A53F7751C1166CC156BF59
:103DB0009015CB19A001FA3EAD529C804F7E92BE69
:103DC000C4B1B4BD9EEE213ED43888BEE9FAA8BD88
:103DD00000004054FB21F93F3163621A61B4D03DC9
:103DE0000000601A61B4D03D7370032E8A19A33BA2
:103DF0000000002E8A19A33BC14920259A837B39F4
:103E000000000000000000006E83F9A22915444E56
:103E1000D15727FCC0DD34F5999562DB4190433CD6
:103E2000AB6351FE61C5BBDE3A6E24B7E0D24D42B2
:103E3000EA2E49061C92D1091CEB1DFE3EA729B1B2
:103E4000F53582E88444BB2E26709CE9417E5FB440
:103E500039D69139F43953838B5F849C3B28F9BD63
:103E6000FF97F81F0F9805DE8B112FEF1F6D0A5A71
:103E7000CF7E366DB709CB27663F464F2DEA5F9E52
:103E8000C7BA27757BF1E5EBF739073DEA92528A0D
:103E9000B15FFB6B085D8D1F4630035600000000CC
:103EA000A6F810111111813FD561C119A0012ABFD7
:103EB0007DFEB157E31DC73EEB9C2B8AE6E55ABE5B
:103EC0007CD5CF5A3AD9E53D010200000000000040
:103ED00000000102030406070809000000000102B7
:103EE000030402030405060708090A0B0C0D0E0F54
:103EF00010106964206572726F720000203F000824
:103F00000000002048010000143C00086840000840
:103F10004801002090050000243C0008000000003B
:103F20000000000000000000050600000AD7233C46
:103F3000CDCC4C3D0000000000000000000000005F
:103F4000000000000000B4C20000B4420000000005
:103F500001000000100000000024F4000000000038
:103F6000CB91DFBA5E4D1E3C006D123AA22A263B71
:103F70002042DCBC55A56D3D2118AC3BD748B7BBF2
:103F800039D0C33CAE6407BD2E56943D378B97BCE9
:103F9000E8DBA2BDA1BE05BE83171D3E9CDDBABDF8
:103FA000F54A193E475A9A3ED7C0D6BCA0517ABDB1
:103FB0005C1BEABD986A663D32C7F23C8FDFDBBC12
:103FC000C2F6533DA74151BC0872003F4356F7BDAE
:103FD00006D8C7BE2785993DFC6F45BE4A25BC3C27
:103FE000AB7823BE9ACE8EBD5A9E673E09FE173F20
:103FF00041BA583BEA04343EF376043EDBDCA8BE0B
:104000007D3FB53E056EBDBECD92D0BEC4992FBFDB
:10401000768D963C1B9C483D5FD2D83E66F7F4BE39
:1040200085B67C3E952DB2BDA4702DBFEC51A83E47
:104030005A8036BCC85EEFBCD0D58E3FFA9B303E6E
:10404000A81887BEFB3F97BE791EFC3EA3403FBE2B
:10405000E201E53D7077863EEF8F17BE54C9403DC3
:084060005837BEBD855FEABDC3
:0400000508000131BD
:00000001FF
