:020000040800F2
:10000000D0060020450100086536000821320008AE
:1000100061360008B50A00086137000800000000DA
:100020000000000000000000000000006D36000825
:10003000190B00080000000069360008713600083E
:100040005F0100085F0100085F0100085F01000810
:100050005F0100085F0100085F0100085F01000800
:100060005F0100085F0100085F0100085F010008F0
:100070005F0100085F0100085F0100085F010008E0
:100080005F0100085F0100085F0100085F010008D0
:10009000553700085F0100085F0100085F01000894
:1000A0005F0100085F0100085F0100085F010008B0
:1000B000793600085F0100085F0100085F01000851
:1000C0005F0100085F0100085F0100085F01000890
:1000D0005F010008493700085F0100085F01000860
:1000E0005F0100085F0100085F0100085F01000870
:1000F0005F0100085F0100085F0100085F01000860
:100100005F0100085F0100085F0100085F0100084F
:100110005F0100085F0100085F0100085F0100083F
:100120005F0100085F0100085F0100085F0100082F
:10013000DFF80CD000F01AFC004800472D3A000808
:10014000D00600200648804706480047FEE7FEE745
:10015000FEE7FEE7FEE7FEE7FEE7FEE7FEE7FEE777
:1001600075360008310100082DE9F05F05460020D2
:1001700092469B4688460646814640241BE0284618
:1001800041464746224600F00AFB53465A46C01AEB
:10019000914110D311461846224600F0F1FA2D1A6B
:1001A00067EB01084F4622460120002100F0E8FAE3
:1001B00017EB00094E41201EA4F10104DFDC484684
:1001C00031462A464346BDE8F09FF0B480EA01027A
:1001D000D40F4200B2EB410F02D20246084611464C
:1001E0004A0042D0C30DDDB2C1F3C752AD1A202D73
:1001F00035DAC1F3160141F4000204B15242C5F1EF
:10020000200602FA06F12A411044B3EBD05F23D056
:10021000C4B1012DA0EBC35009DCF0BC4FF000428B
:1002200002EAC352DBB200F5000000F0E3BA40007E
:1002300000F1807000EBC350A0F1807040EAD170F3
:10024000490009E0490841EAC071A0EBC35000F53C
:100250000000400800EBC350F0BC00F0C2BA61429D
:10026000012202EB4101001BF6E7F0BC704781F070
:100270000041AAE780F00040A7E780EA010210B53C
:1002800002F00043400022D04A001FD0010E01EBD3
:100290001261C0F35600C2F3560240F4000042F46B
:1002A0000002A0FB022000047F39140400D0401C8F
:1002B00050EA124001D44000491EC2B20C0604EBC1
:1002C000D010401C4008802A02D003E0002010BD5E
:1002D00020F00100002900DA0020184310BD30B4DE
:1002E00080EA010202F0004530F0004221F00040B7
:1002F00013D090B1C30DD40DC2F31601C0F3160094
:10030000E41A41F4000140F400027D34914201D32B
:10031000641C00E04900002C02DA30BC0020704769
:100320004FF400000023914201D3891A034340088F
:100330004FEA4101F7D151B1914202D14FF0004152
:1003400005E002D24FF0010101E06FF0010103EB83
:10035000C450284430BC00F044BA2DE9FE4F80461A
:1003600081EA0300C00F0C46009021F0004123F009
:100370000045B8EB0200A94105D24046214690460F
:100380001C460B46024623F00040104347D0270D81
:10039000C7F30A00C3F30A510290401A01904028A3
:1003A0006BDAC3F3130040F4801B0098924620B12F
:1003B0000023D2EB030A63EB0B0B01985946C0F103
:1003C0004002504600F0DCF906460D4650465946BC
:1003D000019A00F0F4F910EB08006141002487EA6B
:1003E000115284EAE7731A4340D0009A62B3019A2B
:1003F000012A4FEA075215DC001B61EB02014FF0A6
:10040000004202EA0752CDE90042001C41F580118A
:1004100032462B4600F02BFA03B0BDE8F08F404681
:100420002146F9E7001B61EB0201001C41F5801336
:1004300000185B412018A2F5001747EB030140EAC2
:10044000D570B6196D4111E06D084FEA360645EAE0
:10045000C0754FEA0752001B61EB0201001C41F519
:10046000801149084FEA30000019514132462B46AD
:1004700003B0BDE8F04F00F0EBB900980122400056
:100480000023D0EB020263EBE073009821464FEAB1
:10049000E074B8EB000061EB0401E9E783F000438E
:1004A0005BE781F0004158E72DE9FE4F81EA030444
:1004B00004F0004421F0004100944FF0000B23F0C1
:1004C000004350EA01045ED052EA03045BD0C3F358
:1004D0000A54C1F30A552C44A4F2F3340194A0FB4E
:1004E0000254C1F3130141F48011C3F3130343F425
:1004F000801301FB024400FB034E840A970A44EA7E
:10050000815447EA8357A4FB076802958D0A05FBCF
:1005100007854FEA932C04FB0C542705029D4FEAF4
:10052000065847EA1637B5EB08056EEB070C870E41
:10053000920E47EA811742EA8312A7FB0201B6EB4B
:100540000B0164EB00042B0D43EA0C335E1844EB03
:100550001C50DA465146E7FB0201C5F313044FEA8B
:100560000B3343EA14534FEA0432019C43EA060377
:10057000A4F10C040294009CCDE900B400F077F9DA
:1005800003B0BDE8F08F00200146F9E72DE9F04DFA
:1005900081EA030404F0004B21F0004514464FF0BB
:1005A000000A23F0004150EA050220D054EA01027B
:1005B0001DD0C5F30A570246C5F31303C1F3130058
:1005C000C1F30A5640F4801543F48013A7EB0608E4
:1005D000101BD64608F2FD3873EB050002D308F174
:1005E000010801E092185B41B8F1000F03DA002026
:1005F0000146BDE8F08D00204FF480110646844688
:100600000EE0171B73EB050705D3121B63EB050305
:1006100006434CEA010C49084FEA300092185B414E
:1006200050EA0107EDD152EA030012D082EA040039
:1006300083EA0501084305D0101BAB4106D2012215
:10064000002306E000224FF0004302E06FF00102B9
:1006500053101AEB06004CEB085110EB0A0041EB6B
:100660000B01BDE8F04D00F0F3B8C10F80EAE07077
:100670000844CA079623002100F0BCB89623002244
:10068000114600F0B7B800F0004220F00040C10D64
:10069000C0F3160040F400007F2901DA0020704703
:1006A000962903DCC1F19601C84001E096398840E3
:1006B000002AF4D04042704770B5C1F30A5201F0ED
:1006C00000450024C1F3130140F2FF3341F48011CF
:1006D0009A4201DA002070BD40F233439A42A2F2FE
:1006E000334203DC524200F05AF800E090402C43C1
:1006F000F1D0404270BD00F0004230F000400AD01E
:10070000C10D01F56071C0F3160042EA0151C20843
:1007100040071143704700200146704701F0004335
:1007200030B421F0004150EA010206D00A0DA2F5D2
:100730006072C1F31301002A02DC30BC0020704754
:10074000440F44EAC104C100E01830BC00EBC250C1
:1007500000F047B830B50B460146002020220124A6
:1007600009E021FA02F59D4205D303FA02F5491B7F
:1007700004FA02F52844151EA2F10102F1DC30BD95
:10078000202A04DB203A00FA02F100207047914051
:10079000C2F1200320FA03F3194390407047202A46
:1007A00004DB203A21FA02F00021704721FA02F31B
:1007B000D040C2F120029140084319467047202AD8
:1007C00006DBCB17203A41FA02F043EAE07306E079
:1007D00041FA02F3D040C2F1200291400843194689
:1007E00070470029A8BF7047401C490008BF20F08F
:1007F0000100704710B4B0FA80FC00FA0CF050EA27
:10080000010404BF10BC704749B1CCF1200421FAA7
:1008100004F411FA0CF118BF012121430843A3EBA2
:100820000C01CB1D4FEA00614FEA102042BF0020AF
:1008300010BC704700EBC35010440029A4BF10BC8B
:100840007047401C490008BF20F0010010BC7047F1
:1008500010B5141E73F1000408DA401C41F10001C8
:1008600092185B411A4301D120F0010010BD2DE91F
:10087000F04D92469B4611B1B1FA81F202E0B0FA16
:1008800080F220329046FFF77BFF04460F4640EA95
:100890000A0041EA0B0153465A46084313D0114659
:1008A00053EA010019D0C8F140025046FFF777FF24
:1008B00005460E46504659464246FFF761FF08433B
:1008C00005D0012004E020463946BDE8F08D002027
:1008D000054346EAE0762C4337430A986305E40A69
:1008E000A0EB08000022FD0A44EA47540A3002D572
:1008F00000200146E9E7010510196941DDE90845D5
:1009000000196941BDE8F04DA2E7C1F30A52C1F3F5
:10091000130140F2FF3341F480119A4202DA0020C1
:100920000146704740F233439A42A2F2334202DC5E
:100930005242FFF734BFFFF723BF000030B5041E5B
:1009400071F1000404DB4FF00044404264EB01010C
:10095000141E73F1000405DB1C464FF000435242A5
:1009600063EB0403994208BF904230BD064C074D2B
:1009700006E0E06840F0010394E80700984710346F
:10098000AC42F6D3FFF7D8FBD4530008F453000869
:1009900070B521F0004303430CD0C1F30A55002485
:1009A000D5EB040564EB0403D617AD1AB34102DBA3
:1009B0000020014670BD201841EB025170BD0EB5FC
:1009C000C10F80EAE0700844CA07002140F23343B7
:1009D0008DE80E000A460B46FFF749FF03B000BD45
:1009E0000EB540F2334102910021CDE900110A46D3
:1009F0000B46FFF73CFF03B000BD0000B0B582B06E
:100A000004460020019021688A68D2074FD1886887
:100A100040F00100886040F21C00C2F20000006853
:100A20004DF68361C4F21B31A0FB0101880C0190DB
:100A30000198A0B1019801380190019878B101980E
:100A400001380190019850B1019801380190019846
:100A500028B101980138019001980028EAD101F0ED
:100A600057F921688968C9071CD1054603E000BF12
:100A70008068C0071AD101F04BF9411B2068032997
:100A8000F6D38168C907F3D1A06A40F01000A062D4
:100A9000E06A40F00100E062002084F824000120B8
:100AA00002B0B0BD002002B0B0BD00BF002002B057
:100AB000B0BD0000FEE7000080B540F24010C2F279
:100AC000000001210022C0E91111014641F8282F40
:100AD000C0E90B22C0E90D22C0E90F2200F0EEFBB5
:100AE000002818BF00F01AF840F24010C2F20000CF
:100AF00000F0FEFE002818BF00F010F840F2401091
:100B0000C2F20000022100F063FB002808BF80BD94
:100B1000BDE8804000F002B870470000EFF310809D
:100B200072B600BFFEE7000010B581B0002200924F
:100B300090F82420012A03D10221084601B010BDFB
:100B40004B680122062B80F8242015D8026803EB9D
:100B50008303A3F1050E1F23D2F834C003FA0EF469
:100B60000B682CEA040C03FA0EF444EA0C045463F8
:100B7000092B17D937E000BF02680C2B20D803EBF4
:100B80008303A3F123041F23D2F830C003FA04FE29
:100B90000B682CEA0E0C03FA04F444EA0C04146308
:100BA000092B20D8D2F810C003EB4303072489682F
:100BB0009C402CEA0404994021431161002136E055
:100BC00003EB8303A3F141041F23D2F82CC003FAE3
:100BD00004FE0B682CEA0E0C03FA04F444EA0C043D
:100BE000D462092BDED903EB4304D2F80CC0A4F184
:100BF0001E0E0724896804FA0EF42CEA040401FA94
:100C00000EF1214323F00104102CD1600ED142F2E9
:100C10000841C4F20101A1F10804A2420ED0816A88
:100C200041F020018162012101E000BF002100228A
:100C300080F82420084601B010BD00BF0A681202E7
:100C400030D40A68102B42F400020A602CD140F222
:100C50001C01C2F2000109684DF68362C4F21B3226
:100C6000A1FB0212910C01EB810149000091009956
:100C7000E1B10099013900910099C9B10099013998
:100C800000910099B1B1009901390091009999B191
:100C9000009901390091009900294FF00001E8D135
:100CA000C5E700BF0021C2E70021C0E70021BEE781
:100CB0000021BCE70021BAE70021B8E7806A70474D
:100CC0000068C06C70470000B0B5002800F0B2802A
:100CD0000446806A20B121688868C0070BD114E0FF
:100CE0000020E06284F82400204600F0A5F8216886
:100CF0008868C00709D0886820F00100886001F08A
:100D000007F821688A68D20730D1A06AC00644D4A7
:100D1000A06A41F2021290430230A062E36981F0BE
:100D2000804080F49E3083F44022104308BF4FF48B
:100D30000023D4E9010243EA000C531EB3FA83F303
:100D40005D091346B2F5807F18BF2B02207D257BFD
:100D500001284CEA450030D135B3A56A45F020059D
:100D6000A562E56A45F00105E56226E0054602E078
:100D70008868C007C9D000F0CBFF401B216803285A
:100D8000F6D38868C007F3D0A06A40F01000A062D4
:100D9000E06A40F00100E062A06AA06A40F0100042
:100DA000A0620120B0BD00BFD4F818C04EF6000507
:100DB000CFF6FF7505EB4C352B434D68B2F5807FC0
:100DC00025F4694543EA05034B608B684FF2FD75D6
:100DD000CFF6E17503EA050343EA00038B6001D017
:100DE000012A07D122690023CFF6F07303EB0252E8
:100DF00001E000BF0022CB6A23F470031A43CA62E9
:100E0000896840F6FE62CFF61F721140814207D119
:100E10000020E062A16A012262F30101A162B0BD7B
:100E2000A06A40F0100020F00200A062E06A40F0EA
:100E30000100E0620120B0BD80B586B0014640F6F9
:100E40000040C4F20100096800F5C05291424FF021
:100E50000001CDE9041101D006B080BD41F21801B6
:100E6000C4F202010A6842F400720A600A6802F4DD
:100E700000720192019A0A6842F008020A60096849
:100E800001F00801019101990121029103210391CF
:100E900002A900F035FE06B080BD0000F0B581B0BB
:100EA00000270D460446009700F032FF21688A684B
:100EB000D20543D406464868C00503D4C86A10F476
:100EC000700F45D040F21C00C2F2000007680220FB
:100ED00000F0D8FF216844F624130A69B7FBF0F04C
:100EE000C2F292431A4206D1CA6844F62413C0F2F1
:100EF00092031A425ED00A6942F29243C1F2492338
:100F00001A4207D1CA6842F29243C0F249031A4218
:100F100000F0C0800A6949F24923C0F224031A4252
:100F20004FF0FC0257D1CF681F4208BF5422009BEC
:100F300002FB00F7BB4253D3C3E000BFA06A40F0FE
:100F40002000A06284F82470012001B0F0BD00BF31
:100F50000868800700F1B580681C00F0A880FDB922
:100F60000868800772D50868800700F1AA800868C1
:100F700080076BD50868800700F1A38008688007A8
:100F800064D50868800700F19C80086880075DD5FB
:100F900008688007E4D594E00868800700F1918034
:100FA00000F0B6FE801B2168A842F5D908688007CA
:100FB000F2D44BE00A6942F29243C1F249231A4249
:100FC0004FF0290207D1CB6842F29247C0F249079D
:100FD0003B4208BF1422009B02FB00F7BB4270D2C9
:100FE000681C4FD055BB0098B8422FD300980130F1
:100FF00000900098B84264D20098B84226D3009876
:10100000013000900098B8425BD20098B8421DD3DE
:101010000098013000900098B84252D20098B8422F
:1010200014D30098013000900098B842DBD348E018
:101030000098013000900098B84233D200F068FE6A
:10104000801BA842F4D90098B842F1D2A06A40F0BF
:101050000400A062002084F82400032001B0F0BD49
:101060000098013000900098B8422AD200980130D0
:1010700000900098B84224D2009801300090009867
:10108000B8421ED20098013000900098B842E7D3D1
:1010900017E000BF5422009B02FB00F7BB429FD326
:1010A0000FE000BF21680CE00868800709D40868D9
:1010B000800706D4086880075CBF08685FEA807014
:1010C000F2D56FF012000860A06A40F40070A062D0
:1010D000886800F46020B0F5602F01D1207B18B142
:1010E000002001B0F0BD00BFA06A20F48070A062B3
:1010F000A06AC004F4D4A06A40F00100A0620020FD
:1011000001B0F0BD10B5044690F82400012804BFDA
:10111000022010BD012084F824002046FFF76EFC59
:1011200020B1002184F8241010BD00BF42F2044C0D
:101130002068A16AC4F2010C40F2013291430CF51F
:101140007F7201F580719042A16233D0A16A21F4CF
:101150008011A1624168490504D5A16A012363F3A6
:101160000D31A162A16A0023C9044FF0000144BF00
:10117000E16A21F00601E1626FF0020184F8243097
:101180000160816801F46021B1F5602F06D19042C1
:101190000AD1DCF8001011F4702F05D0816841F4F9
:1011A00080118160002010BD816841F4A001816040
:1011B000002010BDDCF8001011F4702FC6D0A16A19
:1011C00041F48011A162DCF800104905C5D4C9E7DB
:1011D00090F82020013A012A08D8006800F1140292
:1011E0000020136819431160704700BF00F124020A
:1011F00001204FF4802113681943116070470000EB
:1012000010B590F820E0D0F800C0AEF1010EBEF1AC
:10121000010FDCF808E011D81EF0E05F18D0CEF323
:10122000016EBEF1030F1DD100F1240101204FF426
:1012300000020B681A430A6010BD00BF00F12401D0
:1012400001204FF480220B681A430A6010BD00BFD2
:1012500000F1240101204FF400120B681A430A60C8
:1012600010BD00BF012000FA0EF01860886818B1A8
:101270004B6840EAC30001E008684005D1E9033447
:1012800003430CEB0E10C0F88031C0F88441097D97
:10129000012905D100F5C2710B6843F480730B601E
:1012A0005168C0F88C11126800F5C071C0F888212F
:1012B000002001220B681A430A6010BDB0B5026815
:1012C00090F82030013B012B28D8D2F800020123EE
:1012D00040F00100C2F80002D1F814E0CC690EF031
:1012E0001F0003FA00F0D2F81C326FEA000C8343AF
:1012F000012CC2F81C3217D06CBBD2F80C3203EAB6
:101300000C03C2F80C32CB688C8844EA034302EB2E
:10131000CE04C4F840320B4615E000BF416A41F4E8
:10132000802141620120B0BDD2F80C320343C2F8E3
:101330000C320B688C8844EA034302EBCE04C4F8F9
:10134000403201F10C038C681B8843EA044302EB32
:10135000CE04C4F84432D2F804328D6943EA000462
:10136000D1F810E0096A002D08BF03EA0C04C2F8A6
:101370000442D2F81432BEF1000F43EA000408BF61
:1013800003EA0C040129C2F8144204D1D2F81C1259
:101390000843C2F81C02D2F8000220F00100C2F893
:1013A00000020020B0BD00007047000010B590F8AA
:1013B0002040013C012C71D8D0F800C0002977D022
:1013C000DCF81040A40777D00CEB011CDCF8B0412E
:1013D0000CF5D87E14F004049460DCF8B04119BF19
:1013E000E4085460640D1460DEF80040002904F045
:1013F0000204D460DCF8B44104F00F041461DCF89A
:10140000B441C4F307249461DCF8B4414FEA1444B6
:101410005461DCF8B8211A70026802EB0112D2F8AC
:10142000B8214FEA12225A70026802EB0112D2F878
:10143000B8214FEA12429A70026802EB0112D2F808
:10144000B8214FEA1262DA70026802EB0112D2F898
:10145000BC211A71026802EB0112D2F8BC214FEADA
:1014600012225A71026802EB0112D2F8BC214FEA33
:1014700012429A71026802EB0112D2F8BC214FEAC3
:101480001262DA71006814BF00F1100100F10C0162
:10149000002020220B681A430A6010BD00F12401CD
:1014A00001204FF480220B681A430A6010BD00BF70
:1014B000DCF80C40A40787D100F1240101204FF48F
:1014C00000120B681A430A6010BD00002DE9F04FAE
:1014D00081B0044600684669D0F804908768D0F867
:1014E0000CB0D0F810A0D0F81880F10704D1002576
:1014F00030071DD424E000BFF90710D00121BA073E
:10150000816009D4780700F1AF80380700F1B68018
:10151000204600F01BFA02E0204600F019FA0025F0
:10152000F80500F18780F80300F1B180300707D596
:101530001BF0100004D0206845F400751021C16034
:10154000700708D51BF0080005D020680821C1608D
:10155000204600F0ABF9B00706D52068C0688007C8
:1015600002D0204600F0A4F9700607D51AF010004A
:1015700004D0206845F4806510210161B00608D5CB
:101580001AF0080005D0206808210161204600F00B
:10159000A9F9F00606D520680069800702D0204628
:1015A00000F0A2F9B00308D519F0100005D02068AA
:1015B00010214160204600F099F9F00308D519F098
:1015C000080005D0206808214160204600F0CAF9D3
:1015D000300440F19B805FEA497040F1948006F44A
:1015E000807008EA102028435FEA8871014648BFEE
:1015F00041F00201B20558BF01465FEA48700D464E
:1016000048BF45F00405700558BF0D46300540F150
:101610007A8018F0700000F07680103800090528F4
:101620006CD8DFE800F003595D61656945F0080595
:1016300064E000BF20684FF48071BA0581600BD46C
:10164000780515D438051DD4204600F083F9F80339
:101650007FF56CAF1BE000BF204600F07DF9F8037A
:101660007FF564AF13E000BF4FF4006558E700BF9B
:1016700005F50055F8037FF559AF08E04FF48055A4
:101680004EE700BF05F58045F8037FF54FAF2068B2
:101690004FF48031BA0381600AD4780310D4380340
:1016A00014D4204600F05AF930073FF541AF47E720
:1016B000204600F055F930073FF53AAF40E700BF4C
:1016C00005F5004530073FF533AF39E705F58035BF
:1016D00030073FF52DAF33E745F010050EE000BFB2
:1016E00045F020050AE000BF45F0400506E000BFD8
:1016F00045F0800502E000BF45F4807520688169EF
:1017000021F07001816120680421416055B1606A57
:1017100040EA05012046616201B0BDE8F04FFFF7E5
:1017200043BE00BF01B0BDE8F08F0000B0B5C8B146
:10173000044690F8200010B9204600F071F82068A7
:10174000016841F00101016000F0E2FA054600BFC6
:1017500020684168C90707D100F0DAFA401B0B285E
:10176000F6D312E00120B0BD016821F00201016052
:1017700000F0CEFA054600BF2068416889070DD504
:1017800000F0C6FA401B0B28F6D3606A052140F42E
:1017900000306062012084F82010B0BD217E026814
:1017A000012922F0800208BF80320260617E026857
:1017B000012922F0400208BF40320260A17E026887
:1017C000012922F0200208BF20320260E17E026877
:1017D000012922F0100218BF10320260217F026836
:1017E000012922F0080208BF08320260617F026806
:1017F000012922F0040208BF04320260D4E901C2C8
:10180000D4E9033561691A432A431143ACF101025B
:101810001143C16100200121606284F82010B0BD35
:10182000B0B586B040F60004C4F201040068A4F527
:10183000244200219042059102D006B0B0BD00BF05
:1018400041F21800C4F20200426802AD42F0007298
:101850004260426802F000720192019A026842F00E
:1018600004020260006800F00400019001984FF447
:101870000060CDE9020104912046294600F040F9BC
:101880004FF48050029002200390032005902046E0
:10189000294600F035F914200221002200F0B6FAA2
:1018A000142000F0A3FA06B0B0BD0000704700009D
:1018B00080B582B0002140F2D812CDE90011C2F209
:1018C00000026B460021FFF771FD08B102B080BD38
:1018D000DDE9000140F23812C2F2000251601060EE
:1018E00002B080BD704700007047000070470000E4
:1018F000B0B5044690F8200001281DD1022084F8DC
:1019000020002068016821F00101016000F000FA68
:10191000054600BF20684068C00713D000F0F8F902
:10192000401B0B28F6D3606A40F40030606205204B
:1019300084F820000120B0BD606A40F4002060629D
:101940000120B0BD00206062B0BD00007047000003
:1019500070470000704700007047000070470000AB
:101960007047000070470000014690F821000228EF
:1019700016D10868D1E90FC3026822F00E02026096
:10198000026822F001020260012000FA03F2CCF8A2
:10199000042081F821000020002281F820207047D7
:1019A000042088630120002281F820207047000075
:1019B00080B590F82110022928D1026840F2040C69
:1019C0001368C4F2020C23F00E03136013680CF1C9
:1019D0007C018A4223F0010111601BD940F20841C9
:1019E000C4F202018A4249D040F21C41C4F2020111
:1019F0008A4247D040F23041C4F202018A4245D1C6
:101A00004FF48073CCF800345DE000BF04218163A3
:101A1000012080BD4321C4F202018A420EDD6B2108
:101A2000C4F202018A421BDC4421C4F202018A4250
:101A30003CD05821C4F202018A4233E00821C4F2AA
:101A400002018A4236D01C21C4F202018A4237D0F8
:101A50003021C4F202018A4224D14FF4807230E076
:101A60006C21C4F202018A4226D08021C4F2020114
:101A70008A4217D14FF0807223E000BF0123CCF8D7
:101A8000003420E01023CCF800341CE00CF5886111
:101A90004FF480338A4208BF4FF48053CCF80034AF
:101AA00011E000BF4FF480320BE000BF4FF48052D2
:101AB00007E000BF012204E04FF4801201E000BF04
:101AC0001022CCF80020416B4FF48072028401B1E7
:101AD0008847002080BD0000B0B5044600F018F92A
:101AE000054640F21400C2F200000078611C18BFE5
:101AF000044400BF00F00CF9401BA042FAD3B0BD73
:101B00002DE9F04F83B041F60043C4F201030E68A3
:101B100006229842019008BF0522002E009200F094
:101B2000ED80019840F20C45A0F18043A3F5843389
:101B30004FEAB32740F200404FF6FF73C4F20105AD
:101B4000C4F20100009A4FF0000E4FF0010CC1F2F8
:101B500010034FF0000A4FF0000B4FF00F08052F55
:101B600038BF3A46009208E00E680AF1010A36FAD8
:101B70000AF20EF1040E00F0C1800CFA0AF916EA1E
:101B8000090FF1D04E689E4212DC122E56D8DFE8C3
:101B900006F0350B4549555555555555555555552F
:101BA0005555554D510000BFD1F80CB046E000BF6F
:101BB0004FF6FF72C1F2210296420FDC0022C1F201
:101BC000110296421AD00022C1F21202964215D09A
:101BD0000022C1F22102964210D02FE00022C1F271
:101BE000220296420AD00022C1F23102964205D06A
:101BF0000022C1F23202964220D100BF8E684EB15F
:101C0000012E019A14BFC2F81490C2F810904FF040
:101C1000080B13E04FF0040B10E000BFCF6807F192
:101C2000080B0BE04FF0000B08E000BFCF6807F196
:101C3000040B03E0CF6807F10C0B00BF7446BAF148
:101C4000080F28BF203C019F28BF04373E6808FAD0
:101C500004F226EA02020BFA04F632433A60CA7929
:101C6000D2067FF581AF41F21807C4F202073A6845
:101C70004FF6084C42F001023A603A68CFF6FF7C1A
:101C800002F001020292029A2AF00302024452F880
:101C90000C700EF00C0608FA06F4A743009C04FA38
:101CA00006F6374342F80C70D1F804C05FEACC3234
:101CB000026854BF22EA090642EA09065FEA8C324A
:101CC0000660426854BF22EA090642EA09065FEA52
:101CD000CC224660826854BF22EA090642EA09061D
:101CE0005FEA8C2286604FF0010C2A6854BF22EA1A
:101CF000090642EA09062E6036E700BF03B0BDE8D8
:101D0000F08F0000002A08BF09040161704700003D
:101D100040F2CC20C2F200000068704740F214008C
:101D200040F2CC21C2F20000C2F2000100780A6841
:101D3000104408607047000080B542F20000C4F211
:101D40000200016841F010010160032000F08AF8F0
:101D5000012000F005F800F027F8002080BD000009
:101D600070B540F21406C2F2000640F21C0132784F
:101D7000C2F200014FF47A730968B3FBF2F2044631
:101D8000B1FBF2F1084600F099FC0F2C4FF0010571
:101D900008D838B94FF0FF3021460022002500F066
:101DA00035F87460284670BD82B041F21800C4F264
:101DB00002000168022241F001010160016801F0A6
:101DC000010101910199416841F0805141604068F1
:101DD00000F08050009000980420C4F201000168D7
:101DE00062F31A61016002B070470000002848BF2A
:101DF000704700F01F01012202FA01F14EF20012B9
:101E00004009CEF2000242F82010704710B54EF69D
:101E10000C5CCEF2000CDCF80030C3F3022E8EF026
:101E20000704042C28BF0424BEF103034FF0FF3E37
:101E30000EFA04F438BF0023A14399400EFA03F3CD
:101E40009A43114300F00F02043A624409010C3234
:101E500000F16043B0F1FF3FC8BF03F56442117069
:101E600010BD00004EF60C51CEF200010A684FF68C
:101E7000FF031A4060F30A2242F0806040F0FD70D8
:101E80000860704780B5411E0F294FF0000039D817
:101E9000DFE801F00C2A3808383838083838383884
:101EA0003838383ABDE8804000F002BA41F2040008
:101EB000C4F20200C16940F202320A40B2F5817FE9
:101EC00004BF4FF4004080BD01F44071B1F5407F84
:101ED0004CD0B1F5007F51D1006A49F640418007EE
:101EE00001EAE07080BD00BF00F0CEF941F20401CC
:101EF000C4F2020109680222C1F3813102EB4101FF
:101F0000B0FBF1F080BD00BF41F20401C4F2020158
:101F10000A6851F8040CC0015CBF002080BDC2F308
:101F2000834017A3185CD20306D440F60012C0F217
:101F30003D0250430CE000BF0A6815A3C2F34042C3
:101F40009A5C41F20023C0F27A03B3FBF2F25043F1
:101F50000968490248BF80BD4AF6AB214000CAF675
:101F6000AA21A0FB0101480880BD00BF50F8040C65
:101F70004FF22441800301EAE07080BD002080BD63
:101F800002030405060708090A0B0C0D0E0F1010BA
:101F9000010200002DE9F04182B00446007841F2D0
:101FA0001C06C007C4F202064AD0306810F0805800
:101FB00008D1306840F080503060306800F08050C8
:101FC0000190019847F20007C4F200073868C00585
:101FD00012D4386840F480703860FFF799FE0546E7
:101FE0003868C00508D4FFF793FE401B6428F7D972
:101FF000032002B0BDE8F081706810F4407012D088
:10200000616801F4407188420DD0706840F240422E
:10201000C4F24222012320F4407113600023C00760
:10202000136071602AD17068616820F440700843C1
:10203000B8F1000F706003D1306820F0805030603C
:102040002068810707D556F8181CA26821F4404182
:10205000114346F8181CC00604D4002002B0BDE8A5
:10206000F08100BF56F8180C616920F48000084325
:1020700046F8180C002002B0BDE8F081FFF748FEDA
:10208000054641F2883700BF70688007CBD4FFF760
:102090003FFE401BB8424FF00300F5D9EBE70000CC
:1020A0002DE9F04381B0002800F0858042F200085D
:1020B000C4F202080446D8F800000D4600F00700FC
:1020C00088420CD2D8F8000020F007002843C8F856
:1020D0000000D8F8000000F00700A8426BD120688B
:1020E00041F204098107C4F2020917D5410705D559
:1020F000D9F8001041F4E061C9F80010010705D5D6
:10210000D9F8001041F46051C9F80010D9F8001056
:10211000A26821F0F0011143C9F80010C00741D1B5
:10212000D8F8000000F00700A8420CD9D8F8000049
:1021300020F007002843C8F80000D8F8000000F09D
:102140000700A84237D12068410707D5D9F8001009
:10215000E26821F4E0611143C9F80010000708D5D6
:10216000D9F80000216920F4605040EAC100C9F8A4
:102170000000D9F8002002F00C00082841F20020ED
:10218000C0F27A0050D145F28A33C2F38341C0F6DF
:102190000003595CD2033BD440F60010C0F23D006E
:1021A000484341E0606802280AD001282AD159F842
:1021B000041C890308D4012001B0BDE8F08300BFEE
:1021C00059F8041C8901F6D5D9F8001021F0030153
:1021D0000843C9F80000FFF79BFD064641F2883727
:1021E000D9F80000616800F00C00B0EB810F97D0C7
:1021F000FFF78EFD801BB842F2D9032001B0BDE885
:10220000F08300BF59F8041C8907D4D5DCE700BF70
:10221000D9F8002045F27033C2F34042C0F6000303
:102220009A5C4843B0FBF2F0D9F8001045F27232E4
:10223000C1F30311C0F60002515C40F21C0220FA07
:1022400001F140F21800C2F200000068C2F2000280
:102250001160FFF785FD002001B0BDE8F0830000AC
:1022600040F21C0041F20401C2F20000C4F202017B
:102270000068096845F28232C1F30221C0F600020B
:10228000515CC8407047000040F21C0041F204015C
:10229000C2F20000C4F202010068096845F282320D
:1022A000C1F3C221C0F60002515CC8407047000073
:1022B00041F2040CC4F2020CDCF8003003F00C0014
:1022C000082841F20020C0F27A0018BF704745F29A
:1022D0008A31C3F38342C0F600018A5CD90305D476
:1022E00040F60010C0F23D0050437047DCF800108B
:1022F00045F27033C1F34041C0F60003595C5043CE
:10230000B0FBF1F0704700002DE9F04182B00028E9
:1023100068D00446007841F20006C007C4F2020605
:1023200025D0706800F00C0004281BD0706800F005
:102330000C00082802D17068C00313D4606800281C
:1023400000F06881B0F5A02F00F07C81B0F5803FEF
:1023500000F07C81306820F480303060306820F4F8
:10236000802076E13068800301D56068D0B32078A2
:10237000800718D5706810F00C0F07D0706800F057
:102380000C0008286ED17068C0036BD430688007D9
:1023900002D52069012825D13068616920F0F80054
:1023A00040EAC1003060207800071FD42078400741
:1023B00032D4E56995B1706800F00C00082840F04F
:1023C0008F80012D0ED07068216A00F480328A421D
:1023D00008D1616A00F47010884203D1002002B075
:1023E000BDE8F081012002B0BDE8F081A0690028BD
:1023F00062D00020C4F242200121C0F88014FFF70F
:1024000087FC0546706A800700F18C80FFF780FC2E
:10241000401B0228F6D92AE1F06910F0805808D153
:10242000F06940F08050F061F06900F08050009059
:10243000009847F20007C4F200073868C00529D4A5
:10244000386840F480703860FFF762FC054600BFD2
:102450003868C0051ED4FFF75BFC401B6428F7D921
:1024600005E100BF2069002840F20000C4F24220CC
:1024700000F0828001210160FFF74AFC054600BFA1
:10248000306880073FF588AFFFF742FC401B022809
:10249000F6D9ECE0E068002800F08080052800F024
:1024A0009780012800F09880306A20F001003062A7
:1024B000306A20F0040092E00020C4F242200021A3
:1024C000C0F88014FFF724FC054600BF706A80073F
:1024D0007FF56CAFFFF71CFC401B0228F6D9C6E065
:1024E0000027C4F2422700203866FFF711FC022DB6
:1024F00005460BD13068800140F1BE80FFF708FC33
:10250000401B02284FF00300F4D968E730688001CF
:102510007FF564AFFFF7FCFB401B02284FF0030080
:10252000F4D95CE740F21C00C2F20000006844F6F7
:10253000D351C1F26201A0FB0101480A019000BF22
:1025400000BF0198411E002801913FF42FAF00BF4A
:102550000198411E002801913FF428AF00BF019867
:10256000411E002801913FF421AF00BF0198411E98
:1025700000280191E4D119E700210160FFF7C8FBB1
:10258000054600BF306880077FF50DAFFFF7C0FB41
:10259000401B02284FF00300F4D920E7306A20F0F6
:1025A00001003062306A20F004003062FFF7B0FBB7
:1025B000054641F2883700BF306A800720D5FFF713
:1025C000A7FB401BB8424FF00300F5D907E700BF57
:1025D000306A40F004003062306A40F0010030623E
:1025E000FFF796FB054641F2883700BF306A800747
:1025F00006D4FFF78DFB401BB842F7D937E000BF88
:10260000B8F1000F7FF4D5AEF06920F08050F06192
:10261000CFE600BF306820F480303060306820F4AE
:1026200080203060FFF774FB054600BF30688003F0
:102630007FF59DAEFFF76CFB401B64284FF0030055
:10264000F4D9CCE6306840F480203060306840F443
:1026500080303060FFF75CFB054600BF30688003C8
:102660003FF585AEFFF754FB401B6428F6D90320E5
:1026700002B0BDE8F08100BF206AB0F5803F05D10F
:102680007168A26821F40031114371607168626A57
:1026900021F4741110430843706001203866FFF77D
:1026A00037FB0446306880013FF598AEFFF730FBFA
:1026B000001B02284FF00300F4D990E6411E0020D1
:1026C000B0EB116F1CBF012070474EF21002CEF22A
:1026D000000251604EF62351CEF20001F0230B7040
:1026E000072190601160704770470000704700003C
:1026F00010B590F83C20012A4FF002023FD080F83C
:102700003D200268D2F804E0D2F808C00C682EF030
:102710007003234340F6FF34C4F20004A242536026
:1027200010DCB2F1804F1FD040F20043C4F200032E
:102730009A4219D040F60003C4F200039A4213D023
:1027400017E000BF40F60043C4F200039A420BD0EA
:1027500043F20043C4F201039A4205D042F600431B
:10276000C4F201039A4204D149682CF08003194352
:1027700091600121002280F83D1080F83C20104635
:1027800010BD0000002804BF0120704710B50446AA
:1027900090F83D0028B9002084F83C00204600F065
:1027A00085F8022084F83D00206840F6FF33026877
:1027B000C4F2000343F2004C9842C4F2010C21DC45
:1027C000B0F1804F2CD040F20041C4F200018842A9
:1027D00026D040F60001C4F20001884220D0984281
:1027E00024DCB0F1804F2FD040F20041C4F2000150
:1027F000884229D040F60001C4F20001884223D06B
:1028000026E000BF40F60041C4F20001884207D034
:10281000604505D042F60041C4F201018842DED194
:10282000A16822F070020A439842DADD40F60041C6
:10283000C4F20001884207D0604505D042F600414D
:10284000C4F20101884203D1216922F440720A4393
:10285000A36922F08001D4F804E0E26819436045DE
:102860000160C262C0F828E005D042F60041C4F21F
:102870000101884201D161690163012141610020A8
:1028800084F8461084F83E1084F83F1084F8401015
:1028900084F8411084F8421084F8431084F84410FE
:1028A00084F8451084F83D1010BD000080B582B05A
:1028B0000068B0F1804F1CBF02B080BD41F21C0027
:1028C000C4F202000168002241F0010101600068C9
:1028D000022100F00100019001981C20FFF796FAF8
:1028E0001C2002B0BDE88040FFF780BA90F83D1090
:1028F00001291CBF01207047022180F83D100068AB
:1029000040F6FF32C168C4F20002904241F001017A
:10291000C1600FDCB0F1804F1ED040F20041C4F224
:102920000001884218D040F60001C4F2000188423C
:1029300012D018E040F60041C4F2000188420BD0EA
:1029400043F20041C4F20101884205D042F6004141
:10295000C4F20101884206D1816801F0070106290D
:1029600004BF00207047016841F0010101600020B0
:102970007047000080B590F83C20012A4FF0020219
:1029800000F0BF8080F83D20D0F800C04FF677728D
:10299000DCF8083023EA0202CCF808200B683F2B51
:1029A0001CDD5F2B20DD602B50D0B3F5005F6DD0B8
:1029B000702B40F0A080D1E901E3C968DCF8082061
:1029C00043EA0E0322F47F4243EA01211143CCF88B
:1029D0000810DCF8081041F077018AE01F2B29DC91
:1029E00063B3102B2AD086E0402B63D0502B40F0ED
:1029F0008280D1F804E0C968DCF82030DCF82020BF
:102A000022F00102CCF82020DCF8182022F0F0029D
:102A100042EA011123F00A0242EA0E02CCF8181031
:102A2000CCF82020DCF8081041F0570121F02001FB
:102A30005FE000BF202B01D0302B5CD1DCF8081008
:102A400021F07001194341F0070152E0D1F804E090
:102A5000C968DCF8203023F01003CCF82030DCF813
:102A60001830DCF8202023F4704322F0A00243EA5F
:102A7000013142EA0E12CCF81810CCF82020DCF814
:102A8000081041F0670121F0100132E0D1E901E3C3
:102A9000C968DCF8082043EA0E0322F47F4243EAC7
:102AA00001211143CCF80810DCF8081041F48041F2
:102AB0001FE000BFD1F804E0C968DCF82030DCF882
:102AC000202022F00102CCF82020DCF8182022F08F
:102AD000F00242EA011123F00A0242EA0E02CCF8A7
:102AE0001810CCF82020DCF8081041F0470121F044
:102AF0003001CCF808100121002280F83D1080F848
:102B00003C20104680BD00007047000010B50168F1
:102B100004460869800744BFC8685FEA807039D4FA
:102B20000869400744BFC8685FEA40703ED408693E
:102B3000000744BFC8685FEA007045D40869C00652
:102B400044BFC8685FEAC0604AD40869C0071CBFB8
:102B5000C8685FEAC07051D10869000644BFC86800
:102B60005FEA006052D40869400644BFC8685FEA63
:102B7000406053D40869800646BFC8685FEA806039
:102B800010BD6FF0200220460A61BDE81040FFF73B
:102B9000ADBD00BF6FF00200086101202077886999
:102BA000800743D02046FFF7AFFF45E06FF00400F9
:102BB000086102202077886910F4407F40D02046C9
:102BC000FFF7A2FF42E000BF6FF008000861042099
:102BD0002077C86980073DD02046FFF795FF3FE08A
:102BE0006FF01000086108202077C86910F4407F5A
:102BF0003AD02046FFF788FF3CE000BF6FF00100AD
:102C00000861204600F03EF82168A5E76FF08000DB
:102C100008612046FFF768FD2168A4E76FF04000D7
:102C20000861204600F030F82168A3E7204600F054
:102C300025F8204600F024F82168002020776FE76F
:102C4000204600F01BF8204600F01AF8216800200A
:102C500020776CE7204600F011F8204600F010F8CD
:102C600021680020207769E7204600F007F8204619
:102C700000F006F821680020207766E77047000022
:102C80007047000001F0DAB870470000704700009C
:102C900070470000B0B582B0026805461068D3687E
:102CA000546900F02F01202903F0200106D129B139
:102CB000284602B0BDE8B04000F0EABC5FEA007C04
:102CC0001EBF04F0010E03F4907414EB0E0455D1F2
:102CD000296B012905D110F0100118BF13F0100164
:102CE00036D1010622D513F080011FD095F83D00A2
:102CF000212841D1A868B0F5805F03D12869002858
:102D000000F0F680286A411C296200785060E88C47
:102D100001380104E8842FD1D06820F08000D06011
:102D2000D06840F04000D06002B0B0BD400623D56E
:102D300013F0400020D0D068202120F04000D06067
:102D4000284685F83D1002B0BDE8B04000F066BAF4
:102D5000002001901068019050680190019850691E
:102D6000400613D4A88DE98DEB8D002B1CBF401AB3
:102D70005FEA004140F0A48002B0B0BDC40718BFB4
:102D800013F480732CD1430730D436E0A86B01686C
:102D90004B689CB2002CEFD0A98D8C42ECD2EB8515
:102DA0008369202B17D0D16821F48071D1605169DB
:102DB00021F001015161516921F04001516120214F
:102DC00085F83E1000212963D16821F01001D160FF
:102DD000FEF7CAFDA98DE88D081A81B2284682E067
:102DE0002B6C43F001032B64430706D5BEF1000FA3
:102DF00003D02B6C43F002032B64830706D5BEF18E
:102E0000000F03D02B6C43F004032B64BCF1000FC4
:102E100006D551EA0E0303D02B6C43F008032B6454
:102E20002B6C002BA8D010F0200018BF002903D075
:102E3000284600F02DFC2A685069296C00F04000FB
:102E400001F0080140182DD0D06820F49070D060B7
:102E5000506920F001005061286B012803D1D0682F
:102E600020F01000D060202085F83E00002028636C
:102E7000506940061ED5506920F040005061A86B93
:102E8000C0B143F28561C0F600014163FEF790FDD9
:102E900000283FF471AFA86B416B02B0BDE8B040B1
:102EA000084700BF2846FFF7F3FE0020286402B061
:102EB000B0BD00BF284602B0BDE8B040FFF7E8BE95
:102EC000D16821F49071D160516921F00101516103
:102ED000202185F83E1000212963D16821F01003DC
:102EE00081B22846D36002B0BDE8B040FFF7CEBE45
:102EF000286A30F8021B6FF35F215160286206E7F1
:102F0000002804BF0120704710B5044690F83D002A
:102F100028B9002084F83C00204600F05FF8242007
:102F200084F83D002068D4E90212C36823F40053FA
:102F3000C360036923F440531A430261D4E90423B4
:102F40001143C268194341F20C639A431143C160B3
:102F50004169A26921F44071114343F60002C4F2B1
:102F600001029042416103D0FFF77AF902E000BF0D
:102F7000FFF78AF96268192148439100B0FBF1F02C
:102F800048F21F51C5F2EB11A0FB01235A096FF063
:102F9000630302FB0300322303EB0010A0FB0101DB
:102FA000F02303EA5113206803EB0212C1F343112B
:102FB00011448160016921F490410161416921F06E
:102FC0002A014161C16841F40051C1600020202103
:102FD000206484F83D1084F83E1010BD70B586B0B2
:102FE00040F60004C4F20104006804F540510026D4
:102FF0008842049602D006B070BD00BF41F21800AE
:10300000C4F20200016802AD41F480410160016830
:1030100001F4804101910199016841F004010160CE
:103020000068294600F00400019001984FF40070F8
:10303000029002200390032005902046FEF760FDD9
:103040004FF48060CDE90206204629460496FEF73B
:1030500057FD252002210022FEF7D8FE2520FEF78D
:10306000C5FE06B070BD0000704700002DE9F043BA
:1030700081B0044690F83D0020280DD10F4600296C
:103080004FF0010000F092801646002A00F08E807A
:1030900094F83C00012803D1022001B0BDE8F08380
:1030A000012084F83C004FF0000921201D46C4F89F
:1030B000409084F83D00FEF72BFEA684E684A168CC
:1030C0008046B1F5805F25D1206900281CBF3846B5
:1030D0004F463E46074684F83C90E08C00B3681C9F
:1030E00020D0002D66D120680BE000BF36F8021B0F
:1030F00000276FF35F214160E18C0139E184E18CAD
:1031000081B30168090675D5002FEFD017F8011BB0
:10311000F1E700BF002684F83C90E08C0028DED167
:1031200020681FE0206802E00168090609D40168F0
:10313000090606D4016809065CBF01685FEA0161FF
:10314000F2D51FB117F8011B05E000BF36F8021BCE
:1031500000276FF35F214160E18C0139E184E18C4C
:103160000029E4D1016849061CD4002D42D0691C15
:103170000ED10168490615D4016849065CBF016893
:103180005FEA41610ED401684906F2D50AE000BF4A
:10319000FEF7BEFDA0EB08012068A9422AD800680E
:1031A0004006F5D5202084F83D00002001B0BDE8A0
:1031B000F08300BF206800BF0168090608D4FEF74D
:1031C000A7FDA0EB08012068A942F5D912E000BFD5
:1031D00017B117F8011B04E036F8021B00276FF344
:1031E0005F214160E18C0139E184E18C0029E3D168
:1031F000B8E700BFC16821F4D071C160416921F016
:1032000001014161202084F83D0084F83E00002047
:1032100084F83C00032001B0BDE8F0837047000053
:10322000FEE7000010B582B04FF42851ADF8001051
:10323000E2218DF80210E4218DF8051040F2F4111E
:103240000022C2F200010823C1E900020B6140F232
:10325000401040F2D413ADF80320ADF80620C1E9C8
:103260000222C2F20000C2F200036A46FDF7C8FF64
:10327000032000F0BDFC40F23814C2F20004B4F8A0
:1032800003000021000400BAC4F2C821FDF727F8AA
:10329000FDF731FA02460DA00B4600F06FFFE08803
:1032A0004FF06451000400BAFCF7E7FF48F2000158
:1032B000C4F23B51FCF7E1FFFDF71DFA02460CA0FA
:1032C0000B4600F05BFF02B010BD00BF4C696E659D
:1032D00061724163747561746F725F637572726558
:1032E0006E743A20252E3366206D6D0D0A000000A5
:1032F0004C696E6561724163747561746F725F735E
:10330000706565643A20252E3366206D6D0D0A00C8
:1033100080B582B04FF42851ADF80010E8218DF847
:103320000210E9218DF8051040F2F4110022C2F2DA
:1033300000010823C1E900020B6140F2401040F295
:10334000D413ADF80320ADF80620C1E90222C2F281
:103350000000C2F200036A46FDF752FF032000F0AE
:1033600047FC40F23810C2F20000C188027909041B
:1033700009BAC07841EA024141EA006044F2000122
:10338000C4F21C51FCF7ABFFFDF7B5F9024603A0F0
:103390000B4600F0F3FE02B080BD00BF4C696E65C5
:1033A00061724163747561746F725F706F73697479
:1033B000696F6E3A20252E3366206D6D0D0A000070
:1033C0002DE9F04F83B016460A4644F20001044648
:1033D000C4F21C511046FCF750FF48F200010546AC
:1033E000C4F23B513046FCF77AFF4FF08C41FCF7BA
:1033F00044FFFDF748F91D2240F2F41640F240194F
:1034000040F2D418010A8DF809204FF48072C2F2FC
:103410000006C2F20009C2F200084FF4D05B002798
:10342000ADF807208DF80B008DF80A104FF0080A50
:1034300001AA484631464346ADF804B08DF80670FF
:10344000C6E90047C6E90277C6F810A0FDF7D8FE26
:10345000032000F0CDFB5023280C290E2A0A8DF8FA
:10346000063005238DF809308DF808008DF8071017
:103470008DF80A2001AA484631464346ADF804B00B
:103480008DF80B50C6E90047C6E90277C6F810A0D0
:10349000FDF7B6FE032000F0ABFB03B0BDE8F08FF4
:1034A000B0B584B040F20C2042F20041C2F20000FC
:1034B000C4F20101002401254FF460220573047554
:1034C000C261C0E9001484600561FDF7FDFB0028BE
:1034D00018BFFDF723FB0820CDE9010540F20C20C1
:1034E000C2F2000001A90394FDF71EFB002818BFDB
:1034F000FDF714FB04B0B0BD10B540F2401046F229
:103500000041C2F20000C4F2000140F200140422A3
:103510000023C0F2010480E80E0000F10C014FF41A
:10352000403C4FF4401E81E8085084618383FEF7DD
:10353000FDF8002808BF10BDBDE81040FDF7EEBA49
:1035400070B584B041F21800C4F20200016841F67F
:10355000000441F0400101600168C4F2010401F07F
:103560004001009100990168012241F008010160C9
:103570000168202501F008010091009901680126E9
:1035800041F0040101600068202100F00400009077
:1035900000982046FEF7B6FB002002900220039020
:1035A00069462046CDE90056FEF7AAFA04B070BD80
:1035B00080B586B040F23C200021C2F200004FF0FE
:1035C000630C0591CDE90311CDE900114FF0804264
:1035D00041F61F43C0E9021C01618021C0E90023BC
:1035E0008161FFF7CFF8002818BFFDF797FA4FF475
:1035F0008050029040F23C20C2F2000002A9FFF786
:10360000B9F9002818BFFDF789FA40F23C20C2F250
:1036100000006946FFF76CF8002818BFFDF77EFA36
:1036200006B080BD80B540F2842043F60001C2F2AE
:103630000000C4F2010100234FF00C0C4FF4E13202
:1036400080E80E00C0E90333C0E905C3C361FFF79A
:1036500057FC002808BF80BDBDE88040FDF75EBA7A
:10366000FEE70000FEE70000704700007047000022
:10367000FEF754BB7047000040F23C20C2F200004D
:10368000FFF744BA406A0021C185C184FFF700BB3F
:1036900081B090F83E10222920D18368B3F5805F75
:1036A00008D10169002941D000F128010A680368A6
:1036B0005B680AE0014651F8282F13B90369002B13
:1036C000F5D003685B6803F07F0313700A6801326A
:1036D0000A60C18D01390A04C18501D001B070476B
:1036E0000168CA6822F02002CA60CA6822F48072A7
:1036F000CA604A6922F001024A61202280F83E2015
:10370000026B012A1CD100220263CB6823F0100354
:10371000CB600B68DB0605D500920A680092496809
:1037200000910099818D01B0FFF7B0BA0168826AFB
:1037300049686FF35F2122F8021B8262C9E700BF6C
:1037400001B0FFF791BC000040F28420C2F20000FB
:10375000FFF7A0BA40F24010C2F20000FDF7B6BE7B
:10376000FEE70000F0B583B0044600200190A01EE3
:1037700015460E46A4210428009113D8DFE800F076
:10378000041A2836440000BF0021C4F261513046BB
:10379000FCF773FD06464FF461604543A8B2070A83
:1037A0003EE000BF45F2CA30C0F600002F0A01F02B
:1037B000E7FC35E00021C4F248413046FCF75DFDEE
:1037C00006464FF448704543A8B2070A28E000BFF8
:1037D0000021C4F261513046FCF74FFD06464FF41C
:1037E00061604543A8B2070A1AE000BF0021C4F295
:1037F00048413046FCF741FD06464FF448704543CA
:10380000A8B2070A0CE000BF0021C4F27A4130469A
:10381000FCF733FD06464FF47A704543A8B2070A19
:10382000300A8DF80500300C8DF80600300E40F29D
:10383000F4118DF8070004F5A070C2F20001002217
:103840000823C1E900020B6140F2401040F230133E
:10385000C1E90222C2F20000C2F200036A468DF8FA
:1038600002508DF803708DF80460FDF7C9FC03B0B9
:10387000F0BD00002DE9F04F8BB040F20801C2F21C
:1038800000010E784D78896804460846FCF733FF3E
:1038900002460B46FCF761FD41F26F2242F2CA1369
:1038A000CCF28302C4F20903FCF7FEFDFCF736FFFD
:1038B00040F2901BC2F2000BCBF804002046FCF74C
:1038C000DDFE002D00F09E8081467000C1B240F206
:1038D000200702910131013001230022C2F20007CA
:1038E0000191009008E000BF00260099AB4203F16F
:1038F00001030A4480F086800199581E48430299CA
:10390000C0B2084407EB800040680BEB830431062B
:1039100044F8080FE8D0D1B207EB8101A1F1080A01
:103920000025CDE9033205940135FCF7E4FE0A9049
:10393000DAF80C40DBF8046028460991FCF795FEA4
:10394000804630464146FCF798FC074620463946FB
:10395000FCF7C5FCFCF7CFFECDE907103846494619
:10396000FCF78BFCFCF7C7FE01F01CFC0690DBF8B3
:1039700004004C46DAF810908B464146FCF77DFC7B
:10398000064648463146A146FCF7A9FCFCF7B3FEC3
:1039900007460C4630464946FCF76FFCFCF7ABFE89
:1039A00001F0A0FB3A4640F208072346C2F20007A6
:1039B000FCF77AFD04460E460898DDE906215B46D1
:1039C00040F2901BC2F2000BFCF76EFD224633461C
:1039D000FCF764FD02460B46DDE90910FCF7BDFC6F
:1039E000FCF79CFE3E78059CB5420AF1080A20606F
:1039F0009AD37D78DDE9033240F22007C2F2000756
:103A000073E700BF0BB0BDE8F08F000080B582B057
:103A1000019040F28420C2F2000001A901224FF679
:103A2000FF73FFF723FB019802B080BD96B0FEF74D
:103A300083F900240120CDE91144CDE90F440C9015
:103A400010904FF4E0104FF48031022515900CA82F
:103A50000694CDE90444CDE90244CDE90D14CDE945
:103A60001351FEF751FC28B1EFF3108072B600BF7E
:103A7000FEE700BF0F20CDE907054FF48060CDE9D8
:103A80000A0407A802210994FEF70AFB20B1EFF30C
:103A9000108072B6FEE700BF022001904FF4004094
:103AA000039001A8FEF776FA20B1EFF3108072B60A
:103AB000FEE700BFFFF744FDFFF71EFDFFF7B2FD75
:103AC000FFF7EEFCFFF774FDFCF7F6FF00F032FBAA
:103AD000022000F06BF8032000F068F8042000F0EA
:103AE00065F8052000F062F8062000F05FF800F0AD
:103AF000A9FA41F28830FDF7EFFF0120FFF708FC3B
:103B00000120FFF78FFB00F075F8012000F0C2F8EC
:103B1000022000F04DF9022000F0BCF8032000F074
:103B200047F9032000F0B6F8042000F041F9042022
:103B300000F0B0F8052000F03BF9052000F0AAF8ED
:103B4000062000F035F9062000F0A4F840F23C20F1
:103B5000C2F20000FEF7CAFE0120FFF7D9FB0120E8
:103B6000FFF760FB00F046F8012000F093F8022018
:103B700000F01EF9022000F08DF8032000F018F983
:103B8000032000F087F8042000F012F9042000F070
:103B900081F8052000F00CF9052000F07BF80620E4
:103BA00000F006F9062000F075F8D5E780B582B080
:103BB0008821009140F2F411002200F5A070C2F2B9
:103BC00000010823C1E900020B6140F2401040F2FD
:103BD00030130192C1E90222C2F20000C2F20003D6
:103BE0006A46FDF70DFB0320FDF776FF02B080BDAE
:103BF0007047000010B540F20C24C2F200042046C9
:103C0000FDF780FA20460A21FDF748F92046FDF726
:103C100055F840F2D0148005C2F2000408D540F2F5
:103C20000C20C2F20000FDF74BF8FCF727FD2060E6
:103C300040F20C20C2F20000FDF742F8FCF71EFD36
:103C40002060FCF758FD46F26663C4F20A034FF0A9
:103C50006632FCF729FC0023C3F630730022FCF720
:103C600023FC024602A00B46BDE8104000F086BAD5
:103C7000204C696E6561724163747561746F725F27
:103C80005072657373757265203D20252E3366561C
:103C9000200D0A00B0B582B092210546009140F295
:103CA000F411002005F5A072C2F2000140F23014B8
:103CB00001900823C1E90020C1E9020040F2401050
:103CC000C2F200040B61C2F200006A462346FDF70F
:103CD00097FA0120FDF700FFE07BB4F80D20D4F83F
:103CE0000940A91E042942EA004011D8DFE801F08A
:103CF000041A26323E0000BF20F07F4120464FF4D8
:103D000061620023FCF730FA04460D4638E000BF3C
:103D100020F07F4545F2CA30C0F6000001F030FACD
:103D20002EE000BF20F07F4120464FF44872002370
:103D3000FCF71AFA04460D4622E000BF20F07F414E
:103D400020464FF461620023FCF70EFA04460D464C
:103D500016E000BF20F07F4120464FF44872002358
:103D6000FCF702FA04460D460AE000BF20F07F414E
:103D700020464FF47A720023FCF7F6F904460D460C
:103D800004A022462B4600F0F9F90320FDF7A4FE1B
:103D900002B0B0BD6D6F746F725F616E676C653A33
:103DA00020252E336C6C642064750D0A0000000021
:103DB00010B582B09C21009140F2F411002200F570
:103DC000A070C2F2000140F230140823C1E90002E1
:103DD00040F24010C2F200040192C1E902220B61DC
:103DE000C2F200006A462346FDF70AFA0120FDF7F9
:103DF00073FE60894FF06851FCF73FFA0021C4F26E
:103E00000421FCF73AFAFCF776FC024645F29A30B8
:103E1000C0F600000B4600F0B1F9A089FCF76BFC7E
:103E2000024645F2B230C0F600000B4600F0A6F99B
:103E30000320FDF751FE02B010BD00002DE9F04750
:103E400040F29016C2F200063078FCF717FC40F200
:103E5000080AC2F2000ADAF80410024608461146BF
:103E6000FCF70BFAFCF70FFCFFF704FDF0680021EC
:103E7000B46AC4F27A41FCF700FA21460546F060C4
:103E8000FCF7F5F9DAF80410FCF729FA20F0004005
:103E90004FF07E51FCF799F9014601202A46FFF7C1
:103EA0008FFAD6E90310F76AB162FCF724FC41F2FD
:103EB0006F2842F2CA19CCF28308C4F209094246BB
:103EC0004B46FCF763FB48F20005C4F2660500228E
:103ED0002B46FCF7E9FAFCF721FC39460446306131
:103EE000FCF7C5F9DAF80410FCF7F9F920F0004006
:103EF0004FF07E51FCF769F9FCF7C5FB0246022042
:103F00002146FFF72FFCD6E90410376BF162FCF76E
:103F1000F2FB42464B46FCF739FB00222B46FCF7EE
:103F2000C3FAFCF7FBFB394604467061FCF79FF9C6
:103F3000DAF80410FCF7D3F920F000404FF07E517E
:103F4000FCF743F9FCF79FFB024603202146FFF7ED
:103F500009FCD6E90510776B3163FCF7CCFB4246D0
:103F60004B46FCF713FB00222B46FCF79DFAFCF7AF
:103F7000D5FB39460446B061FCF779F9DAF804104C
:103F8000FCF7ADF920F000404FF07E51FCF71DF931
:103F9000FCF779FB024604202146FFF7E3FBD6E954
:103FA0000610B76B7163FCF7A6FB42464B46FCF765
:103FB000EDFA00222B46FCF777FAFCF7AFFB394607
:103FC0000446F061FCF753F9DAF80410FCF787F9BE
:103FD00020F000404FF07E51FCF7F7F8FCF753FB60
:103FE000024605202146FFF7BDFBD6E90710F76B17
:103FF000B163FCF780FB42464B46FCF7C7FA002250
:104000002B46FCF751FAFCF789FB3946044630622F
:10401000FCF72DF9DAF80410FCF761F920F0004004
:104020004FF07E51FCF7D1F8FCF72DFB024606203D
:104030002146FFF797FB306A3178F063481C3070F7
:10404000BDE8F0872DE9F04F83B00022C4F2702262
:10405000012000210025FFF7B3F940F2F41440F2EB
:10406000401640F2301840F2A40BC2F200044FF4A4
:10407000A170C2F20006C2F200086F46CEF6806B55
:104080004FF00809C4E90005304621463A46434648
:10409000CDE900B5C4E90255C4F81090FDF7B0F8B9
:1040A00040F2A40A40F24310C3F2005AC4E90005EA
:1040B000304621463A464346CDE900A5C4E90255BB
:1040C000C4F81090FDF79CF84FF4A270C4E9000505
:1040D000304621463A464346CDE900B5C4E902558B
:1040E000C4F81090FDF78CF840F24510C4E90005C3
:1040F000304621463A464346CDE900A5C4E902557B
:10410000C4F81090FDF77CF80AF15460CDE9000581
:104110004FF4A370C4E90005304621463A464346B1
:10412000C4E90255C4F81090FDF76AF803B0BDE881
:10413000F08F000070B540F20801C2F20001D1E931
:104140000104FCF7D8FA0B4600210246C3F6F071D1
:104150000020FCF71BFA054620460E46FCF7CBFA7A
:1041600002460B4628463146FCF710FAFCF7A4FA43
:1041700040F2C821C2F20001087070BD0FB4054BB7
:1041800010B503A9044A029800F014FC10BC5DF8B5
:1041900014FB00000D3A000800000020490050EA1E
:1041A000C12018BF04204A0D18BF40F0010040F2A2
:1041B000FF72B2EB515F08BF40F00200012808BF58
:1041C000052070472DE9F74F144694B00021C4E94B
:1041D00002111599079121F00045C9498D4206DC6D
:1041E0001599C4E9000117B00020BDE8F08FC5495A
:1041F000DFF814A3A9423CDD0799C44E0029C44F3F
:10420000C44A1599534619DDFCF748F9554506D0BF
:10421000C14AC24BFCF742F9C4E900010AE04FF081
:10422000D352BE4BFCF73AF932463B46FCF736F91F
:10423000C4E9000117B00120BDE8F08FFCF78DF84C
:10424000554506D0B44AB54BFCF787F8C4E90001E0
:104250000AE04FF0D352B14BFCF77FF832463B46B1
:10426000FCF77BF8C4E9000117B04FF0FF30BDE860
:10427000F08FAB49A942159978DB21F000418346C4
:104280008846A84AA84BFCF70FF90022A74BFCF779
:1042900064F8FCF711FA0990FCF791FB06460F460B
:1042A0009C4A5346FCF700F943465A46FCF7F9F896
:1042B00080468A46984A994B30463946FCF7F4F8CE
:1042C0002A0D01250B9242465346FCF7EAF8032DCE
:1042D000C4E9000139D00B98C1F30A51401A05EB2B
:1042E00045111139814230DA9148C346784400EBD8
:1042F0000510CDF80CA00C90D0E9002330463946CB
:10430000FCF7D2F802460B460491069058460399F2
:10431000FCF7C4F880468A4602460B465846039985
:10432000FCF7BCF8049B069AFCF7B8F883460C9897
:1043300003913946D0E902233046FCF7B5F85A46D6
:10434000039BFCF7ABF86D1CBDE707980028A2BFE4
:10435000099817B0BDE8F08F616881F00041616095
:10436000099817B04042BDE8F08FFFE784461598E2
:10437000C1F31301C0F30A50A0F2F5304FEA601800
:1043800000F01F06C6F12000139000200690079051
:1043900041F4801E05206D4676B1664A08EB0001A7
:1043A0007A4452F8213002EB8101B3404A681399F4
:1043B00022FA01F1194305E05F4908EB0002794454
:1043C00051F82210A1FB0E27A1FB0C131A449A42AC
:1043D00034BF0123002303EB070A05EB8003D3E975
:1043E00001B70F448F4234BF0121002193448B4415
:1043F00011B1934502D903E0934501D2012100E0B8
:104400000021C3E901B7514445F82010011EA0F175
:104410000100C1DC0298059F00F10050800F12904E
:104420000298DDE903568000FCF7C9FA8346284666
:104430000D91FCF7D5FA6FF01D02FCF7A9FACDE952
:104440000E013046FCF7CCFA6FF03D02FCF7A0FA03
:1044500080468A463846FCF7C3FA6FF05D02FCF7E7
:1044600097FA0746424653461191FBF776FFDDE97E
:104470000E23FBF772FF5A460D9BFBF76EFF0025DC
:104480000E465A4628460D9BFCF708F8DDE90E2338
:10449000FCF704F842465346FCF700F83A46119BF5
:1044A000FBF7FFFFDFF898A0244A5346FBF7FCFF19
:1044B00007468846234A244B31462846FBF7F4FF3B
:1044C0003A464346FBF749FF074688464FF0A84265
:1044D000534631462846FBF7E7FF3A464346FBF78B
:1044E0003CFF159A12F0004F04D0129A81F000415F
:1044F00052421292C4E90001129817B0BDE8F08F41
:10450000FB21E93F7CD90240FB21F93F7370032E68
:104510008A19A33B000040543163621A61B4D03D54
:10452000FB21394183C8C96D305FE43F0000E03FA3
:10453000880F0000040F0000E60E0000182D445400
:10454000FB21F93D3326A611460B113C2DE9FF4D09
:1045500021F0004807460C46B8F1795F08DAFCF70D
:10456000ABF8002801BF0020324904B0BDE8F08D4F
:104570003A46234610461946FBF796FF0546024683
:104580002D480E460B460621784400F05DF82A4679
:104590003346FBF789FFDDE9022382468B46384626
:1045A0002146FBF781FF04460F4652465B462846EC
:1045B0003146FBF779FF22463B46FBF76FFF074684
:1045C0008A464FF0FF3228463146FCF7E1F91B4A94
:1045D00090450ADA3A465346FBF760FF04B00022E2
:1045E000BDE8F04D134BFBF75CBF154A4245A8BF31
:1045F000A8F500154FF00004B8BF124D22462B4617
:10460000FBF74CFF0646884622462B460020094908
:10461000FBF744FF04460D463A46534630464146B2
:10462000FBF73CFF04B022462B46BDE8F04DFBF7FC
:1046300038BF00000000F03FBC0C00003333D33F14
:104640000000E93F0000D23F2DE9F0414F1E00EB92
:10465000C7010446D1E9000115461E4637F006029F
:104660000DD02A463346FBF71FFF7F1E04EBC7031E
:10467000D3E90023FBF771FE37F00602F1D1022FD8
:1046800025D0042F13D0062F18BFBDE8F0812A468D
:104690003346FBF709FFD4E90A23FBF75EFE2A46FF
:1046A0003346FBF701FFD4E90823FBF756FE2A4601
:1046B0003346FBF7F9FED4E90623FBF74EFE2A4604
:1046C0003346FBF7F1FED4E90423FBF746FE2A4606
:1046D0003346FBF7E9FED4E90223FBF73EFE2A4608
:1046E0003346FBF7E1FED4E90023BDE8F041FBF7D8
:1046F00034BE00002DE9FF4D054621F0004084B096
:104700000C46B0F1795F0BDA2846FFF747FD042825
:1047100008BF00F06FF8284608B02146BDE8F08DCC
:104720002A460B461046FBF7BFFE06460F462A46B2
:104730002346FBF7B9FE804626488A4632463B466A
:1047400005217844FFF780FF83461098029160B3FB
:10475000214A224B40465146FBF7A6FECDE9000117
:104760005A4640465146029BFBF79EFE82468846CB
:10477000DDE906014FF0FF32FCF70AF952464346E5
:10478000FBF78CFE32463B46FBF78EFEDDE9062347
:10479000FBF784FEDDE90023FBF780FE08B02A4624
:1047A0002346BDE8F04DFBF77CBE0B465A4630462B
:1047B0003946FBF779FE084A084BFBF7CEFD424627
:1047C0005346FBF771FE08B02A462346BDE8F04D7C
:1047D000FBF7C3BD020C0000495555555555C5BFE3
:1047E0000122FCF7D5B80022134610461146FBF70C
:1047F000CDBE0000024A00201107FCF7C9B8000036
:1048000001FDFFFF02E008C8121F08C1002AFAD10B
:1048100070477047002001E001C1121F002AFBD140
:104820007047000001490860704700000400002044
:104830002DE9FF5F82B00021DDE90430020DDDF8D3
:1048400040B0034318D044F61050A2F2FF32424366
:104850001514119801281FD0A5EB0B00401C5FEA2E
:10486000000A4FF000064E4FDFF83891B046504630
:1048700015D5CAF1000413E0119801244AA30128B8
:1048800001D16FEA0B010298119AC0E90031C0E929
:10489000024206B0BDE8F09FCBF10000DFE704461E
:1048A0000021404A491842EB0450CDE9001012E0C3
:1048B000E00707D032463B4640464946FBF7F4FD49
:1048C0008046894632463B4610461946FBF7ECFDCA
:1048D00006460F466410002CEAD1DDE90401DDE94B
:1048E0000023BAF1000F06DAFBF7DEFD42464B4625
:1048F000FBF7DAFD05E0FBF749FE42464B46FBF7C6
:1049000045FE04460E460022284BFCF717F803D854
:104910004FF0FF30014607E00022254B204631468C
:10492000FBF71BFDFBF7F1FF102409E0002C0ADB6D
:104930000A220023FBF718FC039B30321A55641E31
:1049400050EA0102F2D1641C039AC4F11103144429
:10495000119A012A03D0012208430DD10AE008432D
:1049600004D000204FF0110B119072E7A3EB0B0560
:104970006D1E0DE05B4504DD4FF0000205F1010501
:1049800004E003DA4FF00002A5F10105002AECD0A3
:1049900002981199C0E90231C0E9004579E70000A9
:1049A000000014400000F03F300000000000F04321
:1049B0000000E03F2DE9FF4F95B09B468946064633
:1049C00000250FE2252877D100242746F84A012147
:1049D000059400E0044316F8013F203B01FA03F080
:1049E0001042F7D130782A2811D06FF02F03307899
:1049F000A0F13002092A16D8059A44F0020402EB0D
:104A0000820203EB42021044761C0590EFE759F84E
:104A1000042B0592002A03DA504244F40054059016
:104A200044F00204761C30782E2816D116F8010FB7
:104A300044F004042A280DD06FF02F023078A0F142
:104A40003003092B09D807EB870302EB4303C71890
:104A5000761CF3E759F8047B761C30786C280FD06D
:104A600006DC4C2817D068280DD06A2814D104E041
:104A7000742810D07A280FD10DE044F400140AE015
:104A800044F4801401E044F440147278824202D16C
:104A900004F58014761C761C307866280BD013DC65
:104AA000582877D009DC002875D04528F6D046284C
:104AB000F4D047281AD19DE118E0632835D0642846
:104AC00079D0652812D195E1702873D008DC672869
:104AD000F1D069286FD06E280DD06F2806D1B5E0CF
:104AE00073282CD0752875D0782874D05A46179919
:104AF00090476D1C75E1C4F30250022809D00328C9
:104B00000DD0D9F8001004280DD00D6009F104096A
:104B100067E1D9F80010EA17C1E90052F6E7D9F8C1
:104B200000100D80F2E70D70F0E719F8041B8DF806
:104B3000001000208DF80100EA46012003E059F83A
:104B400004AB4FF0FF3061074FF0000102D40DE0DD
:104B500008F101018846B9420FDA8045F8DB1AF8FE
:104B600008100029F4D108E008F1010188468142CB
:104B7000FADB1AF808100029F6D105985B46A0EB7D
:104B8000080721463846179A00F094FA284400EBAB
:104B9000080507E04DE029E10DE01AF8010B5A463F
:104BA00017999047B8F10108F7D25B46214638467D
:104BB000179A13E142E00A220092C4F302524FF026
:104BC000000A022A08D059F804CB032A4FEAEC71F4
:104BD0000AD00DE029E02AE009F1070121F00702DF
:104BE000F2E802C1914609E00FFA8CFC4FEAEC7141
:104BF000042A03D14FFA8CFC4FEAEC71002907DA42
:104C00000A460021DCF1000C61EB02012D2202E0DA
:104C1000220504D52B228DF80420012203E0E207AF
:104C200001D02022F7E7904659E00A2102E0102245
:104C30000DE010214FF0000A00910BE010224FF020
:104C4000000A44F004040827009203E008224FF011
:104C5000000A0092C4F30252022A05D059F804CB8C
:104C60000021032A08D009E009F1070121F0070219
:104C7000F2E802C1914605E01FFA8CFC042A01D13A
:104C80000CF0FF0C4FF00008220728D5702806D042
:104C9000009B83F0100353EA0A0305D00EE0402284
:104CA0008DF80420012208E05CEA010206D03022DF
:104CB0008DF804208DF8050002229046009B83F0B9
:104CC000080353EA0A030AD15CEA010201D1620730
:104CD00005D530228DF804204FF001087F1E58289A
:104CE00004D034A003900EA802900DE036A0F9E79E
:104CF00053466046009AFBF737FA84460398825C75
:104D00000298401E029002705CEA0100F0D1029805
:104D100006A9081A00F1200A600702D524F480349D
:104D200000E00127574502DDA7EB0A0000E0002064
:104D300000EB0A01009005984144401A0590E003F9
:104D400006D45B462146179A059800F0B3F905444E
:104D5000002706E001A85A46C05D179990476D1CD0
:104D60007F1C4745F6DBE0030CD55B462146179ACE
:104D7000059800F09FF9054404E030205A46179941
:104D800090476D1C0099481E00900029F5DC08E052
:104D9000029802995A460078491C02911799904747
:104DA0006D1CBAF10001AAF1010AF1DC65E1000015
:104DB00009280100303132333435363738396162F1
:104DC00063646566000000003031323334353637B5
:104DD00038394142434445460000000000F058F98C
:104DE0000544761C307800287FF4ECAD19B02846D5
:104DF000BDE8F08F620700D4062709F1070222F010
:104E0000070CFCE80223E14603F000485FEA080CC7
:104E100002D00FF2702C0DE05FEA045C02D50FF2B5
:104E2000682C07E05FEAC47C02D00FF2602C01E03E
:104E3000AFF2700C4FF0FF3823F00043CDF850C0B4
:104E400065280CD006DC452809D046281DD0472807
:104E50003DD13DE0662818D067287ED138E000219A
:104E6000112F01DB112000E0781CCDE9000106A91B
:104E70000EA8FFF7DDFCDDE90F010E9A039100217A
:104E8000009207F1010A04914DE04FF000400097B5
:104E9000CDE9011006A90EA8FFF7CAFCDDE90F0253
:104EA00003920E9B11990022DDF80CA0009304924E
:104EB00011B9791C00EB010AB7EB0A0004D4C0F168
:104EC000FF3007F1010A0490AAEB0700019044E0CB
:104ED000012F00DA01270021112F01DD112000E050
:104EE0003846CDE9000106A90EA8FFF7A1FCDDE9CF
:104EF0000F010E9A0391002104910092BA462107F6
:104F00000CD40399514500DA8A46BAF1010F05DD48
:104F1000009AAAF10101515C302908D0B84202DAA6
:104F200010F1040F06DA0121CDE9011015E0AAF114
:104F30000101E9E7002805DC049901440491AAEB8A
:104F4000000102E0411C514500DD8A460499401AE7
:104F5000401C01904FF000400290200704D40198BB
:104F6000504501DBCDF8048000208DF84F000298F9
:104F70000DF14F07B0F1004F25D02B200E90029875
:104F80004FF0020800280CDA404202902D200E90CB
:104F900007E00A210298FBF7DDFB3031029007F8A9
:104FA000011DB8F10001A8F10108F2DC0298002807
:104FB000EFD1791E0E980870307800F0200040F094
:104FC000450007F8020D12A8C01B00F1070814984D
:104FD000007800B1012000EB0A01019801EBE071BB
:104FE00005984144401A401E0590E00306D45B46F4
:104FF0002146179A059800F05DF80544149800784A
:1050000018B15A46179990476D1CE00324D55B46AA
:105010002146179A059800F04DF805441CE00498C5
:10502000002807DBDDE90301884203DD0098405CCE
:10503000179901E0179930205A469047049805F1D6
:105040000105401C04900198401E019004D12E20BF
:105050005A46179990476D1CBAF10001AAF1010A4E
:10506000DDDC05E017F8010B5A46179990476D1CD7
:10507000B8F10001A8F10108F4DC5B462146179A5B
:105080000598ABE62D0000002B000000200000007A
:105090002DE9F041044600251E461746880404D435
:1050A00005E039462020B0476D1C641EF9D528461E
:1050B000BDE8F0812DE9F041044600251E469046EA
:1050C000C80301D5302700E02027880404D505E077
:1050D00041463846B0476D1C641EF9D52846BDE8E8
:1050E000F081000000B5244B21F0004287B09A42C5
:1050F000DCBF0022134629DD204B9A4208D140B97B
:105100004FF00100FFF78EFBFFF76DFB07B000BD0E
:1051100003DBFFF765FB07B000BD02AAFFF752F8FB
:1051200010F0030104BF0DF1080C9CE80F000DD036
:10513000012001290ED0022914D00DF1080C009095
:105140009CE80F00FFF7D6FA07B000BDFFF7FEF9A5
:1051500007B000BD0DF1080C00909CE80F00FFF7B0
:10516000C9FA05E00DF1080C9CE80F00FFF7EEF915
:1051700007B081F0004100BDFB21E93F0000F07F56
:1051800010B5044601E0FEF741FC14F8010B044998
:105190000028F8D1BDE810400A20FEF737BC000017
:1051A0000000002000B5254B21F0004287B09A4254
:1051B00003DC0022134600922BE0214B9A4208D1D7
:1051C00040B94FF00100FFF72DFBFFF70CFB07B0D4
:1051D00000BD03DBFFF704FB07B000BD02AAFEF72A
:1051E000F1FF10F003014FF001000DD0012914D0A0
:1051F00002291AD00DF1080C9CE80F00FFF7A6F960
:1052000007B081F0004100BD0DF1080C00909CE852
:105210000F00FFF76FFA07B000BD0DF1080C9CE816
:105220000F00FFF793F907B000BD0DF1080C0090D7
:105230009CE80F00FFF75EFAE2E70000FB21E93F80
:105240000000F07F000000004C5555555555A53F16
:105250007751C1166CC156BF9015CB19A001FA3E0B
:10526000AD529C804F7E92BEC4B1B4BD9EEE213E35
:10527000D43888BEE9FAA8BD00004054FB21F93FAC
:105280003163621A61B4D03D0000601A61B4D03D50
:105290007370032E8A19A33B0000002E8A19A33BCA
:1052A000C14920259A837B390000000000000000DE
:1052B0006E83F9A22915444ED15727FCC0DD34F581
:1052C000999562DB4190433CAB6351FE61C5BBDE07
:1052D0003A6E24B7E0D24D42EA2E49061C92D1091B
:1052E0001CEB1DFE3EA729B1F53582E88444BB2E98
:1052F00026709CE9417E5FB439D69139F4395383E5
:105300008B5F849C3B28F9BDFF97F81F0F9805DE43
:105310008B112FEF1F6D0A5ACF7E366DB709CB2741
:10532000663F464F2DEA5F9EC7BA27757BF1E5EBD6
:10533000F739073DEA92528AB15FFB6B085D8D1F1A
:105340004630035600000000A6F810111111813FED
:10535000D561C119A0012ABF7DFEB157E31DC73E2B
:10536000EB9C2B8AE6E55ABE7CD5CF5A3AD9E53D6F
:105370000102000000000000000001020304060713
:1053800008090000000001020304020304050607E7
:1053900008090A0B0C0D0E0F10106D6F746F725F01
:1053A00063757272656E743A20252E336620410D46
:1053B0000A006D6F746F725F73706565643A2025C3
:1053C0002E3366206470730D0A0069642065727262
:1053D0006F720000F8530008000000203001000048
:1053E000044800082855000830010020A0050000EE
:1053F0001448000800000000000000000000000049
:1054000005060000CDCC4C3DCDCC4C3D010000004C
:10541000100000000024F40000000000CB91DFBA6F
:105420005E4D1E3C006D123AA22A263B2042DCBC97
:1054300055A56D3D2118AC3BD748B7BB39D0C33C0F
:10544000AE6407BD2E56943D378B97BCE8DBA2BDFA
:10545000A1BE05BE83171D3E9CDDBABDF54A193EAF
:10546000475A9A3ED7C0D6BCA0517ABD5C1BEABD54
:10547000986A663D32C7F23C8FDFDBBCC2F6533D13
:10548000A74151BC0872003F4356F7BD06D8C7BEBE
:105490002785993DFC6F45BE4A25BC3CAB7823BEB1
:1054A0009ACE8EBD5A9E673E09FE173F41BA583BC1
:1054B000EA04343EF376043EDBDCA8BE7D3FB53E15
:1054C000056EBDBECD92D0BEC4992FBF768D963CE1
:1054D0001B9C483D5FD2D83E66F7F4BE85B67C3E45
:1054E000952DB2BDA4702DBFEC51A83E5A8036BC9C
:1054F000C85EEFBCD0D58E3FFA9B303EA81887BE61
:10550000FB3F97BE791EFC3EA3403FBEE201E53D56
:105510007077863EEF8F17BE54C9403D5837BEBDE9
:08552000855FEABD00000000F8
:0400000508000131BD
:00000001FF
